:020000040002F8
:10600000B0A000201D600200DFF80CD000F01AF8EC
:10601000004800472D600200B0A0002002B5EFF359
:10602000088181F30988054800470000044880473B
:10603000EFF3098181F3088802BD0000456002008A
:1060400035770200064C074D06E0E06840F001039A
:1060500094E8070098471034AC42F6D3FFF7D8FF16
:10606000803B0300A03B03002DE9F05F05460020C4
:1060700092469B4688460646814640241BE02846B9
:1060800041464746224600F078FB53465A46C01A1E
:10609000914110D311461846224600F05FFB2D1A9D
:1060A00067EB01084F4622460120002100F056FB15
:1060B00017EB00094E41201EA4F10104DFDC484625
:1060C00031462A464346BDE8F09F10B5431A934235
:1060D00009D28318881803E010F8011D03F8011D88
:1060E000521EF9D210BD40EA01039B0703D009E01C
:1060F00008C9121F08C0042AFAD203E011F8013BB4
:1061000000F8013B521EF9D210BDD2B201E000F8F6
:10611000012B491EFBD270470022F6E710B513464B
:106120000A4604461946FFF7F0FF204610BD421C00
:1061300010F8011B0029FBD1801A704730B50446C6
:106140000020034600E05B1C934203D2E05CCD5C80
:10615000401BF8D030BD034611F8012B00F8012B8D
:10616000002AF9D1184670472DE9F0410E46054640
:10617000002400E0641C285D00F021FB0746305D30
:1061800000F01DFB381A02D1295D0029F2D1BDE8CB
:10619000F08110B5484304460AF094FC002805D06D
:1061A0000021002C02D0641E0155FAE710BDF0B4A6
:1061B00080EA0102D40F4200B2EB410F02D2024644
:1061C000084611464A0042D0C30DDDB2C1F3C752A2
:1061D000AD1A202D35DAC1F3160141F4000204B1E5
:1061E0005242C5F1200602FA06F12A411044B3EBEF
:1061F000D05F23D0C4B1012DA0EBC35009DCF0BCAB
:106200004FF0004202EAC352DBB200F5000000F09A
:10621000E5BA400000F1807000EBC350A0F180703F
:1062200040EAD170490009E0490841EAC071A0EB99
:10623000C35000F50000400800EBC350F0BC00F074
:10624000C4BA6142012202EB4101001BF6E7F0BC37
:10625000704781F00041AAE780F00040A7E780EA9C
:10626000010210B502F00043400022D04A001FD0C6
:10627000010E01EB1261C0F35600C2F3560240F466
:10628000000042F40002A0FB022000047F39140445
:1062900000D0401C50EA124001D44000491EC2B256
:1062A0000C0604EBD010401C4008802A02D003E00A
:1062B000002010BD20F00100002900DA0020184362
:1062C00010BD2DE9FE4F804681EA0300C00F0C4649
:1062D000009021F0004123F00045B8EB0200A941F5
:1062E00005D24046214690461C460B46024623F006
:1062F0000040104347D0270DC7F30A00C3F30A51EB
:106300000290401A019040286BDAC3F3130040F466
:10631000801B0098924620B10023D2EB030A63EB66
:106320000B0B01985946C0F14002504600F016FA96
:1063300006460D4650465946019A00F02EFA10EBDB
:1063400008006141002487EA115284EAE7731A4386
:1063500040D0009A62B3019A012A4FEA075215DC35
:10636000001B61EB02014FF0004202EA0752CDE947
:106370000042001C41F5801132462B4600F06BFABA
:1063800003B0BDE8F08F40462146F9E7001B61EB02
:106390000201001C41F5801300185B412018A2F592
:1063A000001747EB030140EAD570B6196D4111E0C3
:1063B0006D084FEA360645EAC0754FEA0752001BE2
:1063C00061EB0201001C41F5801149084FEA3000E1
:1063D0000019514132462B4603B0BDE8F04F00F0A2
:1063E0002BBA0098012240000023D0EB020263EB9D
:1063F000E073009821464FEAE074B8EB000061EBCF
:106400000401E9E783F000435BE781F0004158E7CE
:106410002DE9FE4F81EA030404F0004421F000411D
:1064200000944FF0000B23F0004350EA01045ED0CB
:1064300052EA03045BD0C3F30A54C1F30A552C4457
:10644000A4F2F3340194A0FB0254C1F3130141F40C
:106450008011C3F3130343F4801301FB024400FBD8
:10646000034E840A970A44EA815447EA8357A4FBFF
:10647000076802958D0A05FB07854FEA932C04FBFC
:106480000C542705029D4FEA065847EA1637B5EB2C
:1064900008056EEB070C870E920E47EA811742EA59
:1064A0008312A7FB0201B6EB0B0164EB00042B0D7A
:1064B00043EA0C335E1844EB1C50DA465146E7FBC6
:1064C0000201C5F313044FEA0B3343EA14534FEAB6
:1064D0000432019C43EA0603A4F10C040294009CDC
:1064E000CDE900B400F0B7F903B0BDE8F08F0020AB
:1064F0000146F9E72DE9F04D81EA030404F0004B71
:1065000021F0004514464FF0000A23F0004150EA04
:10651000050220D054EA01021DD0C5F30A570246F5
:10652000C5F31303C1F31300C1F30A5640F48015F9
:1065300043F48013A7EB0608101BD64608F2FD387B
:1065400073EB050002D308F1010801E092185B41EA
:10655000B8F1000F03DA00200146BDE8F08D0020FD
:106560004FF48011064684460EE0171B73EB0507B7
:1065700005D3121B63EB050306434CEA010C4908E3
:106580004FEA300092185B4150EA0107EDD152EA20
:10659000030012D082EA040083EA0501084305D013
:1065A000101BAB4106D20122002306E000224FF06F
:1065B000004302E06FF0010253101AEB06004CEBAF
:1065C000085110EB0A0041EB0B01BDE8F04D00F063
:1065D00033B930B5041E71F1000404DB4FF0004400
:1065E000404264EB0101141E73F1000405DB1C46FC
:1065F0004FF00043524263EB0403101A8B4101D267
:10660000012030BD002030BD30B5041E71F1000402
:1066100004DB4FF00044404264EB0101141E73F1AF
:10662000000405DB1C464FF00043524263EB0403B9
:1066300042404B401A4301D0002030BD012030BD04
:10664000C10F80EAE0700844CA079623002100F0D9
:10665000C5B896230022114600F0C0B80EB5C10F90
:1066600080EAE0700844CA07002140F233438DE815
:106670000E000A460B4600F0EEF803B000BD0EB562
:1066800040F2334102910021CDE900110A460B4648
:1066900000F0E1F803B000BD00F0004220F000403F
:1066A000C10DC0F3160040F400007F2901DA00207C
:1066B0007047962903DCC1F19601C84001E0963984
:1066C0008840002AF4D04042704720F00040C10DBD
:1066D000C0F3160040F400007F2901DA0020704763
:1066E000962903DCC1F19601C8407047963988406D
:1066F000704770B5C1F30A5201F000450024C1F3A0
:10670000130140F2FF3341F480119A4201DA002074
:1067100070BD40F233439A42A2F2334203DC52424C
:1067200000F02BF800E090402C43F1D0404270BDC7
:1067300030B50B46014600202022012409E021FA51
:1067400002F59D4205D303FA02F5491B04FA02F54E
:106750002844151EA2F10102F1DC30BD202A04DB21
:10676000203A00FA02F1002070479140C2F1200364
:1067700020FA03F3194390407047202A04DB203AA3
:1067800021FA02F00021704721FA02F3D040C2F151
:1067900020029140084319467047202A06DBCB1798
:1067A000203A41FA02F043EAE07306E041FA02F3CC
:1067B000D040C2F120029140084319467047A0F131
:1067C0004101192900D8203070470029A8BF70471F
:1067D000401C490008BF20F00100704710B4B0FA17
:1067E00080FC00FA0CF050EA010404BF10BC7047B2
:1067F00049B1CCF1200421FA04F411FA0CF118BFCC
:10680000012121430843A3EB0C01CB1D4FEA00619A
:106810004FEA102042BF002010BC704700EBC3506D
:1068200010440029A4BF10BC7047401C490008BF99
:1068300020F0010010BC704710B5141E73F1000465
:1068400008DA401C41F1000192185B411A4301D162
:1068500020F0010010BD2DE9F04D92469B4611B18C
:10686000B1FA81F202E0B0FA80F220329046FFF7EE
:1068700075FF04460F4640EA0A0041EA0B01534601
:106880005A46084313D0114653EA010019D0C8F103
:1068900040025046FFF771FF05460E4650465946E6
:1068A0004246FFF75BFF084305D0012004E0204685
:1068B0003946BDE8F08D0020054346EAE0762C43DA
:1068C00037430A986305E40AA0EB08000022FD0A9A
:1068D00044EA47540A3002D500200146E9E70105A1
:1068E00010196941DDE9084500196941BDE8F04D1D
:1068F000A2E770B521F0004303430CD0C1F30A5561
:106900000024D5EB040564EB0403D617AD1AB3419C
:1069100002DB0020014670BD201841EB025170BD22
:10692000C1F30A52C1F3130140F2FF3341F4801165
:106930009A4202DA00200146704740F233439A42FD
:10694000A2F2334202DC5242FFF717BFFFF706BF45
:1069500030B5041E71F1000404DB4FF000444042E6
:1069600064EB0101141E73F1000405DB1C464FF0BB
:106970000043524263EB04038B4208BF824230BDA6
:1069800030B5041E71F1000404DB4FF000444042B6
:1069900064EB0101141E73F1000405DB1C464FF08B
:1069A0000043524263EB0403994208BF904230BD5A
:1069B00030B58C1810F8012B12F00F0301D110F82C
:1069C000013B120906D110F8012B03E010F8015B1E
:1069D00001F8015B5B1EF9D101E001F8013B521E99
:1069E000FBD1A142E6D3002030BD000080B586B0C7
:1069F0008DF81700ADF81410002004900390029059
:106A000001909DF8170038B1FFE7BDF8142001A8E8
:106A1000B92108F04DFF06E0BDF8142001A8BA2105
:106A200008F046FFFFE701A80B2108F04DF806B07B
:106A300080BD000080B586B08DF81700002004905E
:106A40000390029001909DF8172001A80090BB21AF
:106A500008F02EFF00980B2108F036F806B080BD34
:106A600080B586B08DF81700ADF8141000200490A2
:106A70000390029001909DF8170038B1FFE7BDF830
:106A8000142001A8B52108F013FF06E0BDF814207A
:106A900001A8B62108F00CFFFFE701A80B2108F0C0
:106AA00013F806B080BD000080B586B08DF81700E1
:106AB000ADF81410002004900390029001909DF80E
:106AC000170038B1FFE7BDF8142001A8B72108F07E
:106AD000EFFE06E0BDF8142001A8B82108F0E8FE9A
:106AE000FFE701A80B2107F0EFFF06B080BD000013
:106AF00080B586B08DF81700ADF814100492002010
:106B000003900290019000909DF8170040B1FFE7BC
:106B1000BDF81420049B6846B12108F033FE06E05E
:106B2000BDF814206846B22108F0C2FEFFE76846AF
:106B30000F2107F0C9FF06B080BD000080B586B008
:106B40008DF81700ADF81410002004900390029007
:106B500001909DF8170038B1FFE7BDF8142001A897
:106B6000B32108F0A5FE06E0BDF8142001A8B42169
:106B700008F09EFEFFE701A80B2107F0A5FF06B075
:106B800080BD000083B002908DF807108DF80620BC
:106B90009DF8071001208840009002980068009935
:106BA00088439DF806109DF80720914008430299FC
:106BB000086003B07047000080B582B08DF8070010
:106BC0008DF806109DF80600032819D0FFE79DF800
:106BD00007109DF80620002A18BF01222020C4F2C9
:106BE0000000FFF7CFFF9DF807109DF80600013861
:106BF000B0FA80F042094FF04020FFF7C3FF0FE0EA
:106C00009DF807102020C4F200000022FFF7BAFF11
:106C10009DF807104FF040200122FFF7B3FFFFE778
:106C200002B080BD80B582B08DF807008DF80610E7
:106C30009DF807109DF806201020C4F20000FFF711
:106C4000A1FF02B080BD000083B08DF80B008DF86D
:106C50000A1044F21000C4F20000019044F218003F
:106C6000C4F2000000909DF80A0050B9FFE70198B7
:106C700000689DF80B20012191408843019908602C
:106C800022E09DF80A0001280AD1FFE70098006879
:106C90009DF80B200121914008430099086009E00C
:106CA000009800689DF80B200121914088430099CD
:106CB0000860FFE7019800689DF80B2001219140D2
:106CC000084301990860FFE703B0704784B0039060
:106CD0008DF80B108DF80A2003980021C4F20701EB
:106CE000084401909DF80B103F20884000900198C7
:106CF0000068009988439DF80A109DF80B20914088
:106D000008430199086004B07047000080B582B064
:106D10008DF807008DF806109DF80710002918BFA0
:106D200012219DF806205420FFF7D0FF02B080BD4D
:106D300083B08DF80B008DF80A109DF80B107C20A5
:106D400000EA51004421C4F20701084401909DF873
:106D50000B0000F0070080008DF803000198006828
:106D60009DF803200F21914088439DF80A1091401F
:106D7000084301990860002003B0704780B584B0D3
:106D800003908DF80B1001200190FFE79DF80B0098
:106D9000012810DBFFE70198FFF75BFC0399FFF781
:106DA0005EFAFFF792FC0190FFE79DF80B000138B7
:106DB0008DF80B00EAE7019804B080BD80B582B081
:106DC0000190019800EB400141F27810C2F20000FE
:106DD00000EBC100183000F01BFA02B080BD0000CB
:106DE00080B500F0CDF980BD80B586B005900491E6
:106DF0000392FFE741F27810C2F20000007818B960
:106E0000FFE700F0BDF9FFE7FFE7EFF311804FF078
:106E1000200181F31188019005980499039A00F0EC
:106E200007F80290019880F31188029806B080BD9F
:106E300080B58AB009900891079208980490099843
:106E400000EB400141F27810C2F2000000EBC100FB
:106E50001830039003984069029040B1FFE7029810
:106E6000012819D0FFE7029802282CD032E00398BD
:106E700000F0CEF9059005980799884203D2FFE704
:106E80000020069007E00798069003980499079A57
:106E900000F04CFAFFE720E0039800F0B9F9059004
:106EA00005980799884203D2FFE70598019002E010
:106EB00007980190FFE70198069003980499069AB5
:106EC00000F034FA09E003980499079A00F0C0F939
:106ED000069002E000200690FFE706980AB080BD09
:106EE00081B00090009A0421C4F2070108681043A1
:106EF000086001B0704700000020704780B58AB07C
:106F000008908DF81F100898408828B9FFE79DF871
:106F10001F000899087034E00898059041680391B3
:106F200090F90000FFF78CFB039902904FF07E5020
:106F3000FFF78FF901909DF91F00FFF781FB0146D4
:106F40000198FFF78CF90299024603980492FFF723
:106F500086F90499FFF72BF9FFF79EFB0599087056
:106F6000089890F90010069181784068FFF706FFB5
:106F700001460698C1F10101B0FBF1F00899487093
:106F8000FFE7089948880130488008984088B0F5A4
:106F90007A7F0BDDFFE708990120488008990020DF
:106FA0000870089840788DF8270003E000208DF8DD
:106FB0002700FFE79DF927000AB080BD82B001904D
:106FC0008DF803109DF803000199086002B0704726
:106FD0002DE9F04F83B00E460C990446CD1A6F1C74
:106FE000002015F1020F2060606003DC276003B011
:106FF000BDE8F08F002F00F0C08008209A46009076
:10700000002000213A4620234FF0000905F016FB2E
:10701000834608307901C4E9007BFFF77DF8032D32
:1070200007F0030359D327F0030006EB4A19C0F118
:10703000000E00220027CDE9013600BF09EB070052
:1070400000F10C0C59F80750D0E901639CE80211DB
:107050000BEB0704C4E9068CC4E90431C4E9025609
:10706000D0E90631043AC4E90831D0E908C8D0E9CA
:107070000A65D0E90C31C4E90C65C4E90E31C4E9F4
:107080000AC8D0E90E319645C4E91031D0E910C8DC
:10709000D0E91265D0E91431C4E91465C4E91631A8
:1070A000C4E912C8D0E9163107F18007C4E91831E4
:1070B000D0E918C8D0E91A65D0E91C31C4E91C65CB
:1070C000C4E91E31C4E91AC8C16F806FC4E9200148
:1070D000B4D1DDE90136C2F10009002B4DD009EB36
:1070E0000A0106EB4112490102F10C0556F801C0F4
:1070F000D2E901E732CD0BEB4910C0E90645C0E902
:107100000471C0E902CED1699269012B4162026229
:1071100033D009F101000BEB4011504406EB401253
:10712000400102F10C0556F800C0D2E901E731CD6B
:10713000C1E90645C1E90470C1E902CED06992698E
:10714000022B48620A6218D009F102000BEB4011D1
:10715000504406EB4012400130585569D2E90364AF
:1071600001F1080CD2E90137CD61C1E905648CE871
:107170008900D0699269C1E9082003B0BDE8F08FA9
:1071800080B582B041F27810C2F2000001900199FE
:107190000120086101994861019842F62A01C0F274
:1071A00003018161019A41F2D010C2F20000D06166
:1071B000019A4FF4FA701062019A00209062019ACD
:1071C0005062019AD062019A1163019A41F2C01192
:1071D000C2F200015163019A102191630199086480
:1071E0000199C863019948640198073042F6260165
:1071F000C0F20301FEF7AFFF019842F61F01C0F293
:107200000301FEF7A8FF01992020887102B080BD1C
:1072100084B003900398006902900398C0680190BD
:1072200002980199884209D8FFE70398806801997C
:10723000401A029908440138009005E0029901982B
:10724000C04308440090FFE7009804B07047000076
:1072500080B58AB00990089107920020059009989E
:10726000C0680390FFE709980069049004980399A7
:10727000884206D9FFE704990398C0430844069062
:1072800008E0099881680398049A801AC04308446A
:107290000690FFE7069809998968039A891A884237
:1072A00003D2FFE70698029005E0099880680399E9
:1072B000401A0290FFE702980690069807998842C4
:1072C00003D2FFE70698019002E007980190FFE7DC
:1072D0000198069009984068039908440899069A0D
:1072E000FEF7F3FE0699059808440590069908985C
:1072F0000844089006990798401A07900699039841
:1073000008440390039809998968884203D1FFE7EC
:1073100000200390FFE703980999C860FFE70798EA
:107320000028A0D1FFE705980AB080BD80B586B0DF
:107330000590049103920598C068019005988068B3
:107340000199401A00900098039988420ED9FFE7EE
:1073500005984068019908440499039AFEF7B5FE20
:107360000198039908440599C86019E000980290B3
:1073700005984068019908440499029AFEF7A5FE11
:1073800003980099401A0290059840680499009A61
:107390001144029AFEF799FE02980599C860FFE72A
:1073A00006B080BDF0B581B00C46054610461946C2
:1073B000FFF72EF806460F46284621462A46234662
:1073C000FFF726F832463B46FEF77BFF01B0F0BDE3
:1073D0002DE9F04F87B01E461446B3F1FF3F8046BB
:1073E00044DDB4F1640076F100005AD342F2D05B80
:1073F000CDF80080C0F2030B0DF1040842F20F7AC1
:107400004FF00009204631466422002337462546C6
:10741000FEF72AFE044647F69C7004FB00500E4619
:10742000400000B23BF8000008EB0901C882BAEB4B
:1074300005004FF00000B841A9F10209E2D3DDF8E0
:10744000008009F11700D4F109014FF00001B141AA
:107450002ED242F2D052C0F2030202EB440149782C
:1074600012F81420451E01AB5A5524E064424FF037
:10747000000540464FF0010165EB060605F08EF869
:10748000D8E9000108442D210171D8E9000101303B
:10749000C8F8000008440571B4F1640076F10000FA
:1074A000A4D21720D4F109014FF00001B141D0D38B
:1074B00004F130010546D8F8007001AEC5F118049A
:1074C00031543919404606F0EBFAD8F80400711926
:1074D000384404302246FEF7F8FD07B0BDE8F08FCF
:1074E00070B582B0D0E9005206460C4622B1106851
:1074F00020F08040A8420BDC4FF0080C28461146D3
:1075000001222023CDF800C005F098F802467060F3
:10751000681C306002EB4510D4E900C2D4E90236A1
:10752000D4E90415C0E90436C0E90615C0E902C271
:10753000D4E90621C0E9082102B070BD70B582B05F
:10754000D0E9004205460E4622B1106820F0804086
:10755000A0420BDC4FF0040C20461146012204230C
:10756000CDF800C005F06AF802466860601C28602B
:1075700002EB8400466002B070BD00002DE9F043CC
:1075800081B0D0E90061DDF82480DDF820901C4650
:107590000546174621B1086820F08040B0420ADC59
:1075A0004FF0080C304601221023CDF800C005F042
:1075B00045F801466860701C286001EB0610C0E9C0
:1075C0000274C0E9049801B0BDE8F0830929A4BFA2
:1075D00030F8021C401A08F039BF000087B005904F
:1075E000049103920498C0000399B0FBF1F002905B
:1075F0000298C009019001990298A0EBC110029075
:107600000298013040080090019805994862BDF841
:10761000060018B9FFE7019820B9FFE74FF0FF30E7
:10762000069018E001984FF6FF71884204D1FFE7F9
:1076300005990020886207E001990298401A02909B
:10764000009805998862FFE70598C06A0599C862A5
:1076500000200690FFE7069807B0704781B00090C1
:1076600000988069C0F3001001B0704781B00090AD
:1076700000988069C0F3401001B0704781B000905D
:107680000098C06B01B0704780B584B00290019142
:107690000092029900200863029948640299886365
:1076A0000299486002994862029988620299C86208
:1076B0000298019AD1681269FFF790FF20B1FFE7A5
:1076C0004FF0FF30039031E0019890F800C041780E
:1076D0008378C278802000EA411040EA4C1040EAEA
:1076E000031040EAC20001F0030140EA41000299A0
:1076F000C8620198B0F8090040BA0299486300983E
:10770000029988630199087991F805C08B79CA7943
:10771000400240EA0C20184440EAC230097A40EAAC
:1077200081300299086300200390FFE7039804B0BA
:1077300080BD000080B5FFF7DFFB42F2E460C0F2DD
:107740000300F8F71BFC06F087FA41F68830C2F216
:10775000000006F079FF02F047FD02200021F8F753
:107760004BFA04F0CBFD80BD80B584B0039002914C
:10777000ADF8062003984088BDF806100844B0F51F
:10778000807F04D9FFE7039900204880FFE7039832
:107790004088BDF806100844B0F5807F10D8FFE798
:1077A00003984188084404300299BDF80620FEF78A
:1077B0008CFCBDF806200399488810444880FFE7F8
:1077C00004B080BD8AB0089007910692059307988F
:1077D000023045F25651C5F2555180FB011000EBC5
:1077E000D0708000049042F63300C0F20300019094
:1077F000049805990139884206DDFFE706990020C3
:1078000008700698099074E00699049A002088543C
:1078100003900290FFE703980499023988423DDA09
:10782000FFE701980899029A895C8908405C0699EB
:10783000039A885401980899029BCA18C95C01F000
:1078400003010901527841EA1211405C069A03993A
:10785000114448700198089A02990A445178927824
:1078600001F00F01890041EA9211405C069A0399E8
:10787000114488700198089A02991144897801F09E
:107880003F01405C069A03991144C870FFE70298D3
:1078900003300290039804300390BCE7079845F248
:1078A0005651C5F2555180FB012101EBD17101EB1D
:1078B0004101401A01460091012804D0FFE70098D9
:1078C00002280CD012E00699039801443D2001F8EB
:1078D000020C069A0399114401F8010C06E006997E
:1078E000039801443D2001F8010CFFE70698099038
:1078F000FFE709980AB0704780B586B0072004906A
:1079000001210291FFF78EF90A20019000210591D3
:10791000FFF788F94FF47A70039002F061F801984C
:107920000299FFF77FF9039802F05AF80498059935
:10793000FFF778F906B080BD81B00090009880789C
:1079400001B0704780B582B0019001987C21FEF7AC
:10795000E3FB02B080BD000080B58AB008900791BB
:107960000898012803DCFFE70120099025E007982B
:10797000406804A902AA00F023F80190019868B9B0
:10798000FFE704980599FEF7B4FE41F29801C2F2B0
:107990000001C8700879013008710BE043F22D70C6
:1079A000C0F2030043F63101C0F203013C22F8F7B4
:1079B00039FAFFE701980990FFE709980AB080BDFE
:1079C000F0B585B00E4601466846154600F092FFB8
:1079D000DDE900146846224600F02EF841F2501707
:1079E000C2F20007387878B99DE80F00C6E90001B7
:1079F000C5E900232CB1E078400602D4204600F00F
:107A00009BFF002005B0F0BD44B1E078400605D4EE
:107A1000204600F091FF38780028F2D041F264103F
:107A2000C2F2000001680022C9693A7002F096FAB9
:107A3000012005B0F0BD00002DE9F04F9FB00024FB
:107A40000546C0E90044C0E9024414A8CDE91D443C
:107A500004F05AFC41F25017C2F200073878159E24
:107A6000002840F01482149914A8324600F0AAFBB2
:107A70003878002840F00A82DDE914B4002E0C9515
:107A800018BFB44240F0C681002600202021082201
:107A90001D9604F079FABBF1010F1E90139435DBAB
:107AA00014A8B84600F1100400256FF00606102750
:107AB0000DF174093046082D38BF2846139A1490EA
:107AC00002EB051A5AF8080FD319DAF80410D25944
:107AD0005B6804F03DFD98F800201791002A16908D
:107AE00040F0A2819AE80F0084E80F00484614A9EC
:107AF000FFF7F6FC01350236AB4507F11007D9D187
:107B0000DDE91D61DDF84CB0474601E00146A346C2
:107B10000720002918BF0831009014A8324600231E
:107B20000025FFF755FA38781499159C0028119113
:107B300040F0BE8114A8224602F0DCFE3878DDF861
:107B40005080159D002840F0B581294614A8424672
:107B5000002D18BF083103F009F83878002840F0EC
:107B6000A9810DF1500B9BE84908DDE91D21129414
:107B7000002918BF08318DE8490014A8CDF80CB0D1
:107B800001F044FF3878DDF85090159C0028CDF8BE
:107B9000409040F09B81A246CDE909680B95A9F180
:107BA0000105002C18BF0AF1080A14A851464A46DC
:107BB00008230095FFF70CFA3878149E159D0028CD
:107BC000CDE90E6540F08E8114A831462A4602F0B8
:107BD00091FE3878149A159900280D9140F0908103
:107BE00014A80894002918BF0831079202F0BEFFBC
:107BF0003878002840F090810DF1500898E8230172
:107C00004A468DE8230014A85146CDF80C8001F0B7
:107C1000FDFE3878DDF850A0DDF85490139E002862
:107C200040F08681099859462A464346FEF749FBAB
:107C300048F28043C4F22E130022FEF7E9FB42F61D
:107C4000185242F2FB13C5F24442C4F21903FEF784
:107C500051FC44F20003C4F28F030022FEF74AFCF9
:107C600044F20003CCF26F030022FEF72AFB8046A9
:107C7000099114A8514604F039FADDE9140B129C5D
:107C8000BAF1010F7ADB0AF003055FEA9A074FF0B9
:107C9000000C41D004A981E820050BF1280AACEBC7
:107CA000870E002509EB4507D7E90624D7E90838F0
:107CB0000BEB0506C6E90224C6E904383B6CBC6B35
:107CC0000AEB050242F8083C42F8104C7B6CFC6B56
:107CD00042F8043C42F80C4CBB6D3C6E4AF805304F
:107CE000FB6D796EC2E90134D160B96FD7F880209D
:107CF000B1633264D7F88410FA6FACF1040CE64536
:107D000005F140057164F263CCD10DF1100A129CAB
:107D10009AE82005CCF1000C85B309EB4C1202F176
:107D2000180E0BEB0C119EE88840526A01F1080610
:107D3000012D86E888404A6120D00CF101010BEB4F
:107D4000011209EB411101F1180E9EE88840496AC1
:107D500002F10806022D86E8884051610ED00CF130
:107D6000020209EB421505F118070BEB02118CCF4B
:107D70006D6A01F1080C8CE88C004D61594600F0E9
:107D8000EFF841F25012C2F200021278119F002A5D
:107D900040F0D6800C9A099BDDE90A65BBF1000F23
:107DA000C2F80080C2E90130D16007D09BF803001F
:107DB000400603D458460821FFF708FC50464946C0
:107DC00002F018F907980D9902F014F9DDE90E0197
:107DD00002F010F91098089902F00CF93046294683
:107DE00002F008F93846214602F004F9DDE91D01E8
:107DF00002F000F9DDF84CB0BBF1000F07D09BF8A2
:107E00000300400603D458460821FFF7DFFB1FB0EC
:107E1000BDE8F08FF07840063FF536AE30460821D9
:107E2000FFF7D4FB30E600BF0020002411900025AE
:107E30004FF000080026CDE90F00CDE90D00002726
:107E40004FF000094FF0000ADDF84CB050464946AB
:107E500002F0D0F80D99384602F0CCF8DDE90E01B9
:107E600002F0C8F81098314602F0C4F8404629469E
:107E700002F0C0F81198214602F0BCF8DDE91D01BE
:107E800002F0B8F8BBF1000FB9D1C0E70024002020
:107E9000119000254FF00008CDE90F00CDE90D004D
:107EA00000274FF000094FF0000AB3460026CDE747
:107EB0004FF0000800200026CDE90F00CDE90D00AD
:107EC00000274FF000094FF0000ABFE7002000270D
:107ED00026464FF000094FF0000A0F90CDE90D0043
:107EE0000AE000BF0020DDE90A850D900027264644
:107EF0004FF000094FF0000ADDE9124BA6E700BF82
:107F00002646DDE90A85DDE9124B4FF000094FF006
:107F1000000A17469AE700BFDDE90A85DDE9124B42
:107F2000DDE907764FF000094FF0000A8EE700BF49
:107F30000898DDE90A85129C079FB346064685E747
:107F4000DDE90A85BBF1000F07D09BF8030040066E
:107F500003D458460821FFF739FBDDE9077673E7BC
:107F60002DE9F04F95B0D1E90286D1E9047B824634
:107F7000044601F118090128D8BF01240A9100BF65
:107F8000013C1DD0B9E82E0002A80EC010A8424640
:107F90003346CDE9007B059504F0E6FA41F2501036
:107FA000C2F200000078DDE91086129FDDF84CB0C7
:107FB0000028E5D04FF0000A002100240025F5E05C
:107FC0005046FEF74BFB8146029010A842463346CE
:107FD000CDE9007B8B46039105F0AEFE41F25018CF
:107FE000C2F2000898F800000028E3D1109851462A
:107FF0000F9011980E9012980D9013980C9010A855
:1080000004F074F8DDE91050BAF1010F0B9024DB95
:108010000B9810AE00F108040A9800F1080700BFA1
:10802000D7E90201D7E90023CDE900010F980C99A7
:1080300002900E98059103900D980490304603F03D
:1080400089FF98F800000028B4D110AB0FCBBAF12B
:10805000010A0FC407F11007E2D110A8294604F065
:1080600065F8DDE910A7012D14DB0B9807F1080472
:1080700000F1080696E80F00FFF794F998F8002041
:10808000002A97D1E4E80201013D06F11006F1D182
:1080900002E000BF0B9838B10B98C078400603D4BB
:1080A0000B980821FFF792FAD7E90245BAF1020FBF
:1080B0000B9759DBAAF10100AAF10201032900F094
:1080C000030103D2012081BB4EE000BF07AA82E872
:1080D000020C3946CDF8289020F0030701F1280A58
:1080E0004FF00009AAF1180B9BE84C0820462946DE
:1080F000FEF7E7F832465B46FEF7E3F85AE902235B
:10810000FEF7DFF8FAE80823FEF7DBF809F10409C7
:1081100004460D464F45E5D10DF11C0B09F1010058
:10812000DDE90A979BE8020CF1B107EBC006D6E93E
:1081300002230F4620462946FEF7C3F80446012FC6
:108140000D4611D0D6E9042320462946FEF7B9F89A
:108150000446022F0D4607D0D6E9062320462946BD
:10816000FEF7AFF804460D46DDE90E10DDE90C32EE
:10817000FFF718F998F8002002BB06460F46204684
:1081800029464A465B46FEF7B5F902460B4630469D
:108190003946FEF7AFF909F04FFD0023C4F224037E
:1081A0000022FEF735F904460D460B99504601F0C2
:1081B00039FF2046294615B0BDE8F08F0024002580
:1081C000F3E700002DE9F04F8FB08846D2E9027A3C
:1081D000D2E904690021454602F1180B01600890BC
:1081E0004160B8F1010FD8BF01250792013D19D0B8
:1081F000BBE81E0002A80EC00AA83A465346CDE9C5
:108200000069059404F0B0F941F25010C2F2000088
:108210000078DDE90A7A0C9EDDF834900028E5D07C
:1082200044E000BF4046FEF719FA02900AA83A4619
:108230005346CDE90069039105F07EFD41F25010EF
:10824000C2F20000007888BBDDE90AB7DDE90C4620
:108250000AA8414603F04AFFDDE90AA0B8F1010F80
:1082600009901FDB099800F10805079800F108093B
:10827000D9E90201D9E900238DE803080AA8CDE96C
:108280000374059603F066FE41F25010C2F200003E
:10829000007858B90AAB0FCBB8F101080FC509F146
:1082A0001009E5D1DDE90801C0E900A10FB0BDE882
:1082B000F08F000080B582B00190009101980168B4
:1082C000426842F2CE70C0F20300F7F7ABFDFFE761
:1082D000FEE7000070B588B007900691DDF81CC07D
:1082E000CDF814C0DCF81810DCF81420DCF81C30D1
:1082F000DCF80000DCF804E0DCF80840DCF80C50A6
:10830000DCF81060EC46CCF81060CCF80C50CCF8DF
:108310000840CCF804E0CCF8000042F25670C0F2FD
:108320000300F7F77FFDFFE7FEE7000080B582B0AE
:1083300001900091019942F2C270C0F20300F7F778
:1083400071FDFFE7FEE7000080B582B0019000916B
:10835000FFE70020C4F20200FFF788F9012801D1ED
:10836000FFE7F6E7019801780020C4F20200FEF76B
:1083700025FE002002B080BD80B586B00590049136
:108380004EF60450CEF2000000686FF35F20B0FAA2
:1083900080F040098DF80B009DF80B0028B1FFE735
:1083A000F7F700FD406B8047FFE70020FEF706FD72
:1083B00003900599088949890844039988420EDA8F
:1083C000FFE705980168028900200190FEF70CFD87
:1083D0000198059A51685289FEF706FDFFE79DF85E
:1083E0000B0028B1FFE7F7F7DDFC806B8047FFE764
:1083F000002006B080BD000083B00290ADF80610EA
:10840000FF208DF805008DF80400FFE7BDF8060099
:10841000411EADF80610F8B1FFE79DF8050002997E
:108420004A1C0292097848408DF803009DF8040028
:108430009DF8032042F27001C0F20301895C4840BC
:108440008DF805009DF8031042F27020C0F2030081
:10845000405C8DF80400D9E79DF805109DF80400F4
:1084600040EA012003B0704783B00290ADF80610D7
:10847000FF208DF805008DF80400FFE7BDF8060029
:10848000411EADF80610F8B1FFE79DF8050002990E
:108490004A1C0292097848408DF803009DF80400B8
:1084A0009DF8032042F27011C0F20301895C48403C
:1084B0008DF805009DF8031042F27030C0F2030001
:1084C000405C8DF80400D9E79DF805109DF8040084
:1084D00040EA012003B0704780B582B001900520CA
:1084E00007F0CEFA02B080BD80B582B001900420C2
:1084F00007F0C6FA02B080BD80B582B0019043F6A5
:108500007310C0F2030043F62631C0F20301772254
:10851000F7F788FC02F0A2F8014641F2FC40C2F2F3
:108520000000016001208870022007F0A9FA02B063
:1085300080BD000080B582B00190032007F0A0FA52
:1085400002B080BD80B582B00190062007F098FA95
:1085500002B080BD80B582B00190072007F090FA8C
:1085600002B080BD2DE9F041984615460E460746FB
:10857000FEF72FF801240028384631462A464346A4
:1085800018BF4FF0FF34FEF73FF8002818BF002453
:108590002046BDE8F08100002DE9F047064600685E
:1085A000924600F00302524502D10F46716809B1AC
:1085B000BDE8F087D3E903121C4620F003008A428D
:1085C000306001DD60690BE002EB420000EBD0702F
:1085D000411060692161C90009F0A0FBE168606198
:1085E00000EBC10257603A6940F83160481CE06016
:1085F0001AB106F108002146904741F25018C2F224
:10860000000898F800000028D2D120680128B8BFDF
:10861000BDE8F0874FF0000908E000BF98F80000BF
:108620000028C5D1206800BF0028C1DDA26801383C
:1086300052F8303002EBC0021F683E4656F8081D63
:1086400001F00305554555682060C3F80090EBD153
:108650007268002AE8D1D4E90320904202DD606903
:108660000DE000BF00EB400000EBD07041106069EE
:108670002161C90009F052FBE2683168606100EBDA
:10868000C20340F83260501C2A69E06021F0030008
:10869000002A5D603060C1D0384621469047BDE772
:1086A0002DE9F04F81B041F2501BC2F2000BDBF814
:1086B00018800446884539DDA8F1010A6FF00300EF
:1086C000894600EBC8055746DBF82010224651F8D2
:1086D0003700495903F0E4FB9BF80000002840F004
:1086E00086804F45A7F10107A5F10805ECDCD4E928
:1086F000080181421ED0C84520DD6FF0030000EB69
:10870000C80500BFDBF82010224651F83A0049594D
:1087100005F008F99BF80000002868D1CA45AAF1C5
:10872000010AA5F10805EDDC08E000BFD4E9080165
:10873000814203D1012584F8285000E002254FF042
:1087400000084FF48060C4E903804FF4005008F043
:10875000B9F96061002700BFDBF81800874213DA1F
:10876000DBF820002A4600EBC70150F837004968C3
:108770002346C0F80480FFF70FFF9BF80000013785
:108780000028E9D033E000BFE168012923DB00279E
:10879000606900EBC7014E6850F83700316800F19E
:1087A000080521B1284688479BF8000078B9308930
:1087B00001B2CA1D4B421A40002808BF0822A81A5D
:1087C0000929A4BF30F8021C401A07F03FFEE168F7
:1087D00001378F42DCDBD4E905021144A16118B1F5
:1087E00007F034FE002060610020C4E9030001B0FE
:1087F000BDE8F08FB0B58CB001AC20462C21FDF760
:108800008BFC4FF4806002904FF4005008F05AF94E
:10881000039020460021FFF743FF41F25014C2F2BB
:108820000004207890B9039818B107F00FFE0020DB
:108830000390206A00250195029510B107F006FE0D
:1088400025629DF82C00A561E56108B10CB0B0BDB2
:10885000DDE907126068B2EB410F0FDD4FF6FE71E4
:10886000C1F6FF718842F1DC00EB400149080128A4
:10887000B8BFC02161600CB0B0BD00BF45F2565119
:10888000C5F2555180FB0112102102EBD27217285C
:10889000C8BF510061600CB0B0BD00002DE9F043CD
:1088A00081B09846089B9146D3E90C2303EB421212
:1088B00052E9046732463B46FDF7A4FD04460D46E7
:1088C0004846414632463B46FDF79CFD25F00047B1
:1088D000024621F000432046394601B0BDE8F0438E
:1088E000FFF740BEDDE9001CC0E90023C0E9021C1F
:1088F000704700002DE9F0410446B9B108460F4623
:10890000FDF715FC012811DB054600F101080530D3
:1089100008F0D8F8064640F8045B39464246FDF7B1
:10892000D4FBC4E90056BDE8F08100BF0025002655
:10893000C4E90056BDE8F08107F088BD2DE9F04F8D
:1089400093B00E460021002E01600790416001F0B7
:10895000448041F25010C2F200000078002841F03B
:108960003C8006EB4600C117DDF81C9000EB9170CF
:10897000062101EBA00148460F9205F091F80F9CEB
:1089800040F20908F71E0120C0F2400806E000BFCF
:1089900000FA02F212EA080F2BD0043FE1198A799B
:1089A000A2F10A03162B05D800FA03F313EA080F05
:1089B00002D100BF3D2A1FD14A79A2F10A03162B2A
:1089C00004D800FA03F313EA080F01D13D2A15D1A8
:1089D0000A79A2F10A03162B04D800FA03F313EA6A
:1089E000080F01D13D2A0BD1C978A1F10A02162A3C
:1089F000CED93D29D1D004E0033702E0023700E0B0
:108A000001370297042F4FF000064FF0000780F265
:108A10004F810298381AC11700EB917121F00301C0
:108A2000401A48BF4042032800F0DE84022840F08C
:108A3000D08704EB070818F8040F42F2D045C0F2C3
:108A4000030515F800A00E96BAF1FF0F40F0BF80A5
:108A50002020042103F0D4FB834640F6F040C2F20C
:108A60000000CBF8000043F65500C0F20300CBF83D
:108A7000080098F8001010A801F074F841F25010A6
:108A8000C2F200000078119900280C9140F08B8010
:108A9000DDF8409010A8394601F064F841F250101A
:108AA000C2F200000078119900280B9174D1CDF822
:108AB00034A0DDF840A009EB0A0000F1380110A84D
:108AC00004F010F9DDE9104542F238012E19C0F228
:108AD0000301301D04312222FDF7F7FA98F8000057
:108AE000B9F1010F86F8250046F27240C0F220006D
:108AF000C6F82A0042F26000C6F6287004F1290484
:108B0000C6F8260008DB0C9928190430043109F155
:108B10000102FDF7DAFA4C4446F66F612819C0F2FB
:108B20002001C0F80F1047F26141C6F66971C160BB
:108B300046F62041C6F26F31816042F22901C7F248
:108B40006141BAF1010F04F10E04416008DB0B9999
:108B50002819043004310AF10102FDF7B6FA544431
:108B600028192E218180601CCBE90305002043F6E3
:108B7000550143F6430243F64A03DDF834A0CBF82F
:108B80000400E626C0F20301C0F20302C0F20303B0
:108B90005846009604F05AF80B9820B1C17849065F
:108BA00058BFFFF7C9FE0C9842F2D045C0F203054A
:108BB00020B1C178490658BFFFF7BEFE41F2501000
:108BC000C2F2000000780F9C002840F006870137B1
:108BD000E61916F8040F15F80080B8F1FF0F40F001
:108BE000FA842020042103F00BFB834640F6F0407A
:108BF000C2F20000CBF8000043F65500C0F20300BB
:108C0000CBF80800317810A800F0ACFF41F250100A
:108C1000C2F200000078DDF84490002840F0C984DA
:108C2000109C10A8394600F09DFF41F25010C2F28E
:108C300000000078119900280F9140F0B384109F34
:108C4000CDE90C9AE01900F1380110A804F04AF8B7
:108C5000DDE9109542F2380105EB090AC0F2030183
:108C60000AF1040004312222FDF72FFA3078012C9A
:108C70008AF8250046F27240C0F22000CAF82A00A5
:108C800042F26000C6F6287009F12906CAF82600EB
:108C9000C0F24A84DDF83090A819043009F10401CB
:108CA000621CFDF712FADDF834A0264400F03EBC49
:108CB00002984FF0010A0438069042F23800C0F2E0
:108CC0000300043009900EE00A9AB11C42EA8712B0
:108CD0000844027106980BF1040B5F46834506F1C8
:108CE00003063FF796AEF91C0E9600BF6218507847
:108CF000A0F10A03162B25D80AFA03F313EA080F8A
:108D000020D09078A0F10A03162B1DD80AFA03F39D
:108D100013EA080F18D0D078A0F10A03162B17D841
:108D20000AFA03F313EA080F12D01079A0F10A032C
:108D3000162B11D80AFA03F313EA080F0CD00437E4
:108D40000431D3E7551C09E00137951C06E000BF4C
:108D50000237D51C02E000BF151D0F4642F2D0417C
:108D6000C0F20301095CFF2908460D9140F0B9806B
:108D70002020042103F044FA064640F6F040C2F2F7
:108D80000000306043F65500C0F20300B06029785F
:108D900010A800F0E7FE41F25010C2F20000007887
:108DA000DDF84490002840F08880109C10A83946D7
:108DB00000F0D8FE41F25010C2F200000178119884
:108DC000002974D10C901098CDE90A6908902044CC
:108DD00000F1380110A8A94603F084FFDDE9105B1B
:108DE00009990BEB0506301D2222FDF76EF999F863
:108DF0000000012C86F8250046F27240C0F22000E7
:108E0000C6F82A0042F26000C6F6287005F129056E
:108E1000C6F8260008DB0B990BEB05000430043183
:108E2000621CFDF752F9254446F66F610BEB050015
:108E3000C0F22001C0F80F1047F26141C6F6697117
:108E4000C16046F62041C6F26F31089E816042F251
:108E5000290105F10E040A9DC7F26141012E41600E
:108E600008DB0C990BEB040004300431721CFDF795
:108E70002CF934440BEB04002E218180601CC5E9E1
:108E8000030B002043F6550143F6430243F64A0321
:108E9000DDF82C9068602846C0F20301C0F203029E
:108EA000C0F20303E626009603F0D0FE0C9820B132
:108EB000C178490658BFFFF73FFD0F9CB9F1000F7D
:108EC00007D099F80300400603D44846FFF734FD65
:108ED0000F9C41F25010C2F200000078002840F0D0
:108EE0007C857D1C04EB050919F8040F42F2D04182
:108EF000C0F20301085CFF280C9040F0BB802020EA
:108F0000042103F07DF9064640F6F040C2F200006D
:108F1000306043F65500C0F20300B06099F80010CD
:108F200010A800F01FFE41F25010C2F200000078BD
:108F3000DDF844B0002840F08A80109C10A8294633
:108F400000F010FE41F25010C2F2000001781198BA
:108F5000002976D1CDE90AB01098089605902044F2
:108F600000F1380110A803F0BDFEDDE91065099994
:108F700005EB060B0BF104002222FDF7A6F899F889
:108F80000000012C8BF8250046F27240C0F2200050
:108F9000CBF82A0042F26000C6F6287006F12906D6
:108FA000CBF826000ADBDDF828B0A81904300BF155
:108FB0000401621CFDF789F8264401E0DDF828B0C1
:108FC00046F66F61A819C0F22001C0F80F1047F2F1
:108FD0006141C6F66971C16046F62041A946C6F2F4
:108FE0006F31059D816042F22901C7F26141012D77
:108FF00006F10E04416008DB0B9909EB0400043014
:1090000004316A1CFDF761F82C44089A09EB04004E
:109010002E218180601CC2E90309002050601046A7
:1090200043F6550143F6430243F64A03C0F20301F7
:10903000C0F20302C0F20303E626009603F006FE28
:109040000B9820B1C178490658BFFFF775FCBBF1FA
:10905000000F06D09BF80300400602D45846FFF7E5
:109060006BFC41F25010C2F2000000780F9C002807
:1090700040F0B384BE1C04EB060919F8040F42F259
:10908000D041C0F20301085CFF280B9040F0B4808F
:109090002020042103F0B4F8044640F6F040C2F268
:1090A0000000206043F65500C0F20300A06099F86C
:1090B000001010A800F056FD41F25010C2F200005E
:1090C0000078119900280A9140F08480109D10A822
:1090D000314600F047FD41F25010C2F20000017825
:1090E0001198002970D10890109805940490284494
:1090F00000F1380110A803F0F5FDDDE9106B0999C6
:109100000BEB0604201D2222FCF7DFFF99F800007C
:10911000012D84F8250046F27240C0F22000C4F808
:109120002A0042F26000C6F6287006F12906C4F84B
:10913000260008DB0A990BEB0600043004316A1C98
:10914000FCF7C3FF2E4446F66F610BEB0600C0F23E
:109150002001C0F80F1047F26141C6F66971C16085
:1091600046F62041C6F26F31049C816042F229012B
:10917000C7F26141012C06F10E05416008DB089938
:109180000BEB050004300431621CFCF79EFF254404
:109190000BEB05002E2181800599681CC1E9030BAA
:1091A00000204860084643F6550143F6430243F663
:1091B0004A03C0F20301C0F20302C0F20303E62631
:1091C000009603F043FD089820B1C178490658BFC6
:1091D000FFF7B2FB0A9830B10A98C078400602D473
:1091E0000A98FFF7A9FB41F25010C2F20000007884
:1091F0000F9C002840F0F183FE1C04EB060B1BF8CB
:10920000040F42F2D041C0F20301095CFF29084675
:109210000A9140F0B4802020042102F0F1FF0146C1
:1092200040F6F040C2F20000086043F65500C0F27C
:109230000300886004919BF8001010A800F092FCD5
:1092400041F25010C2F200000078119900280891F4
:1092500040F08380109D10A8314600F083FC41F25D
:109260005010C2F2000000781199002805916DD1CC
:1092700010980390284400F1380110A803F032FD43
:10928000DDE91069099909EB0604201D2222FCF78B
:109290001CFF9BF80000012D84F8250046F2724067
:1092A000C0F22000C4F82A0042F26000C6F628701E
:1092B00006F12906C4F8260008DB089909EB060028
:1092C000043004316A1CFCF700FF2E4446F66F613F
:1092D00009EB0600C0F22001C0F80F1047F261410F
:1092E000C6F66971C16046F62041039CC6F26F3133
:1092F000816042F22901C7F26141012C06F10E059D
:10930000416008DB059909EB050004300431621C5B
:10931000FCF7DBFE2544049A09EB05002E21818031
:10932000681CC2E9030900205060104643F655014D
:1093300043F6430243F64A03C0F20301C0F20302BC
:10934000C0F20303E626009603F080FC059820B1E6
:10935000C178490658BFFFF7EFFA089830B108986E
:10936000C078400602D40898FFF7E6FA41F25010A0
:10937000C2F2000000780F9C002840F02E83DDF838
:109380001C90BB46D9F80400C178490605D548466B
:1093900002F056FF0F9CD9F804000C9D0D9A0E9E0A
:1093A000290941EA820130440171D9F804000B9F78
:1093B000C178490605D5484602F042FF0F9CD9F80E
:1093C0000400711CBA0842EA051208440271D9F877
:1093D0000400C17849067FF577AC484602F030FFBB
:1093E0000F9CD9F804006FE404EB070B1BF8040F83
:1093F00042F2D04AC0F2030A1AF800100E96FF2972
:1094000008460D9140F032812020042102F0F8FE40
:1094100040F6F041C2F20001016043F65501C0F28E
:10942000030181609BF800100B9010A800F09AFBDC
:1094300041F25010C2F200000078DDF844800028AC
:1094400040F00181DDF8409010A8394600F08AFB19
:1094500041F25010C2F200000078119E002840F046
:10946000EB80CDF83080DDF840800A9609EB0800EB
:1094700000F1380110A803F035FCDDE9106542F277
:10948000380105EB060AC0F203010AF104000431B9
:109490002222FCF71AFE9BF80000B9F1010F8AF8AE
:1094A000250046F27240C0F22000CAF82A0042F2BB
:1094B0006000C6F6287006F12904CAF8260008DB09
:1094C0000C9928190430043109F10102FCF7FDFD63
:1094D0004C4446F66F612819C0F22001C0F80F1005
:1094E00047F26141C6F66971C16046F62041C6F295
:1094F0006F3142F2D04A816042F22901C0F2030A80
:10950000C7F26141B8F1010F04F10E04416077DB4D
:109510000A9E28190430311D08F10102FCF7D5FD1F
:109520004444DDE90B086FE0DDE90C9A46F66F6113
:10953000A819C0F22001C0F80F1047F26141C6F629
:109540006971C16046F62041C6F26F31816042F216
:109550002901C7F26141012F06F10E04416007DBCA
:109560000F992819043004317A1CFCF7AEFD3C44F5
:1095700028192E218180601CCBE90305002043F6C9
:10958000550143F6430243F64A03CBF80400E627AD
:10959000C0F20301C0F20302C0F203035846009771
:1095A00003F054FB0F9820B1C178490658BFFFF76C
:1095B000C3F9B9F1000F06D099F80300400602D4B0
:1095C0004846FFF7B9F941F25010C2F200000078A6
:1095D000002840F00282DDF81C90D9F80400C17820
:1095E000490604D5484602F02BFED9F804000E9E29
:1095F0004FEA181141EA8A01304401710136E8E16D
:10960000DDF83080DDE90A602A192E219180611C85
:10961000C0E903150021416043F6550143F64302BA
:1096200043F64A03E625C0F20301C0F20302C0F28A
:109630000303009503F00AFB2EB1F078400602D434
:109640003046FFF779F9B8F1000F06D098F803001B
:10965000400602D44046FFF76FF941F25010C2F2C3
:10966000000000780F9C002840F0B7817D1C04EBBF
:10967000050919F8040F1AF80080B8F1FF0F40F03F
:10968000C1802020042102F0BBFD044640F6F040DA
:10969000C2F20000206043F65500C0F20300A06053
:1096A00099F8001010A800F05DFA41F25010C2F2D3
:1096B00000000078119900280B9140F08F80DDF8B0
:1096C00040A010A8294600F04DFA41F25010C2F215
:1096D00000000078119900280A9178D1CDF83080E7
:1096E000DDF840800AEB080000F1380110A803F013
:1096F000F9FADDE9105B42F238010BEB0506C0F226
:109700000301301D04312222FCF7DFFC99F8000030
:10971000BAF1010F86F8250046F27240C0F220002F
:10972000C6F82A0042F26000C6F6287005F1290545
:10973000C6F8260009DB0B990BEB05000430043159
:109740000AF10102FCF7C1FC554446F66F610BEBD0
:109750000500C0F22001C0F80F1047F26141C6F6C3
:109760006971C16046F62041C6F26F31816042F2F4
:109770002901C7F26141B8F1010F05F10E05416001
:1097800009DB0A990BEB05000430043108F10102F2
:10979000FCF79BFC45440BEB05002E218180681CE7
:1097A000C4E9030B002043F6550143F6430243F698
:1097B0004A03DDF830806060E626C0F20301C0F2A3
:1097C0000302C0F203032046009603F03FFA0A9812
:1097D00020B1C178490658BFFFF7AEF80B9842F2A6
:1097E000D04AC0F2030A20B1C178490658BFFFF73A
:1097F000A3F841F25010C2F2000000780F9C00283C
:1098000040F0EB80BD1C661916F8040F1AF800B082
:10981000BBF1FF0F40F0B9802020042102F0F0FCE2
:10982000824640F6F040C2F20000CAF8000043F65B
:109830005500C0F20300CAF80800317810A800F003
:1098400091F941F25010C2F200000078DDF8449026
:10985000002840F08A80109C10A8294600F082F968
:1098600041F25010C2F200000078119900280F91C7
:1098700074D1109FCDE90B98E01900F1380110A8C0
:1098800003F030FADDE9109542F2380105EB0908E2
:10989000C0F2030108F1040004312222FCF715FC98
:1098A0003078012C88F8250046F27240C0F2200082
:1098B000C8F82A0042F26000C6F6287009F12906AD
:1098C000C8F826000CDBDDF82C90A819043009F14B
:1098D0000401621CFCF7F9FBDDF83080264401E04E
:1098E000DDE90B9846F66F61A819C0F22001C0F8B7
:1098F0000F1047F26141C6F66971C16046F620411A
:10990000C6F26F31816042F22901C7F26141012F35
:1099100006F10E04416007DB0F9928190430043169
:109920007A1CFCF7D2FB3C4428192E218180601C54
:10993000CAE90305002043F6550143F6430243F606
:109940004A03CAF80400E627C0F20301C0F203028A
:10995000C0F203035046009703F078F90F9820B146
:10996000C178490658BFFEF7E7FFB9F1000F06D0EE
:1099700099F80300400602D44846FEF7DDFF41F2A5
:109980005010C2F20000007838BB079C6068C178B4
:10999000490603D5204602F053FC60680D9A0E9EDE
:1099A0004FEA181141EA8201304401716068741C69
:1099B000C178490604D5079D284602F041FC686835
:1099C0004FEA9B01DDF81C9041EA08112044023661
:1099D00001714846314604F063F813B0BDE8F08FDA
:1099E00082B0019000200090FFE7009801994FF4A9
:1099F0007A725143884206D2FFE700BFFFE7009822
:109A000001300090F1E702B0704700002DE9F04FFF
:109A100097B000270D46DDE92298DDE920BA0760FE
:109A20000690476018200821164602F0E9FB04461C
:109A300040F62850C2F200002060002020210822B9
:109A4000C4E902BAC4E90498149702F09DFA012E01
:109A500015905EDB41F2501705F1100BC2F20007C2
:109A60003878079600285CD15BF8100CFCF7F6FDFF
:109A7000D4E90423D4E90256FCF7CAFC2A4633464B
:109A8000FCF71FFC0023064681F0004108A80022D5
:109A9000C3F6F073CDE900613D4603F0B7FA3878BC
:109AA00000283ED10DF1200E9EE803402546DBE95B
:109AB0000246DDF82CC0DBE90023CDE9016008A8EF
:109AC00000942C46CDE9031ECDF814C004F0CAFB67
:109AD000387830BB0DF1200999E820035BF8100CB1
:109AE000DDF82CA00C90284641464A46534602F029
:109AF0002FFD3A780F910E909AB910A880E82007B0
:109B000014A80CA9FDF7ECFC079E0BF1200B013EFD
:109B1000A6D1DDE91401069AC2E9000114A800F0FB
:109B20005BFB214651F8080D10280DD22268012058
:109B300003F094FA204602F041FBDDE9140100F045
:109B400059FA17B0BDE8F08F1038226844F8080CB5
:109B5000002003F083FADDE9140100F04BFA17B09E
:109B6000BDE8F08F80B50022C0E90022CB170A467D
:109B7000FDF72EFC80BD000080B582B00190ADF8ED
:109B800002100198BDF8021004F09EFF02B080BDE3
:109B900041F20051C2F200010868013008607047CC
:109BA00081B0009001B0704781B00090002001B0FA
:109BB0007047000072B641F29461C2F20001086879
:109BC00001300860704700002DE9F04381B007685C
:109BD00005460E46B942904604DA2E60012E80F208
:109BE000A8804AE046DD696821B1086820F080401D
:109BF000B04209DAF21B4FF0080C38462023CDF8AA
:109C000000C002F01BFD6860F01BFA4310F0030176
:109C100006EB020C2E6033D06A68012902EB471371
:109C20004FF000025A621A62DA619A615A611A614F
:109C3000DA609A6007F1010323D06868022900EB1B
:109C4000431007F1020342620262C2618261426113
:109C50000261C260826014D06868002100EB43108A
:109C6000FB1C41620162C161816141610161C160AE
:109C7000816006E03E46012E5BDA01B0BDE8F0836C
:109C80003B46BCF1030F51D36FF07F01F01A01EB9B
:109C9000431100226B6804380B44C3F8A420C3F8B6
:109CA000A020C3F89C20C3F89820C3F89420C3F8E0
:109CB0009020C3F88C20C3F888206B680B44C3F84D
:109CC000C420C3F8C020C3F8BC20C3F8B820C3F830
:109CD000B420C3F8B020C3F8AC20C3F8A8206B6848
:109CE0000B44C3F8E420C3F8E020C3F8DC20C3F839
:109CF000D820C3F8D420C3F8D020C3F8CC20C3F8B0
:109D0000C8206B680B4401F18001C3F80421C3F83B
:109D10000021C3F8FC20C3F8F820C3F8F420C3F8EE
:109D2000F020C3F8EC20C3F8E820B3D12E68012E50
:109D3000A3DBD5F804E0042E06F0030C02D20022C7
:109D400045E000BF26F003090027002208EB0705C5
:109D5000D5E904400EEB0706A968AB697061E869B4
:109D6000B160C6E90630D5E9081034617062A86AAE
:109D70003162B062D5E90C010432C6E90C01D5E9C3
:109D80000E019145C6E90E01D5E9100107F18007E2
:109D90003064A86CC6E91110D5E91410C6E9141096
:109DA000D5E91610C6E91610D5E918107066A86E28
:109DB0003166B066D5E91C01C6E91C01D5E91E0172
:109DC000C6E91E01D5E92001C6E92001BED1BCF1DA
:109DD000000F3FF452AF08EB421083680EEB4211C4
:109DE0008B60C36900F1100670CEC1E90663D0E94B
:109DF0000830BCF1010FC1E904450B6248623FF431
:109E00003CAF501C08EB40118B680EEB4010836098
:109E1000CB6901F1100670CEC0E90663D1E90831C3
:109E2000BCF1020FC0E90445036241623FF425AF73
:109E3000901C08EB40118A680EEB40108E6982601E
:109E4000CA69D1E90437C0E90662D1E90821C0E94D
:109E50000437C0E9082101B0BDE8F0832DE9F043E3
:109E600081B0076806460D46B942914604DA35606E
:109E7000012D29DA19E000BF14DD716821B10868ED
:109E800020F08040A84213DAA5EB07084FF0080C39
:109E9000384642460823CDF800C002F0CFFB014609
:109EA000706007E03D46012D0EDA01B0BDE8F08399
:109EB000A5EB070801EBC70008304FEAC801356081
:109EC000FCF72AF9012DF0DB7068042D05F0030C76
:109ED00002D200221CE000BF25F00303002700226D
:109EE00009EB0706D6E90251C419C4E90251D6E9C3
:109EF00004150432C4E90415D6E906519342C4E9B5
:109F00000651D6E9081607F12007C4E90816E7D17B
:109F1000BCF1000FC9D009EBC201CB68896800EB26
:109F2000C207BCF1010FC7E90213BED0511C09EBF7
:109F3000C103DF689B6800EBC101BCF1020FC1E9FE
:109F40000237B2D0911C09EBC102D368926800EBD2
:109F5000C100C0E9022301B0BDE8F08310B5046878
:109F600021B151F8082C103241F8082C002C016066
:109F700008BF10BD214651F8080D102822D22268D2
:109F8000012003F06BF82068016841B12046884742
:109F900041F25010C2F200000078E8B92068008950
:109FA00001B2CA1D4B421A40002808BF0822A01A5D
:109FB0000929A4BF30F8021C401ABDE8104006F081
:109FC00045BA00BFA0F110032268002044F8083C05
:109FD000BDE8104003F042B810BD0000002908BFE2
:109FE0007047C878400603D408460821FDF7EEBA4A
:109FF00070470000002908BF7047C878400603D4A6
:10A00000084606F023BA00BF70470000002908BFC9
:10A010007047C878400603D4084606F017BA00BF58
:10A0200070470000002908BF7047C878400603D475
:10A03000084606F00BBA00BF7047000010B5044692
:10A04000406858B1014651F8082D102A2ED20268F6
:10A05000012003F003F8606802F0B0F8206920B135
:10A06000C178490658BFFEF767FCD4E9050100F046
:10A0700029F8E369002B08BF10BD194651F8080DF7
:10A08000102809D21A68012002F0E8FFE069BDE853
:10A09000104002F093B800BFA0F110041A6800202D
:10A0A00043F8084CBDE8104002F0D8BFA2F11003FD
:10A0B000026840F8083C002002F0D0FF2069002828
:10A0C000CED1D2E7002908BF7047C878400603D434
:10A0D000084606F0BBB900BF7047000070B50446E3
:10A0E0004068154690420E4618BF002802D1C4E9C8
:10A0F000006570BDC178490658BF06F0A7F9C4E9EC
:10A10000006570BD10B504680160002C08BF10BD6B
:10A11000214651F8080D102822D22268012002F0B1
:10A120009DFF2068016841B12046884741F25010E8
:10A13000C2F200000078E8B92068008901B2CA1DA7
:10A140004B421A40002808BF0822A01A0929A4BFC0
:10A1500030F8021C401ABDE8104006F077B900BF85
:10A16000A0F110032268002044F8083CBDE810402C
:10A1700002F074BF10BD0000F0B581B0064656F87D
:10A18000042F04460D4682B1D5E9000117688142CB
:10A1900003DC284602F0E4FF2868A96801EBC0024E
:10A1A00041F8306001305760286054F81C1F81B1BD
:10A1B000D5E900020E68824203DC284602F0D0FF97
:10A1C0002868A96801EBC00241F8304001305660B0
:10A1D000286001B0F0BD00000021C0E90011704707
:10A1E0000021C0E90011704741F2F441C2F20001C0
:10A1F0004FF45030486000200870487088707047F5
:10A2000087B005900491039205980068800718B103
:10A21000FFE70120069022E005980068029003986D
:10A220008008019000200090FFE700980199884283
:10A230000DD2FFE70298009950F821000499009A86
:10A2400041F82200FFE7009801300090EDE7039A03
:10A25000059908681044086000200690FFE70698FA
:10A2600007B0704780B582B00190009101A800212D
:10A27000FEF76AF8019802B080BD000080B543F295
:10A280001430C0F2030043F27161C0F203014FF4D5
:10A290008A72F5F7C7FD41F2A000C2F20000017812
:10A2A0000120FCF7A3FB80BD80B582B08DF80700CC
:10A2B0009DF8070041F29801C2F2000148700120A8
:10A2C00008700A2000221146DCF7C8FA02B080BDEF
:10A2D00080B588B041F29800C2F20000007860B901
:10A2E000FFE743F2DE70C0F2030043F63101C0F233
:10A2F00003018C22F5F796FD6BE043F2BC70C0F2CF
:10A30000030043F63101C0F203019022F5F78AFD04
:10A3100041F68C00C2F200000590006841F29801FD
:10A32000C2F2000191F901206B4645F25551C0F28D
:10A33000550159604AF27931CBF6D8611960002194
:10A34000039101230493E3F7E0FD0399049A059830
:10A350000068EC46CCF808200C23CCF8043042F21C
:10A360005473C0F20303CCF800300223E3F7FCFD82
:10A37000059800680690F5F72DFD0246069812F53F
:10A38000167241F10003EC4644F24021C0F20F0185
:10A39000CCF80010E3F734FC0790079868B1FFE7AA
:10A3A000079B43F26B70C0F2030043F63101C0F229
:10A3B0000301A222F5F736FD0BE043F20170C0F273
:10A3C000030043F63101C0F20301A422F5F72AFD90
:10A3D000FFE708B080BD000080B58CB0002006907B
:10A3E00041F68C00C2F2000000686A4607A951607D
:10A3F00008A9116041F2C833C2F200030AA90DF1A5
:10A400002702E3F7ADFB08B1FFE7CCE041F68C0093
:10A41000C2F20000006841F6A001C2F2000106AAE3
:10A420000023E3F750FB20B9FFE70698002801DC82
:10A43000FFE7B8E00698810041F6A000C2F20000F4
:10A4400041F29862C2F2000203924FF4FA73FDF7F0
:10A45000B9F9039841F6E811C2F200014860069884
:10A46000FDF77AFA059041F29800C2F200000079F7
:10A470000328C0F29580FFE741F29800C2F2000085
:10A4800090F9030010F10A0F0CDBFFE741F298008E
:10A49000C2F2000090F903000A2803DCFFE700F095
:10A4A00085F876E041F29800C2F2000090F90300CE
:10A4B00010F10B0F27DCFFE741F29800C2F2000019
:10A4C00090F9031001EBD17149088DF813108078D1
:10A4D0009DF8131088420ADCFFE79DF8132041F233
:10A4E0009801C2F200018878801A887006E041F273
:10A4F0009801C2F2000100208870FFE700F064F8C4
:10A50000FFF7E6FE44E041F29800C2F2000090F945
:10A5100003000B2827DBFFE741F29801C2F200019C
:10A52000887891F9031001EBD17100EB61003F28AD
:10A5300007DBFFE741F29801C2F200013F2088707B
:10A540000CE041F29801C2F2000191F9030000EB26
:10A55000D072887800EB52008870FFE700F034F882
:10A56000FFF7B6FE13E041F29800C2F2000090F946
:10A57000033043F24570C0F2030043F63101C0F2EC
:10A5800003017F22F5F74EFC00F010F8FFE7FFE72C
:10A59000FFE741F29801C2F200010020087102E0D9
:10A5A000FFF796FEFFE70CB080BD000080B541F2DA
:10A5B0009801C2F20001002001F8030B0C200122D7
:10A5C000DCF74CF980BD000080B582B041F2980004
:10A5D000C2F2000010F8023F019090F901006946B4
:10A5E000086043F29670C0F2030043F63101C0F2F6
:10A5F0000301B722F5F716FC01990D200122DCF7C3
:10A600002DF902B080BD000080B54CF2D121C0F21E
:10A61000020100221046E3F76DF9014641F68C0075
:10A62000C2F200000160006888B9FFE742F6986056
:10A63000C0F2030043F61B01C0F2030143F63102EE
:10A64000C0F20302C323F5F7EDFBFFE7FEE780BD91
:10A6500041F21450C2F200000078704741F2F44019
:10A66000C2F200007047000041F2F440C2F2000064
:10A670004078704741F2F440C2F2000080787047A1
:10A6800081B040F65471C2F20001B1F83201ADF868
:10A6900002000020A1F83201BDF8020001B07047AD
:10A6A00080B582B040F65470C2F20000B0F83201BA
:10A6B000C0F164008DF806009DF8063042F67F6018
:10A6C000C0F2030042F66071C0F203019822F5F770
:10A6D000A9FB9DF806001F2804DBFFE7FF208DF88B
:10A6E000070004E09DF806008DF80700FFE79DF9DC
:10A6F000070002B080BD000081B040F64470C2F295
:10A70000000090F9010010F1470F03DCFFE7002083
:10A71000009007E040F64470C2F2000090F901009A
:10A720000090FFE7009801B07047000080B582B04C
:10A7300041F2C430C2F2000000900421F5F750FB52
:10A7400000980021019100680190019840F6547131
:10A75000C2F20001C1F84001019802B080BD0000C2
:10A7600082B00090009880680099C968884207D339
:10A77000FFE7009880680099C968401A019002E0DC
:10A7800000200190FFE7019802B0704780B582B0C9
:10A790008DF807009DF80700082809DBFFE79DF802
:10A7A000071042F2FE70C0F2030005F017FE12E03F
:10A7B0009DF8071040F64C70C2F200000090405C1B
:10A7C0000121FCF72FFA00989DF80710405C00214A
:10A7D000FCF728FAFFE702B080BD000080B584B026
:10A7E00003900398029042F28040C0F2030001906F
:10A7F00040F64550C2F20000007830B9FFE742F25F
:10A80000A840C0F203000190FFE7FFE7029800783C
:10A8100088B1FFE702980078202807D1FFE7029966
:10A820000020087002980130029004E00298013084
:10A830000290FFE7EAE700200090FFE70098042875
:10A840000FD8FFE70198009950F831000399FBF702
:10A850008BFC08B9FFE704E0FFE7009801300090A7
:10A86000ECE70098052801D3FFE70AE0009942F2DF
:10A870008040C0F2030000EBC100416802988847A5
:10A8800003E00020FDF766FEFFE704B080BD000096
:10A8900081B000900098007801B0704781B00090BE
:10A8A0000098043001B0704780B500F013FE80BD01
:10A8B00082B0019001990020009041B1FFE701981A
:10A8C000411E0840B0FA80F040090090FFE7009870
:10A8D00000F0010002B0704741F29460C2F2000043
:10A8E0000168013901600068002802DCFFE762B6F8
:10A8F000FFE770472DE9F04F95B04FF000090D4686
:10A900000446C0E9009938200821904601F078FCFF
:10A91000834640F60C50C2F20000CBF80000012044
:10A920002021082201F030FB074608F10801083019
:10A930002022FBF7CAFB0BF13006304601213A46D4
:10A94000FFF7CCFB012DCBF82890CBF82C9002948C
:10A9500040F3DC800BF1080006900BF11800049026
:10A960000CA81030013D08F1280A0596039000BF9D
:10A970009AE8CF00069C84E8CF00DAE906100822A6
:10A98000C4E906100320082101F0FEFA8046C0F851
:10A9900008904FF04040C8E903094FF08040C8F8E4
:10A9A0001C000AA80321C8E90599CDE90A9901F01C
:10A9B000DDFB41F25010C2F200000078002840F0A8
:10A9C000C580DBE90401DBE90A230795D8E90257D2
:10A9D000FBF777FC42F6185242F2FB1306460C4690
:10A9E00028463946C5F24442C4F20903FBF710FD7C
:10A9F00032462346FBF765FCDDE90A295D46CB4676
:10AA0000C9F80C104BF8080FD8E9044009920890D7
:10AA1000D5E90401D5E90A23FBF753FC0F46089951
:10AA200042F6185242F2FB1306462046C5F2444253
:10AA3000C4F20903FBF7ECFC32463B46FBF741FC52
:10AA4000C9E90401D8E90640D5E90A230890D5E907
:10AA50000401FBF736FC0F46089942F6185242F201
:10AA6000FB1306462046C5F24442C4F20903FBF735
:10AA7000CFFC32463B46FBF724FCC9E90601B9F19D
:10AA8000000F08BFCB46099A48F69D030AA859460D
:10AA9000AB46C0F2020301271546CDE900B703F02B
:10AAA00079FB41F25010C2F20000007800284DD12D
:10AAB000DDE90A07DBE904230890D7E90201DBF8A6
:10AAC0000840FBF79FFCCBE90A01D7E90210049B81
:10AAD000CDE90E100FCB039E0C940FC605980CA960
:10AAE000FCF7FEFC28464946FFF79CFA0320414646
:10AAF000FFF798FA08983946FFF794FA079D0AF18C
:10AB0000200A013D4FF000097FF432AFDBE90C125F
:10AB10000298FFF759F8594651F8080D10280BD242
:10AB2000DBF80020012002F099FA584601F046FBBC
:10AB300015B0BDE8F08F00BF10380860DBF80020CA
:10AB4000002002F08BFA15B0BDE8F08F594651F89D
:10AB5000080D1028E4D31038DBF800204BF8080C5F
:10AB6000002002F07BFA15B0BDE8F08F2DE9F04F20
:10AB700099B00F460021C0E9001181600390C160C7
:10AB8000CDE91711CDE9151113A81146924601F030
:10AB9000CDFADDE9138BBAF1010FCDF83C80CDF889
:10ABA00044B061DB0AF003095FEA9A004FF0000449
:10ABB00026D01297A7F180050BF12007A4EB80089F
:10ABC00055F8800FFBF74AFD47E90601286A2E6C0D
:10ABD000D5F860B0FBF742FD47E904013046FBF7CA
:10ABE0003DFD47E902015846FBF738FD043CE7E824
:10ABF0000801A045E4D1DDF83C80DDE911B76442ED
:10AC0000B9F1000F1FD060013858FBF727FD0BEB9F
:10AC1000C402B9F1010FC2E9020114D0651C680138
:10AC20003858FBF71BFD0BEBC502B9F1020FC2E967
:10AC3000020108D0023460013858FBF70FFD0BEB1E
:10AC4000C402C2E9020113A8514601F06FFADDE91E
:10AC50001364BAF1010F52DB3546BAF1040F0BD27F
:10AC6000BC46002025E000BF13A8514601F05EFA63
:10AC7000DDE9136443E000BF2AF00301BC4607F19D
:10AC80006802A4F12003002052E918760430C3E9D9
:10AC90000A7652E910678142C3E90C6752E90876E7
:10ACA000C3E90E76F2E82067C3E9106703F12003D9
:10ACB000EAD1B9F1000F21D00CEB4011CA688968C4
:10ACC00004EBC003B9F1010F2E46C3E9021216D0FE
:10ACD000411C0CEB4112D368926804EBC101B9F13D
:10ACE000020FC1E902230AD002300CEB4011CA68FE
:10ACF000896804EBC000C0E9021200E02E4617A8E4
:10AD000041465A46FFF7AAF8DDE91719CDE90B4687
:10AD1000D9E902B502294BDB481E0239032900F0AC
:10AD2000030703D2012027BB42E000BF20F0030A43
:10AD300009F1280800241297A8F11807CCCF58462B
:10AD40002946FBF7BEFA32463B46FBF7BAFA58E90A
:10AD50000223FBF7B6FAF8E80823FBF7B2FA04344B
:10AD600083460D46A245E7D1601CDDE90B46129FE4
:10AD7000F7B109EBC004D4E9022358462946FBF792
:10AD8000A0FA8346012F0D4611D0D4E9042358467A
:10AD90002946FBF796FA8346022F0D4607D0D4E9E1
:10ADA000062358462946FBF78CFA83460D460B9C32
:10ADB0000F98FBF753FC02460B4658462946FBF713
:10ADC00099FBCDE90D1015A831462246FFF746F84C
:10ADD000DDE9151ADAE9028B022949DB481E02393E
:10ADE000032900F0030503D201201DBB40E000BF92
:10ADF000129520F003090AF128070025A7F118068B
:10AE00005CCE40465946FBF75CFA22463346FBF7D8
:10AE100058FA57E90223FBF754FAF7E80823FBF73F
:10AE200050FA043580468B46A945E7D1681C0C9E34
:10AE3000129DEDB10AEBC004D4E902234046594605
:10AE4000FBF73FFA8046012D8B4611D0D4E904234D
:10AE500040465946FBF735FA8046022D8B4607D00F
:10AE6000D4E9062340465946FBF72BFA80468B4629
:10AE70003046FBF7F3FB02460B4640465946FBF7CC
:10AE800039FB0F9C8146089113A8214601F04EF929
:10AE9000DDE91375DDF844A0DDF838B0012C04F0CD
:10AEA00003000A901295CDF81890099767DB042CDF
:10AEB00002D2002430E000BFDDF8349024F0030813
:10AEC000002600240AEB0607D7E902015A464B4642
:10AED000FBF798FA129A4B469519C5E90201D7E992
:10AEE00004015A46FBF78EFAC5E90401D7E90601C9
:10AEF0005A464B46FBF786FAC5E90601D7E9080131
:10AF00005A464B46FBF77EFAC5E90801129D043408
:10AF1000A04506F12006D5D10A980C9EDDF81890C0
:10AF200068B30AEBC400C16880680D9B5A46FBF702
:10AF300069FA0A9B05EBC402012BC2E902011ED08B
:10AF4000651C0AEBC500C16880680D9B5A46FBF77B
:10AF500059FA129A0A9B02EBC502129D022BC2E912
:10AF600002010CD002340AEBC400C16880680D9B5A
:10AF70005A46FBF747FA05EBC402C2E9020113A8DF
:10AF8000314601F0D3F8DDE91387012E0797CDF89C
:10AF9000148075DBDDF83080B8F1040F08F0030091
:10AFA000049003D2DDE907AB002633E028F003006C
:10AFB000DDF82C80DDE907AB00240026109000BFEF
:10AFC00008EB0405D5E902014A465B46FBF71AFA8D
:10AFD0000AEB0407C7E90201D5E904014A465B46CA
:10AFE000FBF710FAC7E90401D5E906014A465B46BA
:10AFF000FBF708FAC7E90601D5E908014A465B46AE
:10B00000FBF700FAC7E9080110980436B04204F1D2
:10B010002004D5D1049C129DDDF8148057467CB3E2
:10B020000B984A4600EBC600C16880685B46FBF798
:10B03000E9F907EBC602012CC2E9020120D00B9806
:10B0400006F1010A00EBCA00C16880684A465B4607
:10B05000FBF7D8F9079A079F02EBCA02022CC2E954
:10B0600002010DD00B98023600EBC600C168806863
:10B070004A465B46FBF7C6F907EBC602C2E9020186
:10B08000002D29463B4618BF0831002F18BF083352
:10B09000099A13A8CDF8008005F014F941F2501078
:10B0A000C2F200000078002840F00A82DDE9135463
:10B0B00013A8294601F03AF8DDE9139B012D61DB65
:10B0C000042D05F003081095019401D2002629E013
:10B0D00025F0030704F1400AABF12004002600BF6D
:10B0E000AAF138030FCBFBF793F9C4E90A01AAF1DF
:10B0F00028030FCBFBF78CF9C4E90C01AAF1180364
:10B100000FCBFBF785F9C4E90E015AE90201FAE811
:10B110001023FBF77DF90436C4E91001B74204F1AE
:10B120002004DDD1B8F1000FC246DDF81480079F7E
:10B13000109D019C26D004EB061308330FCBFBF7C0
:10B1400067F90BEBC602BAF1010FC2E9020119D08F
:10B15000771C04EB071308330FCBFBF759F90BEB04
:10B16000C702079FBAF1020FC2E902010AD00236F4
:10B1700004EB061308330FCBFBF74AF90BEBC602BF
:10B18000C2E9020140463946FEF74CFF0998129980
:10B19000FEF748FF28462146FEF720FFDBE90201C3
:10B1A000B9F1020FCDF80890CDF810B010DBA9F17D
:10B1B0000102A9F10203DDF83490032B02F0030A27
:10B1C0000CD20F9E119D0122BAF1000F28D13BE055
:10B1D0000F9E119DDDF8349036E000BF5B4622F0F3
:10B1E000030B03F128070026A7F118053CCDFBF758
:10B1F00068F822462B46FBF764F857E90223FBF771
:10B2000060F8F7E80823FBF75CF80436B345EBD1A8
:10B21000721C0F9E119DDDF810B0BAF1000F13D013
:10B220000BEBC204D4E90223FBF74BF8BAF1010F90
:10B230000AD0D4E90423FBF744F8BAF1020F03D093
:10B24000D4E90623FBF73DF80791099013A831468E
:10B2500000F06CFFDDE9131A012E1091CDF848A023
:10B26000C0F29480042E05D2DDF834B0DDF848A099
:10B27000002440E0DDE90DB9DDF848A026F0030820
:10B2800000260024AF19D7E902014A465B46FBF7C6
:10B29000B9F802460B46FBF7BBF80AEB0605C5E911
:10B2A0000201D7E904014A465B46FBF7ABF80246C8
:10B2B0000B46FBF7ADF8C5E90401D7E906014A469C
:10B2C0005B46FBF79FF802460B46FBF7A1F8C5E982
:10B2D0000601D7E908014A465B46FBF793F80246A8
:10B2E0000B46FBF795F8C5E90801119D0434A0450C
:10B2F00006F12006C6D10A98D946DDF810B0DDE97E
:10B300000F61002842D005EBC400C16880680E9A26
:10B310004B46FBF777F802460B46FBF779F8DDF86A
:10B3200048A00A9B0AEBC402C2E902011099012B52
:10B330002CD01198651C00EBC500C16880680E9A7E
:10B340004B46FBF75FF802460B46FBF761F8DDF86A
:10B3500048A00A9B0AEBC502119DC2E9020110999F
:10B36000022B13D0023405EBC400C16880680E9A2A
:10B370004B46FBF747F802460B46FBF749F8DDF86A
:10B3800048A00AEBC402C2E902011099D846DAE9E2
:10B390000254DDF820B002290EDB481E02390329D1
:10B3A00000F003010A910BD20121DDE90907DDF864
:10B3B0001CA097BB52E000BF0998DDF81CA04DE02F
:10B3C00020F003080AF128094FF0000BA9F1180733
:10B3D000CCCF28462146FAF774FF32463B46FAF7AF
:10B3E00070FF59E90223FAF76CFFF9E80823FAF72E
:10B3F00068FF0BF1040B05460C46D845E6D10BF16E
:10B4000001010F9EDDF83490DDF820B0DDF81080EA
:10B41000DDE90907DDF81CA007B3129800EBC106AF
:10B42000D6E9022328462146FAF74BFF0546012FAD
:10B430000C4611D0D6E9042328462146FAF741FFED
:10B440000546022F0C4607D0D6E90623284621469A
:10B45000FAF737FF05460C4609980F9E51462A46D3
:10B460002346FBF747F80E9A4B4604460D46FAF77B
:10B47000CFFF024606980B465946FAF7C3FF039AD8
:10B4800033C210981299FEF7CDFDDDE90B47029DFE
:10B4900041462846FEF7C6FDDDE91501FEF7C2FD6F
:10B4A000DDE91701FEF7BEFD38462146FEF7BAFD7D
:10B4B00011993046FEF7B6FD19B0BDE8F08F00BF18
:10B4C000002000210025FEF7ADFD0F9EDDE90B47B2
:10B4D0000021DEE780B598B041F67830C2F2000076
:10B4E000007801461791072800F2D8841799DFE801
:10B4F00011F008000A005100370121020703ED0393
:10B50000C40400F0CBBC41F67830C2F200004078B1
:10B510000146169140B1FFE71698022812D0FFE7C6
:10B52000169804281BD032E0FFF7A4F818B9FFE7FB
:10B53000FCF7E2F92CE041F67831C2F2000102207A
:10B54000487025E0FFF784F80C2807D1FFE741F6A3
:10B550007831C2F2000104204870FFE718E00120B2
:10B5600002F00CFB01F0DCFD43F23360C0F203009B
:10B57000F4F758FC4FF47A70FEF732FA41F678315E
:10B58000C2F20001022008700020487000E0FFE7CE
:10B5900000F084BC41F67830C2F2000040780146E9
:10B5A0001591042800F2DB801599DFE801F00340D3
:10B5B0006C739F0043F2BF30C0F2030043F271612D
:10B5C000C0F20301129140F24512F4F72BFC01F096
:10B5D000D7FD129941F2A000C2F2000013904388F7
:10B5E00043F28C40C0F2030040F24712F4F71AFC19
:10B5F00012991398436843F24760C0F203004FF476
:10B60000A472F4F70FFC139841884268012014904B
:10B61000FBF76EFAF4F7DEFB024614980B4641F690
:10B620007831C2F20001C1E90223487097E0F4F7D3
:10B63000D1FB11900846119941F67832C2F200020E
:10B64000D2E90232C91A904141F60132C0F2B70282
:10B65000891A70F1000015D3FFE743F29110C0F290
:10B66000030043F27161C0F203014FF4A872F4F7D2
:10B67000D9FB41F67831C2F20001032008700020A6
:10B680004870FFE76BE041F67831C2F20001032019
:10B690004870FFE7F4F79EFB10900846109941F6BA
:10B6A0007832C2F20002D2E90232C91A904141F660
:10B6B0000132C0F2B702891A70F1000015D3FFE71A
:10B6C00043F29110C0F2030043F27161C0F2030132
:10B6D00040F25912F4F7A6FB41F67831C2F20001AC
:10B6E0000320087000204870FFE738E041F694001E
:10B6F000C2F20000C079C007B0B1FFE7FEF7C0FF9B
:10B70000014641F69400C2F200000180038843F232
:10B71000CE50C0F2030043F27161C0F203014FF456
:10B72000B172F4F77FFB11E041F69400C2F2000021
:10B73000038843F20060C0F2030043F27161C0F27B
:10B7400003014FF4B272F4F76DFBFFE741F6783175
:10B75000C2F200010320087000204870FFE79DE35B
:10B7600041F67830C2F20000407801460F9104287B
:10B7700000F2DF800F99DFE801F0032559609400A3
:10B7800043F2E620C0F2030043F27161C0F203010C
:10B790004FF4B872F4F746FB41F2A000C2F2000089
:10B7A000418801200E90FBF7C9F9F4F713FB02461C
:10B7B0000E980B4641F67831C2F20001C1E902232E
:10B7C0004870B6E0F4F706FB0D9008460D9941F677
:10B7D0007832C2F20002D2E90232C91A904141F62F
:10B7E0000132C0F2B702891A70F100001DD3FFE7E1
:10B7F00043F2FF00C0F2030043F27161C0F20301A3
:10B8000040F27912F4F70EFB41F69401C2F2000106
:10B81000C87900F0FB00C87141F67831C2F200012E
:10B820000420087000204870FFE782E041F678317C
:10B83000C2F2000103204870FFE7F4F7CBFA0C9046
:10B8400008460C9941F67832C2F20002D2E902327F
:10B85000C91A904141F60132C0F2B702891A70F15B
:10B8600000001DD3FFE743F2F310C0F2030043F2E0
:10B870007161C0F2030140F28512F4F7D3FA41F688
:10B880009401C2F20001C87900F0FB00C87141F6D2
:10B890007831C2F200010420087000204870FFE7F0
:10B8A00047E041F69400C2F20000C0798008C0076A
:10B8B000E8B1FFE743F25800C0F2030043F27161C0
:10B8C000C0F203014FF4C772F4F7ACFAFEF714FFAD
:10B8D000014641F69400C2F20000017190F9041093
:10B8E00043F2F340C0F20300F4F79CFA18E042F68A
:10B8F000AE70C0F2030043F27161C0F203014FF475
:10B90000C972F4F78FFA41F69400C2F2000090F980
:10B91000041043F2F340C0F20300F4F783FAFFE7A8
:10B9200041F67831C2F2000104200870002048700E
:10B93000FFE7B3E241F67830C2F2000040780146FA
:10B940000B91042800F2DB800B99DFE801F003275C
:10B950005B62960043F27130C0F2030043F2716102
:10B96000C0F2030140F29F12F4F75CFA01F010FC00
:10B9700041F2A000C2F20000418801200A90FBF7CA
:10B980006FF8F4F727FA02460A980B4641F6783129
:10B99000C2F20001C1E902234870B0E0F4F71AFADC
:10B9A00009900846099941F67832C2F20002D2E9BC
:10B9B0000232C91A904141F60132C0F2B702891A27
:10B9C00070F100001DD3FFE743F26310C0F20300E3
:10B9D00043F27161C0F2030140F2A912F4F722FAB6
:10B9E00041F69401C2F20001C87900F0FD00C8716F
:10B9F00041F67831C2F2000105200870002048703D
:10BA0000FFE77CE041F67831C2F200010320487084
:10BA1000FFE7F4F7DFF908900846089941F6783215
:10BA2000C2F20002D2E90232C91A904141F6013253
:10BA3000C0F2B702891A70F100001DD3FFE743F28C
:10BA40004B20C0F2030043F27161C0F2030140F2E7
:10BA5000B512F4F7E7F941F69401C2F20001C87992
:10BA600000F0FD00C87141F67831C2F200010520F6
:10BA7000087000204870FFE741E041F69400C2F2F0
:10BA80000000C0794008C007C0B1FFE743F27E0064
:10BA9000C0F2030043F27161C0F203014FF4DF72A0
:10BAA000F4F7C0F941F69400C2F20000418843F275
:10BAB0000C50C0F20300F4F7B5F917E043F20400AC
:10BAC000C0F2030043F27161C0F2030140F2C112FF
:10BAD000F4F7A8F941F69400C2F20000418843F25D
