:020000040202F6
:10900000982800201D900202DFF80CD000F01AF81A
:10901000004800472D9002029828002002B5EFF387
:10902000088181F30988054800470000044880470B
:10903000EFF3098181F3088802BD00004590020228
:10904000B9A70202064C074D06E0E06840F00103B4
:1090500094E8070098471034AC42F6D3FFF7D8FFE6
:1090600040E7020260E702022DE9F05F05460020BA
:1090700092469B4688460646814640241BE0284689
:1090800041464746224600F01CFA53465A46C01A4B
:10909000914110D311461846224600F003FA2D1ACA
:1090A00067EB01084F4622460120002100F0FAF943
:1090B00017EB00094E41201EA4F10104DFDC4846F5
:1090C00031462A464346BDE8F09F10B5431A934205
:1090D00009D28318881803E010F8011D03F8011D58
:1090E000521EF9D210BD40EA01039B0703D009E0EC
:1090F00008C9121F08C0042AFAD203E011F8013B84
:1091000000F8013B521EF9D210BDD2B201E000F8C6
:10911000012B491EFBD270470022F6E710B513461B
:109120000A4604461946FFF7F0FF204610BD421CD0
:1091300010F8011B0029FBD1801A704730B5044696
:109140000020034600E05B1C934203D2E05CCD5C50
:10915000401BF8D030BD034611F8012B00F8012B5D
:10916000002AF9D1184670472DE9FE4F804681EA62
:109170000300C00F0C46009021F0004123F0004591
:10918000B8EB0200A94105D24046214690461C4654
:109190000B46024623F00040104347D0270DC7F38B
:1091A0000A00C3F30A510290401A019040286BDA7A
:1091B000C3F3130040F4801B0098924620B10023B3
:1091C000D2EB030A63EB0B0B01985946C0F1400246
:1091D000504600F067F906460D4650465946019A3A
:1091E00000F07FF910EB08006141002487EA11527A
:1091F00084EAE7731A4340D0009A62B3019A012AC5
:109200004FEA075215DC001B61EB02014FF00042F0
:1092100002EA0752CDE90042001C41F580113246B6
:109220002B4600F07FF903B0BDE8F08F40462146A1
:10923000F9E7001B61EB0201001C41F580130018E7
:109240005B412018A2F5001747EB030140EAD570F7
:10925000B6196D4111E06D084FEA360645EAC07552
:109260004FEA0752001B61EB0201001C41F580111F
:1092700049084FEA30000019514132462B4603B0ED
:10928000BDE8F04F00F03FB90098012240000023F4
:10929000D0EB020263EBE073009821464FEAE074E2
:1092A000B8EB000061EB0401E9E783F000435BE702
:1092B00081F0004158E72DE9FE4F81EA030404F0F4
:1092C000004421F0004100944FF0000B23F00043D4
:1092D00050EA01045ED052EA03045BD0C3F30A549F
:1092E000C1F30A552C44A4F2F3340194A0FB0254B8
:1092F000C1F3130141F48011C3F3130343F480134A
:1093000001FB024400FB034E840A970A44EA81549D
:1093100047EA8357A4FB076802958D0A05FB07857A
:109320004FEA932C04FB0C542705029D4FEA065884
:1093300047EA1637B5EB08056EEB070C870E920E61
:1093400047EA811742EA8312A7FB0201B6EB0B0141
:1093500064EB00042B0D43EA0C335E1844EB1C5005
:10936000DA465146E7FB0201C5F313044FEA0B331B
:1093700043EA14534FEA0432019C43EA0603A4F182
:109380000C040294009CCDE900B400F0CBF803B0CB
:10939000BDE8F08F00200146F9E72DE9F04D81EAA4
:1093A000030404F0004B21F0004514464FF0000A7E
:1093B00023F0004150EA050220D054EA01021DD0FA
:1093C000C5F30A570246C5F31303C1F31300C1F3F3
:1093D0000A5640F4801543F48013A7EB0608101BCF
:1093E000D64608F2FD3873EB050002D308F10108F8
:1093F00001E092185B41B8F1000F03DA002001464A
:10940000BDE8F08D00204FF48011064684460EE042
:10941000171B73EB050705D3121B63EB050306430C
:109420004CEA010C49084FEA300092185B4150EABF
:109430000107EDD152EA030012D082EA040083EA68
:109440000501084305D0101BAB4106D201220023C1
:1094500006E000224FF0004302E06FF001025310DB
:109460001AEB06004CEB085110EB0A0041EB0B0124
:10947000BDE8F04D00F047B830B50B46014600207E
:109480002022012409E021FA02F59D4205D303FAC6
:1094900002F5491B04FA02F52844151EA2F1010247
:1094A000F1DC30BD202A04DB203A00FA02F1002072
:1094B00070479140C2F1200320FA03F31943904012
:1094C0007047202A04DB203A21FA02F0002170477D
:1094D00021FA02F3D040C2F120029140084319461C
:1094E0007047202A06DBCB17203A41FA02F043EA04
:1094F000E07306E041FA02F3D040C2F1200291404D
:1095000008431946704710B5141E73F1000408DAB9
:10951000401C41F1000192185B411A4301D120F037
:10952000010010BD2DE9F04D92469B4611B1B1FAF4
:1095300081F202E0B0FA80F220329046FFF7B2FFEB
:1095400004460F4640EA0A0041EA0B0153465A46D8
:10955000084313D0114653EA010019D0C8F1400264
:109560005046FFF7AEFF05460E4650465946424666
:10957000FFF798FF084305D0012004E02046394654
:10958000BDE8F08D0020054346EAE0762C433743E2
:109590000A986305E40AA0EB08000022FD0A44EAE9
:1095A00047540A3002D500200146E9E701051019A9
:1095B0006941DDE9084500196941BDE8F04DA2E7C0
:1095C000C1F30A52C1F3130140F2FF3341F4801199
:1095D0009A4202DA00200146704740F233439A4231
:1095E000A2F2334202DC5242FFF76BBFFFF75ABFD1
:1095F00030B5041E71F1000404DB4FF0004440421A
:1096000064EB0101141E73F1000405DB1C464FF0EE
:109610000043524263EB0403994208BF904230BDBD
:1096200030B58C1810F8012B12F00F0301D110F88F
:10963000013B120906D110F8012B03E010F8015B81
:1096400001F8015B5B1EF9D101E001F8013B521EFC
:10965000FBD1A142E6D3002030BD000080B584B02C
:109660008DF80F008DF80E100020ADF80C00029060
:109670000190ADF802009DF80E008DF802009DF8F3
:109680000F0040B1FFE701A8B9210DF1020201234B
:1096900003F0C2F907E001A8BA210DF1020201238B
:1096A00003F0BAF9FFE701A80A2103F075F904B045
:1096B00080BD000080B586B08DF817008DF81610BB
:1096C000ADF8142000200490039002908DF806005D
:1096D000ADF804009DF816008DF804009DF8170001
:1096E00038B1FFE702A8B52101AA012303F094F9DC
:1096F0000EE0BDF814008DF805009DF815008DF8FA
:10970000060002A8B62101AA032303F085F9FFE7AA
:1097100002A80C2103F040F906B080BD80B586B0E8
:109720008DF817008DF816108DF815200020ADF873
:10973000100003900290ADF806009DF816008DF819
:1097400006009DF8170040B1FFE702A8B7210DF110
:109750000602012303F060F90CE09DF815000DF1FD
:1097600006014A1C8DF8070002A8B821012303F066
:1097700053F9FFE702A80A2103F00EF906B080BDF5
:1097800080B586B08DF81700ADF814100020CDF824
:109790000F00039002908DF8040000909DF81400D3
:1097A0008DF800009DF8170038B1FFE702A8B1213D
:1097B0006A46022303F030F906E002A8B2216A46A5
:1097C000022303F029F9FFE702A80B2103F0E4F8D4
:1097D00006B080BD80B584B08DF80F008DF80E10F6
:1097E0000020ADF80C0002900190ADF802009DF849
:1097F0000E008DF802009DF80F0040B1FFE701A8B0
:10980000B3210DF10202012303F006F907E001A8DC
:10981000B4210DF10202012303F0FEF8FFE701A8D5
:109820000A2103F0B9F804B080BD000083B00290B3
:109830008DF807108DF806209DF80710012088404C
:10984000009002980068009988439DF806109DF8E2
:109850000720914008430299086003B07047000058
:1098600080B586B08DF817008DF816109DF817108A
:1098700045F20000C4F201001429C4BF46F2000002
:10988000C4F2010004909DF81700152805DBFFE7DE
:109890009DF817001538029003E09DF8170002901C
:1098A000FFE7029803909DF81600032817D0FFE702
:1098B000049828309DF80C109DF81620002A18BF37
:1098C0000122FFF7B3FF049834309DF80C109DF887
:1098D0001620B2FA82F25209FFF7A8FF0FE00498AF
:1098E00028309DF80C1000220192FFF79FFF019A8B
:1098F000049834309DF80C10FFF798FFFFE706B08E
:1099000080BD000084B08DF80F008DF80E109DF81A
:109910000F1045F20000C4F201001429C4BF46F242
:109920000000C4F2010002909DF80F00152805DB2D
:10993000FFE79DF80F001538009003E09DF80F0039
:109940000090FFE7009801909DF80E0048B1FFE7F6
:109950000199012000FA01F20299086B1043086393
:1099600008E00199012000FA01F20299C86A104347
:10997000C862FFE704B0704786B08DF817008DF815
:1099800016109DF817000490049900201F29C8BFE5
:1099900001200390049800F01F01012088400290EC
:1099A000039946F28000C4F2000000EB81000190B0
:1099B000039946F28800C4F2000000EB8100009099
:1099C0009DF8160030B9FFE7029A019908689043A4
:1099D000086016E09DF81600012806D1FFE7029AFC
:1099E000009908681043086005E0029A0099086829
:1099F00090430860FFE7029A0199086810430860E5
:109A0000FFE7002006B0704780B586B0DDF820C0C3
:109A10008DF813000391029201939DF813007F28A3
:109A200012D1FFE7029946F24000C4F2000000EBB9
:109A300081009DF804209DF820304FF0FF3102F0A6
:109A40003DFA0020059024E003989DF8131001F0E2
:109A500071FB00900098B0F1FF3F03DCFFE7009836
:109A6000059016E0029946F24000C4F2000000EBB7
:109A7000810000999DF804209DF8203002F01EFA24
:109A80009DF813009DF80C1000F030F800200590B0
:109A9000FFE7059806B080BD80B584B08DF80F0053
:109AA0008DF80E109DF80F000146029120B1FFE7DE
:109AB000029801280BD015E09DF80E006A460F2190
:109AC0001160662103220523FFF79EFF0BE09DF83E
:109AD0000E006A4600211160682104220523FFF769
:109AE00093FF00E0FFE704B080BD000080B584B0C4
:109AF0008DF80B008DF80A109DF80B009DF80A10E8
:109B000002F0F8FA01900198B0F1FF3F03DCFFE7A3
:109B100001980390BAE09DF80B00112812DCFFE7D2
:109B20009DF80B2046F20000C4F20000104320F024
:109B30000300019902F00302C2EBC203072202F004
:109B4000BDF9A0E09DF80B00142810DCFFE7019997
:109B50009DF80B206FF0150000EB4200C3B246F2F7
:109B60001000C4F20000022202F0A8F98AE09DF879
:109B70000B0015280AD1FFE7019946F21000C4F244
:109B800000000722142302F099F97AE09DF80B00F7
:109B900016280AD1FFE7019946F21400C4F200002A
:109BA0000722002302F08AF96AE09DF80B001E28C4
:109BB00010DCFFE701999DF80B206FF0260000EB09
:109BC0004200C3B246F21400C4F20000022202F0C6
:109BD00075F954E09DF80B001F280AD1FFE70199A1
:109BE00046F21400C4F200000722172302F066F9BF
:109BF00044E09DF80B0020280AD1FFE7019946F2C6
:109C00001400C4F2000002221E2302F057F934E0CF
:109C10009DF80B0021280AD1FFE7019946F21800B0
:109C2000C4F200000222002302F048F924E09DF86B
:109C30000B0023280FDCFFE701999DF80B00C0EB18
:109C4000C000EC38C3B246F21800C4F2000007228C
:109C500002F034F90FE001999DF80B206FF0370006
:109C600000EB4200C3B246F21800C4F20000022228
:109C700002F024F9FFE7FFE7FFE7FFE7FFE7FFE771
:109C8000FFE7FFE7FFE700200390FFE7039804B03A
:109C900080BD000083B08DED020A8DF80700012021
:109CA0000090FFE79DF80700012813DBFFE79DED1B
:109CB000000AB8EE400A9DED021A20EE010ABCEE41
:109CC000C00A8DED000AFFE79DF8070001388DF806
:109CD0000700E7E7009803B07047000080B582B046
:109CE0000190019800EB400140F67060C2F2000064
:109CF00000EBC100183000F0E3FB02B080BD0000B3
:109D000080B500F08FFB80BD80B586B005900491D2
:109D10000392FFE740F67060C2F20000007818B9C5
:109D2000FFE700F07FFBFFE7FFE7EFF311804FF065
:109D3000200181F31188019005980499039A00F09D
:109D400007F80290019880F31188029806B080BD50
:109D500080B58AB0099008910792089804900998F4
:109D600000EB400140F67060C2F2000000EBC10061
:109D70001830039003984069029040B1FFE70298C1
:109D8000012819D0FFE7029802282CD032E003986E
:109D900000F096FB059005980799884203D2FFE7EB
:109DA0000020069007E00798069003980499079A08
:109DB00000F016FCFFE720E0039800F081FB05901F
:109DC00005980799884203D2FFE70598019002E0C1
:109DD00007980190FFE70198069003980499069A66
:109DE00000F0FEFB09E003980499079A00F088FB55
:109DF000069002E000200690FFE706980AB080BDBA
:109E000080B582B001908DF803108DF802209DF886
:109E1000030030B1FFE701980021012202F034F87D
:109E2000FFE79DF803109DF802302820C4F20000DF
:109E3000012202F065F89DF8030058B9FFE7019987
:109E40000420C8F20000886501980122114602F042
:109E50001BF8FFE702B080BD80B582B08DF8070027
:109E60009DF80700012100F025F802B080BD000038
:109E700080B582B0019000208DF80300FFE79DF8C7
:109E80000300182813DCFFE701989DF80310C84071
:109E9000C00728B1FFE79DF80300FFF7DDFFFFE7EC
:109EA000FFE79DF8030001308DF80300E7E702B0FB
:109EB00080BD000080B586B08DF817008DF81610B3
:109EC0009DF8170001460491182800F2B381049907
:109ED000DFE811F019002A003B004C005D006E0025
:109EE0007F009000A100B200CA00E300F4000D0161
:109EF0001E012F014001510162016B0174017D01BE
:109F000086019701A7019DF816100C20C4F20000ED
:109F1000152201F0B9FF9DF816101420C4F20000BC
:109F2000122201F0B1FF86E19DF816100C20C4F258
:109F30000000162201F0A8FF9DF816101420C4F2AC
:109F40000000122201F0A0FF75E19DF816100C2010
:109F5000C4F20000022201F097FF9DF816101420B1
:109F6000C4F20000002201F08FFF64E19DF816109A
:109F70000C20C4F20000032201F086FF9DF81610A9
:109F80001420C4F20000012201F07EFF53E19DF88D
:109F900016100C20C4F20000042201F075FF9DF899
:109FA00016101420C4F20000022201F06DFF42E1FD
:109FB0009DF816100C20C4F20000012201F064FF8D
:109FC0009DF816101420C4F20000112201F05CFF6D
:109FD00031E19DF816100C20C4F20000052201F0BA
:109FE00053FF9DF816101420C4F200000A2201F05D
:109FF0004BFF20E19DF816100C20C4F2000008224F
:10A0000001F042FF9DF816101420C4F2000009224E
:10A0100001F03AFF0FE19DF816100C20C4F2000089
:10A02000092201F031FF9DF816105420C4F20000FF
:10A030000C2201F029FFFEE09DF816100C20C4F25E
:10A0400000000A2201F020FF9DF816101420C4F22F
:10A0500000000390132201F017FF03989DF81610DB
:10A06000142201F011FFE6E09DF816100C20C4F256
:10A0700000000B22019201F007FF019A9DF81610D3
:10A080001420C4F20000029001F0FEFE02989DF838
:10A090001610102201F0F8FECDE09DF816100C20ED
:10A0A000C4F200000C2201F0EFFE9DF8161008200B
:10A0B000C4F20000002201F0E7FEBCE09DF816109B
:10A0C0000820C4F200000C2201F0DEFE9DF81610FC
:10A0D0000C20C4F200000D2201F0D6FE9DF81610EF
:10A0E0001420C4F20000062201F0CEFEA3E09DF889
:10A0F00016100C20C4F200000E2201F0C5FE9DF8DF
:10A1000016101420C4F20000072201F0BDFE92E0F8
:10A110009DF816100C20C4F200000F2201F0B4FECE
:10A120009DF816101420C4F200000C2201F0ACFEC1
:10A1300081E09DF816100C20C4F20000102201F0FE
:10A14000A3FE9DF816101420C4F20000082201F0AE
:10A150009BFE70E09DF816100C20C4F20000112246
:10A1600001F092FE9DF816101420C4F200000422A3
:10A1700001F08AFE5FE09DF816100C20C4F200008A
:10A18000122201F081FE9DF816101420C4F2000086
:10A19000052201F079FE4EE09DF816100C20C4F265
:10A1A0000000132201F070FE45E09DF816100C200F
:10A1B000C4F20000142201F067FE3CE09DF8161086
:10A1C0000C20C4F20000002201F05EFE33E09DF896
:10A1D00016100C20C4F20000062201F055FE2AE001
:10A1E0009DF816100C20C4F20000172201F04CFE5E
:10A1F0009DF816101420C4F200000E2201F044FE57
:10A2000019E09DF816108020C4F20000009005228D
:10A2100001F03AFE00989DF81610072201F034FE76
:10A2200009E09DF816100C20C4F20000192201F07C
:10A230002BFE00E0FFE706B080BD000080B582B0D5
:10A240008DF807009DF807100020C4F214000122C9
:10A25000FFF7D6FD02B080BD80B584B000F09EFC53
:10A260000190019818B9FFE7012003905FE0019881
:10A27000017842F20800C4F210000722042301F022
:10A280003FFE1C20C4F2000040F2EE210C221423F9
:10A2900001F036FE00200290FFE702980F2819D83F
:10A2A000FFE70198029900EB4100808840F2A64147
:10A2B00088420ADBFFE7029942F20000C4F2100074
:10A2C00004221C2301F01CFE04E0FFE70298013089
:10A2D0000290E2E70298102803D3FFE702200390E0
:10A2E00025E001200290FFE702980F2815D8FFE72C
:10A2F0000198029900EB4100808C40F29D41884218
:10A3000006DBFFE702980138C0B200F013F804E062
:10A31000FFE7029801300290E6E70298102803D385
:10A32000FFE70320039002E000200390FFE703987B
:10A3300004B080BD80B582B08DF807009DF807009D
:10A3400000F00F0142F20000C4F2100004220123C9
:10A3500001F0D6FD02B080BD80B584B002908DF8CA
:10A3600007100298408828B9FFE79DF80700029976
:10A3700008702FE0029991ED010A91F9000001EEB9
:10A38000100AB8EEC12AB7EE001A31EE401A9DF954
:10A39000070003EE100AB8EEC33A21EE031A20EECE
:10A3A000020A30EE010ABDEEC00A10EE100A087073
:10A3B000029890F90010009190ED010A8078FFF763
:10A3C00069FC01460098C1F10101B0FBF1F002996E
:10A3D0004870FFE702994888013048800298408819
:10A3E000B0F57A7F0BDDFFE70299012048800299E2
:10A3F00000200870029840788DF80F0003E00020DC
:10A400008DF80F00FFE79DF90F0004B080BD00003C
:10A4100082B001908DF803109DF803000199086047
:10A4200002B0704780B582B040F67060C2F20000A2
:10A4300001900199012008610199486101984EF24B
:10A440003571C0F202218161019A40F6C860C2F202
:10A450000000D061019A4FF4FA701062019A002056
:10A460009062019A5062019AD062019A1163019A36
:10A4700040F6B861C2F200015163019A1021916364
:10A48000019908640199C8630199486401980730EB
:10A490004EF23171C0F20221FEF75DFEBFF35F8F15
:10A4A00001984EF22A71C0F20221FEF754FEBFF36A
:10A4B0005F8F019920208871BFF35F8F02B080BD4C
:10A4C00084B003900398006902900398C0680190DB
:10A4D00002980199884209D8FFE70398806801999A
:10A4E000401A029908440138009005E00299019849
:10A4F000C04308440090FFE7009804B07047000094
:10A5000080B58AB0099008910792002005900998BB
:10A51000C0680390FFE709980069049004980399C4
:10A52000884206D9FFE704990398C043084406907F
:10A5300008E0099881680398049A801AC043084487
:10A540000690FFE7069809998968039A891A884254
:10A5500003D2FFE70698029005E009988068039906
:10A56000401A0290FFE702980690069807998842E1
:10A5700003D2FFE70698019002E007980190FFE7F9
:10A580000198069009984068039908440899069A2A
:10A59000FEF79BFD069905980844059006990898D2
:10A5A0000844089006990798401A0790069903985E
:10A5B00008440390039809998968884203D1FFE70A
:10A5C00000200390FFE7BFF35F8F03980999C860ED
:10A5D000FFE7079800289ED1FFE705980AB080BDE5
:10A5E00080B586B00590049103920598C0680190EB
:10A5F000059880680199401A009000980399884254
:10A6000010D9FFE705984068019908440499039A16
:10A61000FEF75BFDBFF35F8F01980399084405992E
:10A62000C8601BE0009802900598406801990844B2
:10A630000499029AFEF749FD03980099401A029086
:10A64000059840680499009A1144029AFEF73DFD6E
:10A65000BFF35F8F02980599C860FFE706B080BD21
:10A6600087B00590049103920498C0000399B0FB51
:10A67000F1F002900298C009019001990298A0EBB4
:10A68000C11002900298013040080090019805998D
:10A690004862BDF8060018B9FFE7019820B9FFE746
:10A6A0004FF0FF30069018E001984FF6FF71884296
:10A6B00004D1FFE705990020886207E0019902981C
:10A6C000401A0290009805998862FFE70598C06AD1
:10A6D0000599C86200200690FFE7069807B070470A
:10A6E00081B0009000988069C0F3001001B07047FD
:10A6F00081B0009000988069C0F3401001B07047AD
:10A7000081B000900098C06B01B0704780B584B0F4
:10A710000290019100920299002008630299486416
:10A720000299886302994860029948620299886296
:10A730000299C8620298019AD1681269FFF790FFE6
:10A7400020B1FFE74FF0FF30039031E0019890F81F
:10A7500000C041788378C278802000EA411040EA46
:10A760004C1040EA031040EAC20001F0030140EA45
:10A7700041000299C8620198B0F8090040BA0299F4
:10A7800048630098029988630199087991F805C097
:10A790008B79CA79400240EA0C20184440EAC23062
:10A7A000097A40EA81300299086300200390FFE7AC
:10A7B000039804B080BD000080B5FFF74DFD4DF655
:10A7C0006C20C0F20220F7F739FA01F01DFC41F2CB
:10A7D000E800C2F2000001F03DFE02200021F7F780
:10A7E00065F800F06BFC80BD81B000900098807827
:10A7F00001B0704783B00290019100200090FFE704
:10A800000198411E019140B1FFE70298011D02919C
:10A810000168009808440090F2E7009803B0704780
:10A8200080B541F20000C0F200209221FFF7E2FF64
:10A8300080BD000080B582B0019000910198016850
:10A8400042684DF6BA60C0F20220F7F759F9FFE707
:10A85000FEE7000070B588B007900691DDF81CC0D7
:10A86000CDF814C0DCF81810DCF81420DCF81C302B
:10A87000DCF80000DCF804E0DCF80840DCF80C5000
:10A88000DCF81060EC46CCF81060CCF80C50CCF83A
:10A890000840CCF804E0CCF800004DF64260C0F26D
:10A8A0000220F7F72DF9FFE7FEE7000080B582B040
:10A8B0000190009101994DF6AE60C0F20220F7F7C9
:10A8C0001FF9FFE7FEE7000080B582B0019000911C
:10A8D000FFE742F20000C4F20100FFF709FF012880
:10A8E00001D1FFE7F5E70198017842F20000C4F2D8
:10A8F0000100FFF78DFD002002B080BD80B586B05D
:10A90000059004914EF60450CEF2000000686FF3FB
:10A910005F20B0FA80F040098DF80B009DF80B0025
:10A9200028B1FFE7F7F7A2F8406B8047FFE7002068
:10A93000FFF7D4F9039005990889498908440399D8
:10A9400088420EDAFFE7059801680289002001902D
:10A95000FFF7DAF90198059A51685289FFF7D4F99F
:10A96000FFE79DF80B0028B1FFE7F7F77FF8806B52
:10A970008047FFE7002006B080BD000083B0029052
:10A98000ADF80610FF208DF805008DF80400FFE7F4
:10A99000BDF80600411EADF80610F8B1FFE79DF8BE
:10A9A000050002994A1C0292097848408DF803007C
:10A9B0009DF804009DF803204DF61001C0F202211D
:10A9C000895C48408DF805009DF803104DF6101085
:10A9D000C0F20220405C8DF80400D9E79DF8051014
:10A9E0009DF8040040EA012003B0704780B588B0AC
:10A9F0000790069103208DF8040000228DF80520B1
:10AA000001208DF806008DF807208DF808008DF8DC
:10AA100009008DF80A008DF80B208DF80C208DF8B8
:10AA20000D008DF80E00079804900698059042F2EC
:10AA30000000C4F2010001A9FFF768FE08B080BD64
:10AA400080B596B0159014911392FFE713980128E2
:10AA500031DBFFE700200290FFE713990020012976
:10AA6000019007DBFFE702990020102938BF012081
:10AA70000190FFE70198C00788B1FFE7149800F044
:10AA800049FF029A03A941F822000298013002907E
:10AA9000139801381390149804301490DDE715983A
:10AAA00002998A0003A902F001F90299159800EBB6
:10AAB00081001590CAE716B080BD000041F2BC01CC
:10AAC000C2F20001086801300860704781B0009050
:10AAD00001B0704781B00090002001B070470000C5
:10AAE00072B641F2D001C2F200010868013008607C
:10AAF0007047000080B582B001904FF0FF300090A9
:10AB000001986946042200F053FD02B080BD0000A8
:10AB100080B584B08DF80B008DF80A10EFF310802B
:10AB200003900398019072B640F2C970804740F6D6
:10AB30004D008047ADF80200BDF80200ADF80000FE
:10AB4000BDF802004BF683710840ADF802009DF895
:10AB50000A0080039DF80B1040EA8101BDF8020055
:10AB60000843ADF80200BDF80000BDF802108842AD
:10AB700006D0FFE7BDF8020040F601318847FFE745
:10AB800040F25160804740F60D008047019810B9AF
:10AB9000FFE762B6FFE704B080BD000080B582B079
:10ABA00000F00EF830B9FFE741F27800C0F2002063
:10ABB000019002E000200190FFE7019802B080BD03
:10ABC00080B586B000F0E4F918B1FFE700200590E9
:10ABD00054E04FF4805000F09DFE0490049844F23D
:10ABE0004371C4F64E11884203D0FFE7012005905F
:10ABF00044E041F2040000F08DFE0490049845F218
:10AC00005301C4F64901884203D0FFE702200590B2
:10AC100034E00DF10F000DF10E0100F033F80021CA
:10AC200002910846FFF774FF41F20000C0F20020D5
:10AC30000190FFF75FFF01984FF480511E22FFF74C
:10AC4000FFFE41F27800C0F200204FF48851242228
:10AC5000FFF7F6FE41F20810C0F200204FF4005159
:10AC60005022FFF7EDFE02F0A9F89DF80F009DF8C5
:10AC70000E10FFF74DFF02980590FFE7059806B00C
:10AC800080BD000080B586B004900391EFF3108082
:10AC900005900598029072B640F2C970804740F660
:10ACA0004D008047ADF80600BDF80600C0F38030C7
:10ACB00003990870BDF80600C0F384000499087079
:10ACC00040F25160804740F60D008047029810B96D
:10ACD000FFE762B6FFE706B080BD000080B582B036
:10ACE0000190009101A80021FFF7EEFD019802B04C
:10ACF00080BD000080B582B08DF807009DF8071078
:10AD000040F6C850C2F20000817083784EF27C6039
:10AD1000C0F202204EF21871C0F202213822F6F77A
:10AD2000EFFE02B080BD000080B582B08DF8070054
:10AD30009DF8070040F6C851C2F20001487001209A
:10AD400008700A2000221146DBF754FB02B080BDD8
:10AD500080B588B040F6C850C2F20000007860B9F3
:10AD6000FFE74EF29860C0F202204EF21871C0F276
:10AD700002211722F6F7C4FE5CE040F6C850C2F28A
:10AD80000000039081780F20F6F790FD039941F2BF
:10AD9000D400C2F200000590006891F901206B46D2
:10ADA00045F25551C0F2550159604AF27931CBF65E
:10ADB000D861196003210123E3F76CF80598006856
:10ADC0006946002304930B6014221946E3F7DEF86A
:10ADD000049B0598006819461A46E3F7F6F80598AB
:10ADE00000680690F6F75AFE0246069847F230537E
:10ADF000D21841F10003E2F70DFF0790079868B100
:10AE0000FFE7079B4EF2ED60C0F202204EF2187190
:10AE1000C0F202212822F6F773FE0BE04EF2C16069
:10AE2000C0F202204EF21871C0F202212A22F6F777
:10AE300067FEFFE708B080BD40F6C851C2F20001CE
:10AE4000002008707047000080B54BF2A501C0F2E9
:10AE5000022101200022E2F7F1FC41F2D401C2F20A
:10AE60000001086080BD000041F24B20C0F20020CC
:10AE70000068704781B040F68441C2F20001B1F829
:10AE80003201ADF802000020A1F83201BDF8020045
:10AE900001B0704781B040F67440C2F2000090F9F2
:10AEA000010010F1470F03DCFFE70020009007E0EE
:10AEB00040F67440C2F2000090F901000090FFE7F4
:10AEC000009801B07047000082B000900098806840
:10AED0000099C968884207D3FFE700988068009905
:10AEE000C968401A019002E000200190FFE7019834
:10AEF00002B0704780B5FFF7BDFF014641F2DC00AC
:10AF0000C2F200004180408880BD000080B5FFF79C
:10AF1000C1FF014641F2DC00C2F20000417190F92C
:10AF2000050080BD80B582B08DF807009DF8070050
:10AF3000082809DBFFE79DF807104DF6F460C0F222
:10AF4000022001F075FF12E09DF8071040F67C40EA
:10AF5000C2F200000090405C0121FEF7D3FC009893
:10AF60009DF80710405C0021FEF7CCFCFFE702B023
:10AF700080BD000081B000900098007801B070475B
:10AF800081B000900098043001B070477047000015
:10AF900080B584B041F20000C0F200200290029817
:10AFA000006844F24371C4F64E11884209D1FFE7AC
:10AFB0000298406845F25301C4F64901884203D023
:10AFC000FFE7002003900FE0FFF74EFF0190FFF72F
:10AFD00027FC01460198884203D0FFE70020039038
:10AFE00002E001200390FFE7039804B080BD000059
:10AFF00082B0019001990020009041B1FFE70198D3
:10B00000411E0840B0FA80F040090090FFE7009828
:10B0100000F0010002B0704741F2D000C2F200001F
:10B020000168013901600068002802DCFFE762B6B0
:10B03000FFE7704780B54EF21001CEF2000101200B
:10B04000086062B6F6F73EFD41F2C800C2F20000A9
:10B05000016841F2CC00C2F200000068884780BD60
:10B0600082B001900091002002B0704780B584B09A
:10B07000039002910020019040F68440C2F200004B
:10B080004078012803D1FFE70020019002E0012071
:10B090000190FFE7019800221146DBF7ABF904B0FD
:10B0A00080BD000080B582B0019000910B2000228D
:10B0B0001146DBF79FF902B080BD00004DF620205D
:10B0C000C0F202207047000085B00390029100207A
:10B0D0008DF80700039838B1FFE70398006818B1AE
:10B0E000FFE7029820B9FFE701208DF813001AE06E
:10B0F000039880680399C968401A0090009820B9A5
:10B10000FFE703208DF813000DE003990868C96874
:10B11000039A5268013A1140405C0299087000207D
:10B120008DF81300FFE79DF8130005B0704700008D
:10B130007047000088B006908DF817100698C11768
:10B1400000EB5170C0100490069800F007018020B9
:10B15000C8400390002002909DF81700013801902C
:10B160009DF817004DF6DC22C0F20222132110FBDD
:10B170000120009000980499405C0399084204D192
:10B18000FFE74FF0FF30079020E0FFE7019800282D
:10B1900019D4FFE701984DF6DC22C0F202221321F8
:10B1A00000FB0120009000980499405C039908423C
:10B1B00004D0FFE7029801300290FFE7FFE7019813
:10B1C00001380190E2E702980790FFE7079808B07E
:10B1D0007047000080B586B005908DF813109DF87B
:10B1E00013304EF25320C0F202204EF21B31C0F257
:10B1F0000221CE22F6F784FC05980079B138014689
:10B2000003910A2800F2C3810399DFE811F00B00D3
:10B21000330059007F00A700D000FD0026015C012B
:10B22000950186010598053000F0EEFC8DF81200BE
:10B230009DF8120088B9FFE79DF812100120FEF773
:10B240009FFA4EF24610C0F202204EF21B31C0F2BD
:10B250000221D622F6F754FC0BE04DF67A70C0F2CC
:10B2600002204EF21B31C0F20221DA22F6F748FC2E
:10B27000FFE79BE100F004FD8DF812009DF812003D
:10B2800088B9FFE79DF812100020FEF779FA4EF218
:10B290005300C0F202204EF21B31C0F20221E5221F
:10B2A000F6F72EFC0BE04DF67A70C0F202204EF25B
:10B2B0001B31C0F20221E922F6F722FCFFE775E11B
:10B2C00000F01EFD8DF812009DF8120088B9FFE70E
:10B2D0009DF812100120FEF77DFA4EF2B700C0F281
:10B2E00002204EF21B31C0F20221F422F6F708FCD4
:10B2F0000BE04DF61570C0F202204EF21B31C0F289
:10B300000221F822F6F7FCFBFFE74FE100F02AFDEF
:10B310008DF812009DF8120090B9FFE79DF8121009
:10B320000020FEF757FA4DF6BE70C0F202204EF232
:10B330001B31C0F2022140F20112F6F7E1FB0CE0F2
:10B340004DF61570C0F202204EF21B31C0F2022100
:10B3500040F20512F6F7D4FBFFE727E100F0AAFB65
:10B360008DF812009DF8120098B9FFE79DF81210B1
:10B3700001200022FEF79EF94EF21910C0F20220C1
:10B380004EF21B31C0F202214FF48772F6F7B8FB80
:10B390000CE04DF65B70C0F202204EF21B31C0F2A1
:10B3A00002214FF48972F6F7ABFBFFE7FEE000F0F5
:10B3B000AFFB8DF812009DF81200B8B9FFE79DF8B9
:10B3C00012000290FFF796FD029902460020FEF758
:10B3D00071F94EF22400C0F202204EF21B31C0F28D
:10B3E00002214FF48E72F6F78BFB0CE04DF65B708A
:10B3F000C0F202204EF21B31C0F202214FF49072D3
:10B40000F6F77EFBFFE7D1E000F0ACFB8DF8120011
:10B410009DF8120098B9FFE79DF812100120002254
:10B42000FEF77CF94EF27310C0F202204EF21B318F
:10B43000C0F2022140F22912F6F762FB0CE04DF651
:10B440009970C0F202204EF21B31C0F2022140F28C
:10B450002D12F6F755FBFFE7A8E000F0ADFB8DF8E5
:10B4600012009DF8120000BBFFE7FFF74FFD0146F9
:10B470004EF22520C0F20220F6F742FB9DF81200A2
:10B480000190FFF743FD019902460020FEF746F9BF
:10B490004EF28200C0F202204EF21B31C0F20221B5
:10B4A0004FF49C72F6F72CFB0CE04DF69970C0F24D
:10B4B00002204EF21B31C0F202214FF49E72F6F7C9
:10B4C0001FFBFFE772E00598407900F097FA8DF8CE
:10B4D00012009DF8120090B9FFE79DF812100120AC
:10B4E000FEF7BCF84EF2E400C0F202204EF21B312F
:10B4F000C0F2022140F24512F6F702FB0CE04DF6D5
:10B500003470C0F202204EF21B31C0F2022140F230
:10B510004912F6F7F5FAFFE748E005984079402828
:10B5200004DBFFE73F20FFF7E5FB04E005984079E7
:10B53000FFF7E0FBFFE739E000F092FA8DF8120028
:10B540009DF81200A8B9FFE79DF812100020FEF741
:10B5500085F8152000F07EFC4DF6ED70C0F202205B
:10B560004EF21B31C0F2022140F25D12F6F7C8FA2A
:10B570000CE04DF63470C0F202204EF21B31C0F2E6
:10B58000022140F26112F6F7BBFAFFE70EE00598E0
:10B5900003794EF2FE10C0F202204EF21B31C0F2CF
:10B5A00002214FF4B372F6F7ABFAFFE706B080BDA5
:10B5B00080B584B003900291019203980299019A98
:10B5C00043F69B33984704B080BD000080B584B03B
:10B5D000039002910398029948430C3002F0E2F87C
:10B5E00001900199002088600398019908600298F1
:10B5F00001994860019804B080BD000080B584B016
:10B6000002900191F6F7F0F9029800900098806896
:10B61000002806DCFFE7FFF7B9FC4FF0FF3003908E
:10B6200016E00198009A02F10C015268FDF74DFDF9
:10B630000099886801388860009901F10C004A6817
:10B640008B6881185A43FDF740FD00200390FFE707
:10B65000039804B080BD000080B584B002900191D1
:10B6600002980090009801688068884204DBFFE738
:10B670004FF0FF3003900FE000994A68886800FBA4
:10B6800002100C300199FDF720FD00998868013007
:10B69000886000200390FFE7039804B080BD00009D
:10B6A00080B584B040F68440C2F2000003900021CF
:10B6B000417003784EF29D50C0F202204EF25F615D
:10B6C000C0F202210291CB22F6F71AFA02990398EE
:10B6D000D0F840314EF23160C0F20220CC22F6F7B1
:10B6E0000FFA039941F2E400C2F20000006891F9F8
:10B6F0000020D1F840116B4645F2555CC0F2550C64
:10B70000C3F804C0196003210123E2F7C3FB04B0AE
:10B7100080BD000080B586B040F68440C2F20000D3
:10B72000049001210591417003784EF2B450C0F2AB
:10B7300002204EF25F61C0F202210391D822F6F797
:10B74000DFF903990498D0F840314EF24860C0F216
:10B750000220D922F6F7D4F90499059B41F2EC00B6
:10B76000C2F20000006891F90020D1F84011EC46C7
:10B7700045F2555EC0F2550ECCF804E0CCF800104E
:10B780000321E2F787FB06B080BD000080B582B0E0
:10B790004BF26D01C0F2022100910022019210468D
:10B7A000E2F74CF80099019A41F2E403C2F2000377
:10B7B00018600120E2F742F841F2EC01C2F2000108
:10B7C000086002B080BD000080B540F68440C2F23F
:10B7D00000000021A0F83211C0F8341102304FF4FB
:10B7E0009671FDF799FC80BD80B584B040F6844029
:10B7F000C2F2000090F82E0110B3FFE741F2E4001E
:10B80000C2F200000290006800F034FC0298006868
:10B810000390F6F743F9024603980B4640F684413D
:10B82000C2F20001B1F830C112EB0C0243F1000387
:10B83000D1F83C11EC46CCF80010E2F781F902E0B7
:10B84000FFF7C2FFFFE704B080BD000080B586B0FF
:10B8500041F2D800C2F200000068642811DBFFE763
:10B8600041F2D800C2F200000022026040F684409B
:10B87000C2F2000080F82E2102201146DAF7BAFD4C
:10B88000FFE741F2D801C2F2000101910A68501CA1
:10B89000086040F68440C2F2000005900230039038
:10B8A0004EF26D61C0F2022101F0D2FA01990398C3
:10B8B00041F2EC02C2F2000212680492096801F03F
:10B8C0007F010291FDF733FC0299039A0346049825
:10B8D000E2F77BFB059890F82E01B0B1FFE741F24B
:10B8E000EC00C2F2000000680090F6F7D7F80246BC
:10B8F000009840F68443C2F20003D3F83831D218DE
:10B9000041F10003E2F786F902E0FFF75DFFFFE790
:10B9100006B080BD80B596B0149002A90020B0EBAF
:10B92000917F06D1FFE7149802A900F017F815904F
:10B9300011E00020C2F2010000900120FEF77EFC21
:10B940001498009900F00AF801900020FEF776FCA8
:10B9500001981590FFE7159816B080BD80B586B0A8
:10B960000490039103984DF6FA51C0F20221482247
:10B97000FDF7ABFBEFF3108005900598019072B6D0
:10B9800040F2C97080470498039900F05FFA029072
:10B9900040F25160804740F60D008047019810B991
:10B9A000FFE762B6FFE7029806B080BD80B584B0BD
:10B9B0000390029103980299FFF786FB8DF8070028
:10B9C0009DF8070028B9FFE70399C8680130C860EF
:10B9D000FFE79DF8070004B080BD000080B504209B
:10B9E00000221146DAF706FD80BD000080B5052073
:10B9F00000221146DAF7FEFC80BD000080B582B05F
:10BA00008DF80600FFE740F6CB50C2F20000007848
:10BA1000042804DCFFE701208DF807001BE0FFE7A6
:10BA20009DF80600FFF780F940F6CB51C2F2000105
:10BA3000042008709DF806304EF23130C0F202202A
:10BA40004EF28351C0F202217D22F6F759F8002010
:10BA50008DF80700FFE79DF8070002B080BD0000E9
:10BA600080B582B040F6CB50C2F2000000780428C6
:10BA70000CD1FFE7FFF7E0F940F6CB51C2F200012D
:10BA80001420087000208DF807000EE04EF2E2301E
:10BA9000C0F202204EF28351C0F20221C922F6F711
:10BAA0002FF802208DF80700FFE79DF8070002B08D
:10BAB00080BD000080B582B0FFE740F6CB50C2F2F7
:10BAC00000000078042804DCFFE701208DF807005F
:10BAD00019E0FFE7FFF782FF40F6CB51C2F2000109
:10BAE000022008704EF2C440C0F202204EF2835190
:10BAF000C0F202216922F6F703F800F04BFB0020A8
:10BB00008DF80700FFE79DF8070002B080BD000038
:10BB100080B582B040F6CB50C2F200000078022817
:10BB20000CD1FFE700F04AFB40F6CB51C2F2000116
:10BB30001220087000208DF807000EE04EF217402A
:10BB4000C0F202204EF28351C0F20221AC22F5F77E
:10BB5000D7FF02208DF80700FFE79DF8070002B02D
:10BB600080BD000080B582B0FFE740F6CB50C2F246
:10BB700000000078042804DCFFE701208DF80700AE
:10BB800015E0FFE740F6CB51C2F200010320087038
:10BB90004EF20450C0F202204EF28351C0F2022154
:10BBA0007322F5F7ADFF00208DF80700FFE79DF841
:10BBB000070002B080BD000080B582B040F6CB50D7
:10BBC000C2F20000007803280AD1FFE740F6CB510B
:10BBD000C2F200011320087000208DF807000EE06B
:10BBE0004EF27140C0F202204EF28351C0F20221A7
:10BBF000BB22F5F785FF02208DF80700FFE79DF8CF
:10BC0000070002B080BD000080B584B00290FFE75D
:10BC100040F6CB50C2F200000078042804DCFFE7B5
:10BC200001208DF80F0027E0FFE7029800F096F959
:10BC30000298023000F082F9FFF7D8FE40F6CB51AF
:10BC4000C2F200010020019008704EF2E440C0F200
:10BC500002204EF28351C0F202215422F5F750FF28
:10BC60004CF29510C0F202204FF4A071F6F712F8D2
:10BC700001988DF80F00FFE79DF80F0004B080BD1C
:10BC800080B582B040F6CB50C2F200000078102898
:10BC90000DD1FFE741F2DC00C2F200000188002074
:10BCA0000090FDF76DFD00988DF8070024E040F648
:10BCB000CB50C2F20000007878B9FFE74EF28A302C
:10BCC000C0F202204EF28351C0F202218822F5F721
:10BCD00017FF01208DF807000EE04EF24440C0F23D
:10BCE00002204EF28351C0F202218C22F5F708FFA8
:10BCF00002208DF80700FFE79DF8070002B080BD25
:10BD000080B582B0FFE740F6CB50C2F20000007869
:10BD1000042804DCFFE701208DF807001DE0FFE7A1
:10BD200040F6CB51C2F20001012008704EF2A4404F
:10BD3000C0F202204EF28351C0F202215E22F5F7DA
:10BD4000DFFE4CF2A140C0F202204FF4A071F5F7E3
:10BD5000A1FF00208DF80700FFE79DF8070002B063
:10BD600080BD000080B582B040F6CB50C2F200002A
:10BD7000007811280DD1FFE741F2DC00C2F200008B
:10BD8000017900200090FDF725FD00988DF807004F
:10BD900025E040F6CB50C2F20000007801280FD118
:10BDA000FFE74EF25F30C0F202204EF28351C0F244
:10BDB00002219922F5F7A4FE01208DF807000EE07C
:10BDC0004EF2B530C0F202204EF28351C0F2022191
:10BDD0009D22F5F795FE02208DF80700FFE79DF8FC
:10BDE000070002B080BD000080B584B002900298C8
:10BDF000FFF7FEF818B9FFE70020039023E01020BA
:10BE000001F0D0FC0190019818B9FFE700200390E1
:10BE100019E0019800900099002088600099C8609E
:10BE2000029800994860029801F0BCFC01900198CA
:10BE300018B9FFE70020039005E001980099086019
:10BE400000980390FFE7039804B080BD01F1010161
:10BE50000847000080B582B08DF807009DF80710F4
:10BE600040F6CB50C2F20000017003784EF22A5027
:10BE7000C0F202204EF28351C0F202213D22F5F7BA
:10BE80003FFE02B080BD000083B002908DF8071025
:10BE90008DF806209DF80610012088400090029839
:10BEA0000068009988439DF807109DF8062091408E
:10BEB00008430299086003B07047000085B0049001
:10BEC00003918DF80B208DF80A309DF80B1001209E
:10BED00088400138019001989DF80A108840C043BD
:10BEE000009004980068009908400399019A114055
:10BEF0009DF80A20914008430499086005B07047F6
:10BF000084B0039002918DF807208DF806309DF8DB
:10BF100007100120884001389DF8061088400090E5
:10BF2000039800680099884302999DF80620914083
:10BF300008430399086004B07047000082B0019084
:10BF4000019800680090009940F68440C2F2000019
:10BF5000C0F84011D0F8400102B0704780B584B0FD
:10BF6000029040F66210ADF8060002990878497810
:10BF700040EA0120ADF804009DF80400C00768B94C
:10BF8000FFE7BDF80400BDF80610884206DBFFE7B6
:10BF9000BDF80400B0F51B6F11DDFFE7BDF80430FC
:10BFA0004EF2E150C0F202204EF25F61C0F2022177
:10BFB000AF22F5F7A5FDFF208DF80F001FE0BDF8BB
:10BFC0000400BDF80610401A40B200EBD0704108E2
:10BFD00040F68440C2F200000090017003784EF2F7
:10BFE000CB50C0F202204EF25F61C0F20221B322B8
:10BFF000F5F786FD009800788DF80F00FFE79DF8B3
:10C000000F0004B080BD000080B582B000F00CF9D4
:10C0100000F064FA43F20060C0F26E104FF4E131B8
:10C020000191FEF7E3FC019800F078FA02B080BDC0
:10C0300080B584B0039002914DF6CF60C0F202202B
:10C040004DF6E661C0F202214F22F5F759FD41F2AB
:10C05000C000C2F200004CF63941C0F20221019149
:10C060004160DEF7E1F80198D9F79AFE002004B0AC
:10C0700080BD000080B58AB0099009986A4603A97E
:10C08000516004A9116040F68441C2F200018B1C8A
:10C0900006A90DF11702E1F704FD08BBFFE740F622
:10C0A0008440C2F2000002304DF61021C0F202219D
:10C0B0000C22FDF743F890B9FFE740F68441C2F245
:10C0C0000001B1F832010130A1F832019DF90C10E4
:10C0D00040F67440C2F20000FEF73EF9FFE706E0CA
:10C0E0004EF22760C0F20220F5F70AFDFFE70AB022
:10C0F00080BD000085B08DF80F008DF80E109DF802
:10C100000F002A2804DBFFE74FF0FF3004903EE0E9
:10C110009DF80F004DF6DC22C0F20222132110FB25
:10C1200001200290002001909DF80E00013800903F
:10C1300002989DF80E10CA08805C01F00702802169
:10C14000D140084204D1FFE74FF0FF3004901EE0D9
:10C15000FFE70098002817D4FFE702980099CA1754
:10C1600001EB5272D210805C01F007028021D140B5
:10C17000084204D0FFE7019801300190FFE7FFE794
:10C18000009801380090E4E701980490FFE70498D4
:10C1900005B0704780B540F68441C2F2000101202D
:10C1A00081F82E014EF21460C0F20220F5F7A8FCCF
:10C1B00000210846FEF75AFF80BD000080B540F61A
:10C1C0008441C2F20001002081F82E014EF201608C
:10C1D000C0F20220F5F794FC80BD0000704700001B
:10C1E00085B084460598CDF810C003910292019362
:10C1F0008DF803009DF8030068B9FFE7039841F24A
:10C20000C801C2F200010860029841F2CC01C2F2FA
:10C2100000010860FFE741F2BC01C2F200010868BA
:10C220000130086005B0704780B584B00320C0F2CB
:10C230002000FDF71DFE0020ADF80E00FFE7BDF861
:10C240000E00072821DCFFE7BDF80E1040F67C4009
:10C25000C2F200000190405C00210291FDF746FC13
:10C260000198BDF80E10405C0121FDF7F9FA019824
:10C270000299BDF80E20805CFDF744FBFFE7BDF896
:10C280000E000130ADF80E00D9E704B080BD00000B
:10C290007047000080B582B001900198002810D44A
:10C2A000FFE7019807280CDCFFE7019800EB80010D
:10C2B00040F6CC50C2F2000000EB8100007C08B9CF
:10C2C000FFE70CE0019800EB800140F6CC50C2F291
:10C2D000000000EB8100416880688847FFE702B0FA
:10C2E00080BD000080B50020FFF7D4FF80BD0000B6
:10C2F00080B50120FFF7CEFF80BD000080B5022091
:10C30000FFF7C8FF80BD000080B50320FFF7C2FF24
:10C3100080BD000080B50420FFF7BCFF80BD000099
:10C3200080B50520FFF7B6FF80BD000080B5062070
:10C33000FFF7B0FF80BD000080B50720FFF7AAFF20
:10C3400080BD000080B586B0049003910292002069
:10C350000190FFE70198072812DCFFE7019800EB46
:10C36000800140F6CC50C2F2000000EB8100007C5E
:10C3700008B9FFE704E0FFE7019801300190E9E721
:10C38000019808280ADBFFE74EF29150C0F2022024
:10C390006121F5F7BFFB0020059030E0029901987C
:10C3A00000EB800240F6CC50C2F2000000EB8202AB
:10C3B00051600399019A02EB820200EB82029160C4
:10C3C000049A02EB52014CF6CD43CCF6CC43A2FBCF
:10C3D000033201EBD201019A02EB820200EB8202EE
:10C3E000D160019901EB810100EB810201211174FF
:10C3F000019901EB810100EB81000590FFE70598B1
:10C4000006B080BD80B584B0039003980290029876
:10C41000006800210191F5F73DFC0198029908742C
:10C4200004B080BD80B582B0019001980090009961
:10C430000868C968F5F72EFC02B080BD80B582B0EF
:10C44000019001980090009800680021F5F722FC07
:10C4500002B080BD80B582B00190FDF751FC02B002
:10C4600080BD000080B54EF26950C0F202204EF24D
:10C470008351C0F202212622F5F742FB40F6CB5051
:10C48000C2F20000007848B9FFE740F6CB51C2F293
:10C49000000110200870FFF7F3FBFFE780BD0000EC
:10C4A00080B54EF24D50C0F202204EF28351C0F2E0
:10C4B00002213222F5F724FB40F6CB50C2F20000F5
:10C4C0000078012809D1FFE740F6CB51C2F2000104
:10C4D00011200870FFF746FCFFE780BD80B584B0EF
:10C4E0000320C0F22200FDF7C3FC1F2001900021B1
:10C4F000FDF7FCFA019901200290FDF7CDFA0198B1
:10C500000299FDF739FA232003901621FDF7EEFA80
:10C5100002990398FDF730FA04B080BD80B588B069
:10C52000079003208DF80800002101918DF8091073
:10C5300001208DF80A008DF80B108DF80C008DF895
:10C540000D008DF80E008DF80F108DF810101021D1
:10C550008DF811108DF8120043F20060C0F26E10D9
:10C5600005900798069041F20000C4F2010002A96C
:10C57000D022FEF7CBF8019A4CF6F921C0F2022145
:10C580000C20F5F761FB4020FFF72EFC014641F23D
:10C59000F000C2F200000160006860B9FFE74EF2EF
:10C5A000CA10C0F202204EF21B31C0F20221562204
:10C5B000F5F7A6FA0BE04EF2EB20C0F202204EF2A5
:10C5C0001B31C0F202215922F5F79AFAFFE708B0B1
:10C5D00080BD000080B586B00590FFE70598FEF7A6
:10C5E00073FC002800F0D581FFE705980DF11301D9
:10C5F000FEF76AFD8DF812009DF8120008B1FFE702
:10C60000C7E141F20B10C2F200000078014602912E
:10C61000082800F2BD810299DFE811F009002B0023
:10C620004E007100A100DE00080154017E010020CF
:10C63000FEF778FC9DF81300452813D1FFE79DF81D
:10C64000130041F2F701C2F20001087041F20B1130
:10C65000C2F200010120087005980DF11301FFF7E7
:10C66000A5F905E005980DF11301FFF79FF9FFE724
:10C670008EE10120FEF756FC9DF813004A2813D1E5
:10C68000FFE79DF8130041F2F701C2F20001487084
:10C6900041F20B11C2F200010220087005980DF161
:10C6A0001301FFF783F906E041F20B11C2F200011A
:10C6B00000200870FFE76BE10220FEF733FC9DF8D5
:10C6C0001300032813D1FFE79DF8130041F2F7018F
:10C6D000C2F20001887041F20B11C2F20001032086
:10C6E000087005980DF11301FFF760F906E041F2BB
:10C6F0000B11C2F2000100200870FFE748E103209F
:10C70000FEF710FC9DF81300092807DBFFE741F254
:10C710000B11C2F200010020087039E19DF81300EE
:10C7200041F2F701C2F20001C8709DF8131041F206
:10C73000F500C2F2000001700078083041F2F60105
:10C74000C2F20001087041F20B11C2F20001042094
:10C75000087005980DF11301FFF728F918E104207E
:10C76000FEF7E0FB9DF81300B12805DBFFE79DF81D
:10C770001300BC2807DBFFE741F20B11C2F20001F6
:10C780000020087004E19DF8130041F2F701C2F2A5
:10C790000001087141F2F401C2F2000100200870AA
:10C7A00041F2F500C2F200000078022807DBFFE743
:10C7B00041F20B11C2F200010520087006E041F2BF
:10C7C0000B11C2F2000106200870FFE705980DF179
:10C7D0001301FFF7EBF8DBE00520FEF7A3FB9DF864
:10C7E000131041F2F400C2F20000027841F2F703A4
:10C7F000C2F200031A4451710178013101700078CE
:10C8000041F2F501C2F2000109780139884207DBE3
:10C81000FFE741F20B11C2F2000106200870FFE7AA
:10C8200005980DF11301FFF7C1F8B1E09DF8131061
:10C8300041F2F400C2F20000027841F2F703C2F2C2
:10C8400000031A445171017801310170007841F2FE
:10C85000F501C2F200010978013188422CDBFFE7C3
:10C8600041F2F400C2F20000017841F2F700C2F296
:10C8700000000A18D178127941EA0221ADF81010AF
:10C88000C1780431FEF77AF8ADF80E00BDF810005B
:10C89000BDF80E10884207D1FFE741F20B11C2F23A
:10C8A00000010720087006E041F20B11C2F20001FE
:10C8B00000200870FFE7FFE705980DF11301FFF76F
:10C8C00075F865E00620FEF72DFB9DF813004E2855
:10C8D0001AD1FFE79DF8130041F2F601C2F2000100
:10C8E000097841F2F702C2F20002114401F8020C89
:10C8F00041F20B11C2F200010820087005980DF1F9
:10C900001301FFF753F806E041F20B11C2F20001E8
:10C9100000200870FFE73BE00720FEF703FB9DF8CF
:10C92000130044281BD1FFE79DF8130041F2F601E4
:10C93000C2F200010091097841F2F702C2F200024E
:10C940000192114401F8010C05980DF11301FFF754
:10C950002DF8009901980978FEF73CFC11E041F2AE
:10C96000F600C2F2000003784EF28420C0F20220EA
:10C970004EF21B31C0F2022140F2F312F5F7C0F87B
:10C98000FFE741F20B11C2F2000100200870FFE73F
:10C9900024E606B080BD000080B584B00390ADF8F9
:10C9A0000A10BDF80A3003980079694608604EF213
:10C9B000B220C0F202204EF21B31C0F202217B22D3
:10C9C000F5F79EF80020ADF80800FFE7BDF8080075
:10C9D000BDF80A1088421CDAFFE7FFE741F20000C9
:10C9E000C4F20100FDF784FE012801D1FFE7F5E75D
:10C9F0000398BDF80810415C41F20000C4F2010048
:10CA0000FDF706FDFFE7BDF808000130ADF80800AE
:10CA1000DCE704B080BD000080B586B005908DF8DD
:10CA2000131003928DF80B300020ADF80800059923
:10CA30004520087005994A2048700599F3208870B0
:10CA40009DF80B0001300599C8709DF813000599F9
:10CA500008719DF80B0001282ADBFFE70398D0B18D
:10CA6000FFE700208DF80700FFE79DF807009DF81D
:10CA70000B1088420EDAFFE703989DF80710405C20
:10CA8000059A11444871FFE79DF8070001308DF8C1
:10CA90000700EAE70BE04EF2A610C0F202204EF2C9
:10CAA0001B31C0F202216F22F5F72AF8FFE7FFE7FA
:10CAB00005989DF80B100531FDF760FFADF80800F3
:10CAC000BDF80800059A9DF80B10114448719DF8B7
:10CAD0000900059A9DF80B101144887105999DF87D
:10CAE0000B0001444E20C87105999DF80B000144CC
:10CAF0004420087206B080BD80B582B0019041F23A
:10CB00000000C4F20100FDF7FBFD00909DF800005D
:10CB1000C006002820D5FFE7FFE741F20000C4F27D
:10CB20000100FDF7DDFD01280ED0FFE741F2F00026
:10CB3000C2F20000006841F20001C4F2010109687C
:10CB4000C9B200F04BF9E8E741F2F000C2F2000090
:10CB50000068FFF73FFD39E09DF80000400600281F
:10CB600020D5FFE7FFE741F20000C4F20100FDF726
:10CB7000B7FD01280ED0FFE741F2F000C2F200003D
:10CB8000006841F20001C4F201010968C9B200F075
:10CB900025F9E8E741F2F000C2F200000068FFF773
:10CBA00019FD12E09DF80000000600280CD5FFE7F3
:10CBB0004EF23B20C0F202204EF21B31C0F20221A5
:10CBC0002B22F4F79DFFFFE7FFE7FFE7009841F214
:10CBD0004401C4F201010860002002B080BD0000E1
:10CBE00080B584B003900291ADF8062003980090C0
:10CBF0000B281ED80099DFE801F006090C0F10136E
:10CC00001C1C1C1C1619FEF721FE13E0FEF7ECFDA0
:10CC100010E0FFF727FC0DE00CE0FEF741FD09E016
:10CC2000FEF778FD06E0FEF793F803E0FEF790F8D4
:10CC300000E0FFE704B080BD80B586B08DF8170036
:10CC4000ADF814100492ADF80E300498FEF792F986
:10CC50008DF80D009DF81700042801D0FFE722E0B1
:10CC60009DF80D0001460191602804D0FFE701986E
:10CC7000FF280CD016E00498FDF7B6FD022801D07D
:10CC8000FFE710E0FEF7E0F8FEF780FD0BE0049808
:10CC9000FEF776F90290029A106851681289FFF740
:10CCA0009FFF00E0FFE706B080BD000080B586B0C2
:10CCB00004900391029204980399029A00F018F8E4
:10CCC0000190019818B1FFE7019805900CE00498D5
:10CCD0000399029AFCF732FA002818BF012040009D
:10CCE000019001980590FFE7059806B080BD00000F
:10CCF00080B58AB0079006910592079820F0FF0052
:10CD000000F58070049000200390FFE703980599D8
:10CD1000884211D2FFE70798039A805C0699895CE4
:10CD20000840884203D0FFE70120089042E0FFE777
:10CD3000039801300390E9E7EFF310800990099818
:10CD4000029072B640F2C9708047FFE7059818B3A9
:10CD5000FFE704980799401A0190019805998842C5
:10CD600003D3FFE705980190FFE707980699019A1A
:10CD700043F6D743984701990798084407900199CB
:10CD800006980844069001990598401A0590049861
:10CD900000F580700490D9E740F25160804740F67A
:10CDA0000D008047029810B9FFE762B6FFE7002048
:10CDB0000890FFE708980AB080BD000080B582B0F7
:10CDC000FDF72EFD019041F24B20C0F2002001A999
:10CDD0000422FFF76BFF02B080BD000084B0029018
:10CDE0008DF80710029880680299C968401A00906F
:10CDF000009802994968884204D3FFE704208DF81F
:10CE00000F0011E09DF80700029A11689268029BDA
:10CE10005B68013B1A408854029988680130886039
:10CE200000208DF80F00FFE79DF80F0004B0704759
:10CE30000FB4054B10B503A9044A029800F0EEF8B0
:10CE400010BC5DF814FB0000DDAC0202680C002091
:10CE50000FB4084B10B504A902AA039800F0DEF83D
:10CE6000044602A9002000F070FC204610BC5DF8CA
:10CE700014FB00004BD7020202E008C8121F08C1D1
:10CE8000002AFAD170477047002001E001C1121F4B
:10CE9000002AFBD1704700002DE9FF5F82B000211E
:10CEA000DDE90430020DDDF840B0034318D044F64C
:10CEB0001050A2F2FF3242431514119801281FD0DE
:10CEC000A5EB0B00401C5FEA000A4FF000064E4F36
:10CED000DFF83891B046504615D5CAF1000413E08A
:10CEE000119801244AA3012801D16FEA0B0102988D
:10CEF000119AC0E90031C0E9024206B0BDE8F09FD6
:10CF0000CBF10000DFE704460021404A491842EB1C
:10CF10000450CDE9001012E0E00707D032463B464E
:10CF200040464946FCF7C7F98046894632463B46AB
:10CF300010461946FCF7BFF906460F466410002C50
:10CF4000EAD1DDE90401DDE90023BAF1000F06DAD8
:10CF5000FCF7B1F942464B46FCF7ADF905E0FCF7AA
:10CF60001CFA42464B46FCF718FA04460E460022CD
:10CF7000284BFCF73DFB03D84FF0FF30014607E09C
:10CF80000022254B20463146FCF7EEF8FCF718FB53
:10CF9000102409E0002C0ADB0A220023FCF764F8C5
:10CFA000039B30321A55641E50EA0102F2D1641C10
:10CFB000039AC4F111031444119A012A03D00122E7
:10CFC00008430DD10AE0084304D000204FF0110BB4
:10CFD000119072E7A3EB0B056D1E0DE05B4504DDC0
:10CFE0004FF0000205F1010504E003DA4FF0000202
:10CFF000A5F10105002AECD002981199C0E902318F
:10D00000C0E9004579E70000000014400000F03F4F
:10D01000300000000000F0430000E03F2DE9FF4F2A
:10D0200095B09B468946064600250FE2252877D114
:10D0300000242746F84A0121059400E0044316F82D
:10D04000013F203B01FA03F01042F7D130782A2843
:10D0500011D06FF02F033078A0F13002092A16D8D2
:10D06000059A44F0020402EB820203EB42021044F0
:10D07000761C0590EFE759F8042B0592002A03DA95
:10D08000504244F40054059044F00204761C307879
:10D090002E2816D116F8010F44F004042A280DD0CA
:10D0A0006FF02F023078A0F13003092B09D807EB7D
:10D0B000870302EB4303C718761CF3E759F8047B98
:10D0C000761C30786C280FD006DC4C2817D06828E6
:10D0D0000DD06A2814D104E0742810D07A280FD11A
:10D0E0000DE044F400140AE044F4801401E044F438
:10D0F00040147278824202D104F58014761C761CAA
:10D10000307866280BD013DC582877D009DC00284B
:10D1100075D04528F6D04628F4D047281AD19DE18D
:10D1200018E0632835D0642879D0652812D195E1BC
:10D13000702873D008DC6728F1D069286FD06E287A
:10D140000DD06F2806D1B5E073282CD0752875D086
:10D15000782874D05A46179990476D1C75E1C4F32E
:10D160000250022809D003280DD0D9F80010042855
:10D170000DD00D6009F1040967E1D9F80010EA1734
:10D18000C1E90052F6E7D9F800100D80F2E70D7002
:10D19000F0E719F8041B8DF8001000208DF801004D
:10D1A000EA46012003E059F804AB4FF0FF30610775
:10D1B0004FF0000102D40DE008F101018846B942A8
:10D1C0000FDA8045F8DB1AF808100029F4D108E0DE
:10D1D00008F1010188468142FADB1AF8081000299B
:10D1E000F6D105985B46A0EB080721463846179A0A
:10D1F00000F094FA284400EB080507E04DE029E12F
:10D200000DE01AF8010B5A4617999047B8F101083A
:10D21000F7D25B4621463846179A13E142E00A22CC
:10D220000092C4F302524FF0000A022A08D059F8C3
:10D2300004CB032A4FEAEC710AD00DE029E02AE082
:10D2400009F1070121F00702F2E802C1914609E065
:10D250000FFA8CFC4FEAEC71042A03D14FFA8CFCD4
:10D260004FEAEC71002907DA0A460021DCF1000CD4
:10D2700061EB02012D2202E0220504D52B228DF85C
:10D280000420012203E0E20701D02022F7E79046C4
:10D2900059E00A2102E010220DE010214FF0000AAF
:10D2A00000910BE010224FF0000A44F0040408271C
:10D2B000009203E008224FF0000A0092C4F30252E9
:10D2C000022A05D059F804CB0021032A08D009E02E
:10D2D00009F1070121F00702F2E802C1914605E0D9
:10D2E0001FFA8CFC042A01D10CF0FF0C4FF000084F
:10D2F000220728D5702806D0009B83F0100353EA3C
:10D300000A0305D00EE040228DF80420012208E037
:10D310005CEA010206D030228DF804208DF8050069
:10D3200002229046009B83F0080353EA0A030AD1C5
:10D330005CEA010201D1620705D530228DF8042094
:10D340004FF001087F1E582804D034A003900EA887
:10D3500002900DE036A0F9E753466046009AFBF7CD
:10D3600083FE84460398825C0298401E02900270FD
:10D370005CEA0100F0D1029806A9081A00F1200A1F
:10D38000600702D524F4803400E00127574502DD10
:10D39000A7EB0A0000E0002000EB0A0100900598CE
:10D3A0004144401A0590E00306D45B462146179A93
:10D3B000059800F0B3F90544002706E001A85A4695
:10D3C000C05D179990476D1C7F1C4745F6DBE00355
:10D3D0000CD55B462146179A059800F09FF9054445
:10D3E00004E030205A46179990476D1C0099481E5A
:10D3F00000900029F5DC08E0029802995A4600786E
:10D40000491C0291179990476D1CBAF10001AAF1CD
:10D41000010AF1DC65E100000928010030313233F6
:10D420003435363738396162636465660000000060
:10D43000303132333435363738394142434445464A
:10D440000000000000F058F90544761C30780028F0
:10D450007FF4ECAD19B02846BDE8F08F620700D428
:10D46000062709F1070222F0070CFCE80223E14637
:10D4700003F000485FEA080C02D00FF2702C0DE0B8
:10D480005FEA045C02D50FF2682C07E05FEAC47C17
:10D4900002D00FF2602C01E0AFF2700C4FF0FF38B9
:10D4A00023F00043CDF850C065280CD006DC452899
:10D4B00009D046281DD047283DD13DE0662818D028
:10D4C00067287ED138E00021112F01DB112000E018
:10D4D000781CCDE9000106A90EA8FFF7DDFCDDE907
:10D4E0000F010E9A03910021009207F1010A0491A5
:10D4F0004DE04FF000400097CDE9011006A90EA8BD
:10D50000FFF7CAFCDDE90F0203920E9B119900227E
:10D51000DDF80CA00093049211B9791C00EB010A0C
:10D52000B7EB0A0004D4C0F1FF3007F1010A049000
:10D53000AAEB0700019044E0012F00DA0127002147
:10D54000112F01DD112000E03846CDE9000106A9C8
:10D550000EA8FFF7A1FCDDE90F010E9A039100214F
:10D5600004910092BA4621070CD40399514500DA80
:10D570008A46BAF1010F05DD009AAAF10101515C5A
:10D58000302908D0B84202DA10F1040F06DA01217E
:10D59000CDE9011015E0AAF10101E9E7002805DC59
:10D5A000049901440491AAEB000102E0411C514599
:10D5B00000DD8A460499401A401C01904FF000405B
:10D5C0000290200704D40198504501DBCDF8048077
:10D5D00000208DF84F0002980DF14F07B0F1004F79
:10D5E00025D02B200E9002984FF0020800280CDA6C
:10D5F000404202902D200E9007E00A210298FBF78E
:10D600003BFF3031029007F8011DB8F10001A8F18D
:10D610000108F2DC02980028EFD1791E0E980870FC
:10D62000307800F0200040F0450007F8020D12A805
:10D63000C01B00F107081498007800B1012000EB2E
:10D640000A01019801EBE07105984144401A401E1F
:10D650000590E00306D45B462146179A059800F032
:10D660005DF805441498007818B15A461799904708
:10D670006D1CE00324D55B462146179A059800F0FF
:10D680004DF805441CE00498002807DBDDE90301A0
:10D69000884203DD0098405C179901E0179930201B
:10D6A0005A469047049805F10105401C04900198E2
:10D6B000401E019004D12E205A46179990476D1CA8
:10D6C000BAF10001AAF1010ADDDC05E017F8010B4F
:10D6D0005A46179990476D1CB8F10001A8F101084E
:10D6E000F4DC5B462146179A0598ABE62D00000056
:10D6F0002B000000200000002DE9F0410446002529
:10D700001E461746880404D405E039462020B04759
:10D710006D1C641EF9D52846BDE8F0812DE9F04165
:10D72000044600251E469046C80301D5302700E078
:10D730002027880404D505E041463846B0476D1CD3
:10D74000641EF9D52846BDE8F0810A68531C0B60B9
:10D750001070704710B5002821D0114B0022001F17
:10D76000196803E0814203D80A4649680029F9D1C3
:10D7700052B11368841A9C4204D1006818441060A6
:10D78000104602E0506000E0186039B102680B1AE0
:10D79000934203D10B681A4402604968416010BD8E
:10D7A0006C0C0020F0B50B30154D20F00701002463
:10D7B000144A0FE003688B420BD38B4205D95E1AE3
:10D7C00043184768C3E9006700E04368136002C07C
:10D7D00004E0021D10680028ECD12046002802D188
:10D7E000286808B10020F0BD064A07481060074AC3
:10D7F000121A22F00702C0E9002401202860D7E7AE
:10D80000700C00206C0C00201411002098240020C3
:10D8100000C1814001C0804101C0804100C1814000
:10D8200001C0804100C1814000C1814001C08041F0
:10D8300001C0804100C1814000C1814001C08041E0
:10D8400000C1814001C0804101C0804100C18140D0
:10D8500001C0804100C1814000C1814001C08041C0
:10D8600000C1814001C0804101C0804100C18140B0
:10D8700000C1814001C0804101C0804100C18140A0
:10D8800001C0804100C1814000C1814001C0804190
:10D8900001C0804100C1814000C1814001C0804180
:10D8A00000C1814001C0804101C0804100C1814070
:10D8B00000C1814001C0804101C0804100C1814060
:10D8C00001C0804100C1814000C1814001C0804150
:10D8D00000C1814001C0804101C0804100C1814040
:10D8E00001C0804100C1814000C1814001C0804130
:10D8F00001C0804100C1814000C1814001C0804120
:10D9000000C1814001C0804101C0804100C181400F
:10D9100000C0C101C30302C2C60607C705C5C404CF
:10D92000CC0C0DCD0FCFCE0E0ACACB0BC90908C83F
:10D93000D81819D91BDBDA1A1EDEDF1FDD1D1CDC2F
:10D9400014D4D515D71716D6D21213D311D1D0109F
:10D95000F03031F133F3F23236F6F737F53534F48F
:10D960003CFCFD3DFF3F3EFEFA3A3BFB39F9F838FF
:10D9700028E8E929EB2B2AEAEE2E2FEF2DEDEC2CEF
:10D98000E42425E527E7E62622E2E323E12120E05F
:10D99000A06061A163A3A26266A6A767A56564A44F
:10D9A0006CACAD6DAF6F6EAEAA6A6BAB69A9A868BF
:10D9B00078B8B979BB7B7ABABE7E7FBF7DBDBC7CAF
:10D9C000B47475B577B7B67672B2B373B17170B01F
:10D9D000509091519353529296565797559594540F
:10D9E0009C5C5D9D5F9F9E5E5A9A9B5B995958987F
:10D9F000884849894B8B8A4A4E8E8F4F8D4D4C8C6F
:10DA000044848545874746868242438341818040DE
:10DA1000524157205041434B455420230000000001
:10DA200045C3020225C402023DC4020205C402022B
:10DA3000E1C10202CDB5020259B60202FDB50202F1
:10DA4000BDAA0202D5AA0202CDAA0202A5D70202ED
:10DA500055D70202E1AA020219B0020235B0020251
:10DA600091C20202DDC1020231B10202C9A8020262
:10DA70000000000031C002020000000000000000B1
:10DA80000000000000000000000000000000000096
:10DA90000000000055A802020000000035A80202A4
:10DAA0000000000061B0020200000000ADA8020208
:10DAB00000000000FDA80202E810002000000000A5
:10DAC0000000000000000000000000000000000056
:10DAD000000000000000000000000000FFFFFFFA4F
:10DAE000AAAA48C000020FFFFFFF00000387E0FF63
:10DAF000FFFFF5555524A000010FFFFFFE80000336
:10DB0000A7E0FFFFFFFAAAA8909000008FFFFFFE9A
:10DB100040000397E0FFFFFFF55556488800004F8F
:10DB2000FFFFFE200003C7E0FFFFFFFAAAA926843B
:10DB300000002FFFFFFE10000387E0FFFFFFF555F9
:10DB400054928200001FFFFFFE0800038FE0FFFFDA
:10DB5000FFFAAAAA4A8100020FFFFFFE0400038712
:10DB6000E0FFFFFFF55555268080010FFFFFFE0205
:10DB70000003A7E0FFFFFFFAAAA8928040008FFFF2
:10DB8000FFFE01000397E0FFFFFFF555564A802096
:10DB9000004FFFFFFE008003C7E0FFFFFFFAAAA9C6
:10DBA000268010002FFFFFFE00400387E0FFFFFFED
:10DBB000F55554918008001FFFFFFE0020038FE001
:10DBC000FFFFFFFAAAAA498004000FFFFFFE001022
:10DBD0000387E0FFFFFFF55555258002000FFFFF8B
:10DBE000FE00080387E0FFFFFFFAAAA8918001006A
:10DBF0000FFFFFFE00040387E0FFFFFFF5555649C6
:10DC00008000800FFFFFFE00021387E0FFFFFFFA96
:10DC1000AAA9258000400FFFFFFE00010B87E0FF4F
:10DC2000FFFFF55554918000240FFFFFFE00008791
:10DC300087E0C800000000000000000001000000B4
:10DC40000000000000D00000000000000000000202
:10DC50000000000000000000C40000000000000000
:10DC60000000008000000000000000FFFFFFFAAA93
:10DC7000AA488000100FFFFFFE00004387E0FFFF6F
:10DC8000FFF55555248000080FFFFFFE0000238795
:10DC9000E0C00000000000004000000000000100A3
:10DCA00000000000C0000000000000200000000094
:10DCB00000008000000000C0000000000000100014
:10DCC00000000000004000000000C2000000000052
:10DCD00000000000004000000000000000C1000043
:10DCE0000000000000000000200000000000000014
:10DCF000C0800000000000000000001000000000D4
:10DD0000000000C00000000000000800000000004B
:10DD1000002000000000C00000000000000400001F
:10DD2000000000001000000000FFFFFFFAAAA8900A
:10DD30008200000FFFFFFE08000387E0C000000024
:10DD4000000000010000000000000400000000C00E
:10DD50000000000000000080000000000002000041
:10DD60000000FFFFFFF555564B8040000FFFFFFE00
:10DD700001000387E0FFFFFFFAAAA9278020000F18
:10DD8000FFFFFE00800387E0C000000000000000ED
:10DD90001000000000000040000000C00000000073
:10DDA0000000000800000000000020000000C0008B
:10DDB000000000000000040000000000001000004F
:10DDC00000C0000000000000000200000000000091
:10DDD00008000000C000000000000000010000007A
:10DDE00000000004000000C000000000000000006F
:10DDF0008000000000000200000080B582B00190A9
:10DE00001421C4F215010868022262F3524008602E
:10DE10000421C4F215010868042262F3102008608E
:10DE20000198000248300021C4F21501086040F654
:10DE30006D3080471020C4F21500006802B080BD2C
:10DE40000000484152444641554C543A0A50432040
:10DE50003A203078253038580A4C52203A20307811
:10DE6000253038580A5053523A20307825303858E7
:10DE70000A5230203A203078253038580A52312062
:10DE80003A203078253038580A5232203A203078FB
:10DE9000253038580A5233203A2030782530385807
:10DEA0000A5231323A203078253038580A005B4F18
:10DEB0004F4D5D20402025640A005B41535345527D
:10DEC00054494F4E5D20402025733A25640A005B7B
:10DED00025733A25645D2073657475702070726FC8
:10DEE00066696C650A007372632F70726F66696C85
:10DEF000652E63005B4552525D20496E76616C6908
:10DF000064204750494F2070696E20696E646578BF
:10DF10002025640A005B25733A25645D205458204F
:10DF2000706F7765722074657374206661696C65C3
:10DF3000642E0A005B25733A25645D204672657184
:10DF400075656E6379206F6666736574207465739A
:10DF500074206661696C65642E0A005B25733A253E
:10DF6000645D20525820636F756E742074657374FD
:10DF7000206661696C65642E0A005B25733A25642E
:10DF80005D20545820636F756E742074657374201F
:10DF90006661696C65642E0A005B25733A25645DD1
:10DFA0002052582073656E7369746976697479209C
:10DFB00074657374206661696C65642E0A005B2564
:10DFC000733A25645D20545820706F776572207411
:10DFD00065737420636F6D706C6574656420737510
:10DFE000636365737366756C6C792E0A005B2573C9
:10DFF0003A25645D204672657175656E6379206FA0
:10E000006666736574207465737420636F6D706CDD
:10E0100065746564207375636365737366756C6C92
:10E02000792E0A005B25733A25645D2052582063DF
:10E030006F756E74207465737420636F6D706C659A
:10E04000746564207375636365737366756C6C794E
:10E050002E0A005B25733A25645D20545820636FB7
:10E06000756E74207465737420636F6D706C657465
:10E070006564207375636365737366756C6C792E64
:10E080000A005B25733A25645D2052582073656E43
:10E090007369746976697479207465737420636F29
:10E0A0006D706C6574656420737563636573736606
:10E0B000756C6C792E0A005B25733A25645D2054DB
:10E0C0005820706F77657220746573742073746163
:10E0D00072746564207375636365737366756C6CC5
:10E0E000792E0A005B25733A25645D2046726571BE
:10E0F00075656E6379206F666673657420746573E9
:10E1000074207374617274656420737563636573DE
:10E110007366756C6C792E0A005B25733A25645D15
:10E1200020525820636F756E742074657374207369
:10E130007461727465642073756363657373667567
:10E140006C6C792E0A005B25733A25645D20545867
:10E1500020636F756E7420746573742073746172BC
:10E16000746564207375636365737366756C6C792D
:10E170002E0A005B25733A25645D20525820736592
:10E180006E73697469766974792074657374207329
:10E190007461727465642073756363657373667507
:10E1A0006C6C792E0A005B25733A25645D205B4513
:10E1B00052524F525D6275666665725F646174614A
:10E1C000206973204E554C4C0A005B25733A256438
:10E1D0005D205B4552524F525D204661696C65641B
:10E1E00020746F20696E697469616C697A65205565
:10E1F00041525420445554204649464F0A005B255D
:10E20000733A25645D205B4552524F525D20556E36
:10E210006B6E6F776E20636F6D6D616E643A202553
:10E220003032580A0052582073656E7369746976EB
:10E230006974792069732025640A005B25733A2587
:10E24000645D2055415254204552524F522069730B
:10E25000720A005B25733A25645D205B4455545D6A
:10E26000526563656976656420636F6D706C657473
:10E2700065207061636B65743A202564206279744F
:10E2800065730A005B25733A25645D2052656365FA
:10E290006976656420696E636F6D706C6574652066
:10E2A0007061636B65743A202564206279746573CC
:10E2B0000A005B25733A25645D205B554152545D2D
:10E2C0003A53656E64696E67205541525420445537
:10E2D0005420636F6D6D616E643A2025642062790D
:10E2E0007465732C20307825780A005B25733A25F5
:10E2F000645D205541525420445554204649464FB0
:10E3000020696E697469616C697A656420737563EC
:10E310006365737366756C6C790A007372632F752D
:10E320006172745F676F6C64656E5F4455542E63F1
:10E33000005B25733A25645D20426567696E20465F
:10E3400072657175656E6379204F666673657420BA
:10E35000746573742063683A25642E2E2E0A005B60
:10E3600025733A25645D20545820706F77657220BC
:10E3700074657374206973207374696C6C20727592
:10E380006E6E696E672E2E2E0A005B25733A256429
:10E390005D20545820636F756E742074657374200B
:10E3A0006973207374696C6C2072756E6E696E6728
:10E3B0002E2E2E0A005B25733A25645D20545820CA
:10E3C000706F7765722074657374206973206E6F47
:10E3D000742073746172746564207965742E2E2EB6
:10E3E0000A005B25733A25645D2046726571756588
:10E3F0006E6379206F66667365742074657374202C
:10E400006973206E6F74207374617274656420790F
:10E4100065742E2E2E0A005B25733A25645D20520A
:10E420005820636F756E742074657374206973204F
:10E430006E6F742073746172746564207965742ED4
:10E440002E2E0A005B25733A25645D205458206304
:10E450006F756E742074657374206973206E6F74A9
:10E460002073746172746564207965742E2E2E0A8F
:10E47000005B25733A25645D2052582073656E73E6
:10E48000697469766974792074657374206973207E
:10E490006E6F742073746172746564207965742E74
:10E4A0002E2E0A005B25733A25645D20426567695C
:10E4B0006E20545820506F77657220746573742EE7
:10E4C0002E2E0A005B25733A25645D20426567693C
:10E4D0006E20525820636F756E7420746573742EAD
:10E4E0002E2E0A005B25733A25645D20426567691C
:10E4F0006E20545820636F756E7420746573742E8B
:10E500002E2E0A005B25733A25645D2042656769FB
:10E510006E2052582053656E7369746976697479F8
:10E5200020746573742E2E2E0A005B25733A2564C1
:10E530005D20445554207465737420737461746550
:10E540002073657420746F3A2025640A005B25737C
:10E550003A25645D20547820706F77657220746569
:10E560007374206F7665720A005B25733A25645DCB
:10E5700020547820636E742074657374206F766500
:10E58000720A007372632F72665F746573742E6310
:10E59000006E6F6F735F696D706C2E63005B257327
:10E5A0003A25645D204348494431204953203A20AC
:10E5B00025640A005B25733A25645D20434849447D
:10E5C00032204953203A2025640A005B25733A25FE
:10E5D000645D2043484944204953203A2025640A79
:10E5E000005B25733A25645D20496E76616C696431
:10E5F000206368616E6E656C2049443A2025640A88
:10E60000005261772054782F52782073746F7070A5
:10E6100065640A005261772054782F527820737411
:10E6200061727465640A005278206572726F720AB2
:10E63000005B25733A25645D2041444452312049F2
:10E6400053203A2025780A005B25733A25645D2023
:10E650004144445232204953203A2025780A00731D
:10E6600072632F7261775F706B742E630052415733
:10E67000205041434B455420232564005B25733AC9
:10E6800025645D20467265712074756E6520746F17
:10E690003A25642E2E2E0A005B25733A25645D20F0
:10E6A0004672657175656E6379206F666673657411
:10E6B00020746573742066696E69736865642E0AD8
:10E6C000005B25733A25645D204652455120526116
:10E6D00077207061636B65742073656E7420737549
:10E6E000636365737366756C6C792E0A005B2573C2
:10E6F0003A25645D204572726F7220465245512062
:10E7000073656E64696E6720726177207061636BF8
:10E7100065743A2025640A007372632F667265710E
:10E720005F6F66667365742E6300534547474552B5
:10E7300000525454005465726D696E616C000000A3
:10E7400060E70202680C0020080200002096020226
:10E75000B8E70202700E0020281A000088CE0202DC
:10E7600001110EFFCDCC4C3F13141516171A1B1CAC
:10E770000A01327358023388132940420F00D6BE73
:10E78000898E0811011D15E5C202020511F1C202B0
:10E79000020511FDC20202051109C302020511158D
:10E7A000C30202051121C3020205112DC302020595
:08E7B0001539C302020000004C
:04000005020290095A
:00000001FF
