:020000040002F8
:10600000383900201D600200DFF80CD000F01AF8CB
:10601000004800472D6002003839002002B5EFF338
:10602000088181F30988054800470000044880473B
:10603000EFF3098181F3088802BD0000456002008A
:1060400095670200064C074D06E0E06840F001034A
:1060500094E8070098471034AC42F6D3FFF7D8FF16
:10606000888B0200A88B020010B5431A934209D214
:106070008318881803E010F8011D03F8011D521E53
:10608000F9D210BD40EA01039B0703D009E008C91B
:10609000121F08C0042AFAD203E011F8013B00F8ED
:1060A000013B521EF9D210BDD2B201E000F8012B23
:1060B000491EFBD270470022F6E710B513460A4688
:1060C00004461946FFF7F0FF204610BD034611F8BD
:1060D000012B00F8012B002AF9D1184670472DE951
:1060E000F0410E460546002400E0641C285D00F0E7
:1060F0000BF80746305D00F007F8381A02D1295D29
:106100000029F2D1BDE8F081A0F14101192900D8A0
:106110002030704730B58C1810F8012B12F00F03A7
:1061200001D110F8013B120906D110F8012B03E050
:1061300010F8015B01F8015B5B1EF9D101E001F889
:10614000013B521EFBD1A142E6D3002030BD00002E
:1061500083B002908DF807108DF806209DF8071087
:1061600001208840009002980068009988439DF8BB
:1061700006109DF80720914008430299086003B07B
:106180007047000080B582B08DF807008DF80610CA
:106190009DF80600032819D0FFE79DF807109DF829
:1061A0000620002A18BF01222020C4F20000FFF7B9
:1061B000CFFF9DF807109DF806000138B0FA80F077
:1061C00042094FF04020FFF7C3FF0FE09DF8071092
:1061D0002020C4F200000022FFF7BAFF9DF807104C
:1061E0004FF040200122FFF7B3FFFFE702B080BD70
:1061F00080B582B08DF807008DF806109DF8071065
:106200009DF806201020C4F20000FFF7A1FF02B0A5
:1062100080BD000084B003908DF80B108DF80A202B
:1062200003980021C4F20701084401909DF80B1067
:106230003F208840009001980068009988439DF8AD
:106240000A109DF80B20914008430199086004B0A2
:106250007047000080B582B08DF807008DF80610F9
:106260009DF80710002918BF12219DF80620542020
:10627000FFF7D0FF02B080BD83B08DF80B008DF822
:106280000A109DF80B107C2000EA51004421C4F252
:106290000701084401909DF80B0000F00700800002
:1062A0008DF80300019800689DF803200F219140AC
:1062B00088439DF80A109140084301990860002026
:1062C00003B0704780B582B00190019800EB4001A7
:1062D00042F69070C2F2000000EBC100183000F0EE
:1062E000E3F802B080BD000080B500F095F880BDF5
:1062F00080B586B0059004910392FFE742F6907056
:10630000C2F20000007818B9FFE700F085F8FFE757
:10631000FFE7EFF311804FF0200181F31188019026
:1063200005980499039A00F007F80290019880F309
:106330001188029806B080BD80B58AB00990089196
:10634000079208980490099800EB400142F690707B
:10635000C2F2000000EBC1001830039003984069BE
:10636000029040B1FFE70298012819D0FFE7029898
:1063700002282CD032E0039800F096F8059005989A
:106380000799884203D2FFE70020069007E00798AC
:10639000069003980499079A00F014F9FFE720E0AB
:1063A000039800F081F8059005980799884203D278
:1063B000FFE70598019002E007980190FFE7019838
:1063C000069003980499069A00F0FCF809E00398F7
:1063D0000499079A00F088F8069002E000200690E1
:1063E000FFE706980AB080BD81B00090009A0421B2
:1063F000C4F2070108681043086001B0704700004C
:106400000020704782B001908DF803109DF80300C2
:106410000199086002B0704780B582B042F6907072
:10642000C2F20000019001990120086101994861C0
:10643000019848F67831C0F202018161019A42F672
:10644000E870C2F20000D061019A4FF4FA70106255
:10645000019A00209062019A5062019AD062019ADA
:106460001163019A42F6D871C2F200015163019A98
:1064700010219163019908640199C86301994864E6
:106480000198073048F67431C0F20201FFF71EFE92
:10649000019848F66D31C0F20201FFF717FE01992D
:1064A0002020887102B080BD84B0039003980069F9
:1064B00002900398C068019002980199884209D817
:1064C000FFE7039880680199401A0299084401384F
:1064D000009005E002990198C04308440090FFE74E
:1064E000009804B07047000080B58AB00990089108
:1064F0000792002005900998C0680390FFE709986B
:106500000069049004980399884206D9FFE704992A
:106510000398C0430844069008E0099881680398EE
:10652000049A801AC04308440690FFE70698099928
:106530008968039A891A884203D2FFE70698029075
:1065400005E0099880680399401A0290FFE70298D5
:10655000069006980799884203D2FFE706980190B3
:1065600002E007980190FFE70198069009984068BB
:10657000039908440899069AFFF776FD069905984D
:1065800008440590069908980844089006990798C9
:10659000401A0790069903980844039003980999B4
:1065A0008968884203D1FFE700200390FFE7039842
:1065B0000999C860FFE707980028A0D1FFE7059870
:1065C0000AB080BD80B586B005900491039205980D
:1065D000C0680190059880680199401A0090009861
:1065E000039988420ED9FFE705984068019908444D
:1065F0000499039AFFF738FD019803990844059917
:10660000C86019E000980290059840680199084414
:106610000499029AFFF728FD03980099401A029006
:10662000059840680499009A1144029AFFF71CFDEE
:1066300002980599C860FFE706B080BD87B0059055
:10664000049103920498C0000399B0FBF1F002900A
:106650000298C009019001990298A0EBC110029024
:106660000298013040080090019805994862BDF8F1
:10667000060018B9FFE7019820B9FFE74FF0FF3097
:10668000069018E001984FF6FF71884204D1FFE7A9
:1066900005990020886207E001990298401A02904B
:1066A000009805998862FFE70598C06A0599C86255
:1066B00000200690FFE7069807B0704781B0009071
:1066C00000988069C0F3001001B0704781B000905D
:1066D00000988069C0F3401001B0704781B000900D
:1066E0000098C06B01B0704780B584B002900191F2
:1066F0000092029900200863029948640299886315
:106700000299486002994862029988620299C862B7
:106710000298019AD1681269FFF790FF20B1FFE754
:106720004FF0FF30039031E0019890F800C04178BD
:106730008378C278802000EA411040EA4C1040EA99
:10674000031040EAC20001F0030140EA410002994F
:10675000C8620198B0F8090040BA029948630098ED
:10676000029988630199087991F805C08B79CA79F3
:10677000400240EA0C20184440EAC230097A40EA5C
:1067800081300299086300200390FFE7039804B06A
:1067900080BD000080B582B0FFF732FE00F0B0FA95
:1067A00000F092FE47F24142C0F2020241F20000C4
:1067B000C4F202000021019101F066FB00F056FCDA
:1067C00048F67800C0F20200F9F7D8FB00F020FC90
:1067D00043F23640C2F2000000F0B8FD01990220F9
:1067E000F9F70AFA00F070FB02B080BD80B584B002
:1067F00003900291ADF8062003984088BDF806107A
:106800000844B0F5807F04D9FFE703990020488051
:10681000FFE703984088BDF806100844B0F5807F74
:1068200010D8FFE703984188084404300299BDF866
:106830000620FFF719FCBDF806200399488810448C
:106840004880FFE704B080BD80B584B084460698D8
:10685000ADF80EC0ADF80C10ADF80A200193ADF8FC
:106860000200002004B080BD80B583B08446069845
:10687000DDF814E0ADF80AC0ADF80810ADF8062058
:10688000ADF80430ADF80200002003B080BD000078
:1068900081B000900098807801B0704780B582B0D8
:1068A000019001987C21FFF706FC02B080BD00003A
:1068B00080B582B00190009101980168426848F665
:1068C0006310C0F20200F9F7ADFAFFE7FEE700003F
:1068D00070B588B007900691DDF81CC0CDF814C0E3
:1068E000DCF81810DCF81420DCF81C30DCF80000B0
:1068F000DCF804E0DCF80840DCF80C50DCF8106050
:10690000EC46CCF81060CCF80C50CCF80840CCF831
:1069100004E0CCF8000048F6EB00C0F20200F9F702
:1069200081FAFFE7FEE7000080B582B00190009198
:10693000019948F65710C0F20200F9F773FAFFE721
:10694000FEE7000080B582B001900091FFE70020D3
:10695000C4F20200FFF7BAFE012801D1FFE7F6E713
:10696000019801780020C4F20200FFF74BFD0020DF
:1069700002B080BD80B586B0059004914EF60450FB
:10698000CEF2000000686FF35F20B0FA80F040099B
:106990008DF80B009DF80B0028B1FFE7F9F702FA1C
:1069A000406B8047FFE70020FFF78CFC03900599C0
:1069B000088949890844039988420EDAFFE7059857
:1069C0000168028900200190FFF792FC0198059A66
:1069D00051685289FFF78CFCFFE79DF80B0028B146
:1069E000FFE7F9F7DFF9806B8047FFE7002006B08B
:1069F00080BD000083B00290ADF80610FF208DF836
:106A000005008DF80400FFE7BDF80600411EADF853
:106A10000610F8B1FFE79DF8050002994A1C0292A2
:106A2000097848408DF803009DF804009DF8032084
:106A300048F2DA31C0F20201895C48408DF8050065
:106A40009DF8031048F2DA50C0F20200405C8DF865
:106A50000400D9E79DF805109DF8040040EA0120E4
:106A600003B0704783B00290ADF80610FF208DF898
:106A700005008DF80400FFE7BDF80600411EADF8E3
:106A80000610F8B1FFE79DF8050002994A1C029232
:106A9000097848408DF803009DF804009DF8032014
:106AA00048F2DA41C0F20201895C48408DF80500E5
:106AB0009DF8031048F2DA60C0F20200405C8DF8E5
:106AC0000400D9E79DF805109DF8040040EA012074
:106AD00003B0704780B582B00190052001F06CFBD7
:106AE00002B080BD80B582B00190042001F064FB4B
:106AF00002B080BD80B582B0019048F67620C0F229
:106B00000200F9F78FF900F039F9014643F29820B5
:106B1000C2F20000016001208870022001F04CFBED
:106B200002B080BD80B582B00190032001F044FB2B
:106B300002B080BD80B582B00190062001F03CFB20
:106B400002B080BD80B582B00190072001F034FB17
:106B500002B080BD80B582B00190009143F2E01197
:106B6000C2F20001032008700020487001228A70E0
:106B7000C8700A714A718A71C8710872102048720F
:106B8000072088720198C8600098086141F20000EF
:106B9000C4F202007022FFF7A7FD0199009A48F69F
:106BA0004C30C0F20200F9F73DF902B080BD0000A0
:106BB00080B586B0049003914EF60450CEF20000EA
:106BC00000686FF35F20B0FA80F040098DF807008D
:106BD0009DF8070028B1FFE7F9F7E4F8406B80471C
:106BE000FFE743F2F411C2F20001B1F88400ADF8FE
:106BF0000A00B1F88600B1F88410401AADF8080018
:106C0000BDF90800002807DCFFE7BDF8080000F523
:106C10000050ADF80800FFE7BDF90800012806DBC9
:106C2000FFE7BDF808000138ADF80800FFE703985A
:106C3000BDF90810884212DDFFE79DF8070028B172
:106C4000FFE7F9F7AFF8806B8047FFE743F2F410F6
:106C5000C2F2000000F02CF80120059025E0049914
:106C6000039ABDF80A3043F2F410C2F2000000901B
:106C700000F0B0FB00996FF35F30ADF80A00BDF88B
:106C80000A00A1F884009DF8070028B1FFE7F9F792
:106C900089F8806B8047FFE743F2F410C2F20000EE
:106CA00000F006F800200590FFE7059806B080BDCB
:106CB00080B582B00190F9F775F8816A0198D0F833
:106CC0008C00884702B080BD43F29C21C2F20001D3
:106CD000086801300860704781B0009001B07047CB
:106CE00081B00090002001B07047000072B643F2FE
:106CF0003041C2F2000108680130086070470000AE
:106D000043F29021C2F200014FF438304860002075
:106D1000087048708870704787B00590049103929E
:106D200005980068800718B1FFE70120069022E06F
:106D30000598006802900398800801900020009058
:106D4000FFE70098019988420DD2FFE70298009969
:106D500050F821000499009A41F82200FFE70098BA
:106D600001300090EDE7039A059908681044086027
:106D700000200690FFE7069807B0704743F2902086
:106D8000C2F200007047000080B584B00390039801
:106D9000029048F2DC70C0F20200019040F6E84038
:106DA000C2F20000007830B9FFE748F60400C0F2F4
:106DB00002000190FFE7FFE70298007888B1FFE743
:106DC00002980078202807D1FFE702990020087078
:106DD00002980130029004E0029801300290FFE72F
:106DE000EAE700200090FFE7009804280FD8FFE7AB
:106DF0000198009950F831000399FFF770F908B92C
:106E0000FFE704E0FFE7009801300090ECE700980E
:106E1000052801D3FFE70AE0009948F2DC70C0F2D0
:106E2000020000EBC10041680298884703E000209F
:106E3000FFF788FEFFE704B080BD000081B000903E
:106E40000098B0F8030001B07047000081B00090D6
:106E50000098807801B0704781B000900098007869
:106E600001B0704781B000900098043001B07047C5
:106E70007047000043F23040C2F20000016801395F
:106E800001600068002802DCFFE762B6FFE7704798
:106E900080B54EF21001CEF200010120086062B60A
:106EA000F8F7A2FF43F2A820C2F20000016843F203
:106EB000AC20C2F200000068884780BD82B001901B
:106EC0000091002002B0704748F62C00C0F202008A
:106ED000704700007047000080B584B003900291B5
:106EE0000398029948430C3001F036FA0190019959
:106EF0000020886003980199086002980199486011
:106F0000019804B080BD000080B584B0029001916A
:106F1000F8F704FF0298009000988068002806DCCB
:106F2000FFE7FFF7A5FF4FF0FF30039016E0019851
:106F3000009A02F10C015268FFF796F800998868F0
:106F400001388860009901F10C004A688B6881184B
:106F50005A43FFF789F800200390FFE7039804B035
:106F600080BD000080B584B002900191029800902D
:106F7000009801688068884204DBFFE74FF0FF302B
:106F800003900FE000994A68886800FB02100C30FB
:106F90000199FFF769F8009988680130886000203E
:106FA0000390FFE7039804B080BD000080B58EB069
:106FB0006A4600200C909062506201210D9111628E
:106FC000D061916150611061D06090605160072183
:106FD00011601321A1231A46E0F7E6FD0C9848F250
:106FE000C432C0F202020F21E0F79AFD0D990C980D
:106FF00048F6EA02C0F20202E0F796FE0D9948F266
:10700000D432C0F202020846E0F796FD0EB080BD11
:1070100080B500F087F84FF4E13000F09FF980BDB3
:1070200080B584B00390029148F67810C0F2020057
:10703000F8F7F8FE46F64900C0F2020046F669018C
:10704000C0F20201DFF774F843F2A020C2F20000A0
:1070500048F20121C0F2020101914160E3F7FCF91D
:107060000198DFF70FF9002004B080BD80B582B031
:1070700040F20040C0F20400FFF7B6F943F20060AE
:10708000C0F26E104FF4E131FFF764FD1120009063
:1070900000210191FFF7F0F800990120FFF7DAF8DD
:1070A00012200A21FFF7E8F8019841F24801C4F2E2
:1070B0000201086041F20000C4F202006621FFF7FD
:1070C000A1F9019A47F6F161C0F202010820F8F730
:1070D0005BFF02B080BD00007047000085B08446B1
:1070E0000598CDF810C00391029201938DF803002A
:1070F0009DF8030068B9FFE7039843F2A821C2F2A4
:1071000000010860029843F2AC21C2F2000108605D
:10711000FFE743F29C21C2F20001086801300860D9
:1071200005B0704780B584B04FF48420FFF75CF958
:107130000020ADF80E00FFE7BDF80E00052821DCA9
:10714000FFE7BDF80E1040F6E560C2F200000190C6
:10715000405C00210291FFF78FF80198BDF80E10F6
:10716000405C0121FFF70EF801980299BDF80E204E
:10717000805CFFF73DF8FFE7BDF80E000130ADF889
:107180000E00D9E704B080BD7047000080B582B022
:1071900001900198002810D4FFE7019807280CDC23
:1071A000FFE7019800EB800140F6F060C2F20000BA
:1071B00000EB8100007C08B9FFE70CE0019800EBD0
:1071C000800140F6F060C2F2000000EB81004168EF
:1071D00080688847FFE702B080BD000080B50020CE
:1071E000FFF7D4FF80BD000080B50120FFF7CEFF80
:1071F00080BD000080B50220FFF7C8FF80BD000001
:1072000080B50320FFF7C2FF80BD000080B50420D9
:10721000FFF7BCFF80BD000080B50520FFF7B6FF7B
:1072200080BD000080B50620FFF7B0FF80BD0000E4
:1072300080B50720FFF7AAFF80BD000080B586B0AB
:1072400004900391029200200190FFE70198072823
:1072500012DCFFE7019800EB800140F6F060C2F21B
:10726000000000EB8100007C08B9FFE704E0FFE7C5
:10727000019801300190E9E7019808280ADBFFE74F
:1072800048F68710C0F202006121F8F7D5FD002012
:10729000059030E00299019800EB800240F6F06022
:1072A000C2F2000000EB820251600399019A02EBE6
:1072B000820200EB82029160049A02EB52014CF6CA
:1072C000CD43CCF6CC43A2FB033201EBD201019AB1
:1072D00002EB820200EB8202D160019901EB810195
:1072E00000EB810201211174019901EB810100EB96
:1072F00081000590FFE7059806B080BD80B584B099
:107300000390039802900298006800210191F8F719
:1073100061FE01980299087404B080BD80B582B006
:1073200001900198009000990868C968F8F752FE2A
:1073300002B080BD80B582B00190019800900098A5
:1073400000680021F8F746FE02B080BD80B582B02B
:107350000190FEF7C9FF02B080BD000080B588B083
:10736000079040F20020C0F20400FFF73DF8032030
:107370008DF80800002101918DF8091001208DF889
:107380000A008DF80B108DF80C008DF80D008DF8AB
:107390000E008DF80F108DF8101008218DF81110C7
:1073A0008DF8120043F20060C0F26E10059007984D
:1073B00006900020C4F2020002A95022FFF794F9BF
:1073C000019A48F23101C0F202010720F8F7DCFD12
:1073D00008B080BD80B586B00490039102920193FD
:1073E0000198C0F5005000900098029988420DDB8A
:1073F000FFE704980068019908440399029AFEF790
:1074000033FE019802990844059016E0049800683C
:10741000019908440399009AFEF726FE0099029804
:10742000401A0290049800680399009A1144029A45
:10743000FEF71AFE02980590FFE7059806B080BD9A
:1074400080B582B001908DF803108DF8022043F2D0
:107450002C30C2F20000007820B9FFE79DF803004D
:1074600008B9FFE72EE001999DF8032043F22C3084
:10747000C2F20000FFF7BAF99DF80300000720B13F
:10748000FFE79DF80200E8B1FFE743F22C30C2F2BB
:1074900000004088012808DCFFE743F22C31C2F2EB
:1074A00000010020087048800CE043F22C31C2F249
:1074B000000148880A18002010710120087000F0AF
:1074C0007BFEFFE702B080BD80B582B0F8F76AFCB2
:1074D000006A804743F2DC11C2F200010860F8F74D
:1074E00061FCD0F810C068460022026048F63630D1
:1074F000C0F2020047F20951C0F202014FF40073DA
:10750000E04702B080BD000080B5A0B01F90002011
:107510001E9043F2B020C2F20000FFF7BFF9FFE770
:10752000F8F740FC416A43F2DC10C2F2000014900C
:107530000068884714980068008801380146159152
:10754000062800F281841599DFE811F007001B007E
:10755000FA033904B200EE03610443F22C30C2F2A4
:107560000000139004301290FFF70EFC129813994C
:107570004988FEF7A0FD139900204880087000F0AC
:1075800064BC48F67C20C0F20200F8F74BFC43F2E2
:10759000B020C2F200001190FFF780F9119900208D
:1075A00081F84D00FFE743F2B020C2F2000090F8EE
:1075B0004D00052839DCFFE743F2B020C2F200009D
:1075C00090F84D0040F6E842C2F200024C2100FB68
:1075D0000120D0F8350001281CD1FFE743F2B0208C
:1075E000C2F20000109090F84D1048F6B220C0F2A0
:1075F0000200F8F717FC109890F84D1040F6E84399
:10760000C2F200034C2201FB023135310130FEF79A
:107610002BFD0AE0FFE743F2B021C2F2000191F82E
:107620004D00013081F84D00BDE743F2B021C2F2B8
:1076300000010120087040F6E840C2F20000C08D51
:1076400000F08AFE1E901E9898B9FFE743F2B02121
:10765000C2F20001052001F8050B48F6EA10C0F25D
:107660000200F8F7DFFB1E9800F04EFE00201E908F
:10767000EBE343F2B020C2F200000F9090F84D10FF
:10768000421D48F65820C0F20200F8F7CBFB0F98D5
:1076900090F84D0005280ADCFFE748F61630C0F2E6
:1076A0000200072100231A4600F0D2FBFFE7CCE3DB
:1076B00043F2B020C2F2000090F8540001380146B5
:1076C0000E91062800F22E830E99DFE811F00700D4
:1076D0004600F0012202C002FA02080348F689209F
:1076E000C0F20200F8F79EFB40F6E840C2F200004C
:1076F0000B90D0F8011048F6C810C0F20200F8F75D
:1077000091FB0B98D0F8012041F20000C4F2020076
:1077100043F20061C0F26E11FEF790FF43F2B02118
:10772000C2F20001002001F85C0F0C91202048708B
:1077300048F6FB10C0F20200F8F774FB0C9A48F60A
:107740004430C0F20200072102230D9300F080FBB9
:107750000C990D9801F8080CE5E240F6E840C2F2F9
:107760000000007858BBFFE743F2B020C2F20000EF
:10777000B0F8580018BBFFE743F2B020C2F2000097
:10778000B0F85600D8B9FFE740F6E840C2F2000072
:107790000A90D0F8011048F6C810C0F20200F8F7BD
:1077A00041FB0A98D0F8012041F20000C4F2020027
:1077B00043F20061C0F26E11FEF740FFFFE743F2B3
:1077C000B021C2F20001B1F8580040F6E842C2F21E
:1077D0000002928D5043D1F84910884262D3FFE7EE
:1077E00043F2B021C2F20001B1F856000130A1F815
:1077F00056000020A1F8580091F84D00013081F8A2
:107800004D00FFE743F2B020C2F2000090F84D00B7
:1078100005282FDCFFE743F2B020C2F2000090F809
:107820004D0040F6E842C2F200024C2100FB01206C
:10783000D0F83500012812D1FFE743F2B020C2F2A0
:10784000000090F84D1040F6E843C2F200034C22CD
:1078500001FB023135310130FEF706FC0AE0FFE79B
:1078600043F2B021C2F2000191F84D00013081F8DD
:107870004D00C7E743F2B020C2F2000090F84D007F
:1078800005280EDCFFE743F2B020C2F2000090F8BA
:107890004D10421D48F65820C0F20200F8F7C2FA17
:1078A000FFE7FFE743F2B020C2F20000B0F8560055
:1078B00040F6E841C2F2000191F8341088427ADBC8
:1078C000FFE743F2B020C2F200000990B0F8561072
:1078D00048F6A620C0F20200F8F7A4FA0998B0F81A
:1078E0005810B0F85A2048F69720C0F20200F8F776
:1078F00099FA0999002081F85400A1F85600A1F8DE
:107900005800A1F84E0040F6E840C2F20000D0F85E
:107910001900012822D1FFE740F6E840C2F200003A
:107920000078D8B9FFE743F2B020C2F2000000F1BE
:107930005C011D9140F6E841C2F20001D1F8191036
:107940001D9A1160072180F854101D9A48F6FE20F8
:10795000C0F20200042300F07BFA1AE040F6E8408F
:10796000C2F20000D0F80D00012811D1FFE748F65F
:107970002E30C0F20200072100231A4600F068FAF8
:1079800043F2B021C2F20001062081F85400FFE763
:10799000FFE748F62120C0F20200F8F743FA43F26D
:1079A000B021C2F200010C2008701E9800F0ACFC5F
:1079B00000201E90B7E143F2B020C2F20000022185
:1079C00001700021A0F85A1000F15C011C91D0F860
:1079D0004530B0F8581040F6E840C2F20000828D01
:1079E00001FB02311C9A11600078012811D1FFE7D8
:1079F00043F2B021C2F20001032081F854001C9A26
:107A000048F60630C0F202000721042300F020FAF5
:107A10003EE01E9940F6E840C2F20000C28D40F6FA
:107A2000EC60C2F20000FFF777F91B901B98B0B131
:107A3000FFE748F64720C0F20200F8F7F3F943F2F7
:107A4000B021C2F20001082008700020089081F8DF
:107A500054001E9800F058FC08981E9063E140F610
:107A6000E840C2F20000C08D1C99888043F2B0212A
:107A7000C2F20001042081F854001C9A48F63C3000
:107A8000C0F202000721062300F0E2F9FFE7FFE75A
:107A900043F2B021C2F20001B1F858000130A1F860
:107AA0005800B1F84E000130A1F84E003BE143F21E
:107AB000B021C2F20001079101F15C001A90D1F8E7
:107AC00045C0B1F85800421E40F6E840C2F200003E
:107AD000838D02FB03CCB1F85A20C38D02FB03C295
:107AE0001A9B1A60C08D01381A9A5060B1F85A007A
:107AF0000130A1F85A001A9A48F61E30C0F202006E
:107B00000721052300F0A4F90799042081F8540007
:107B100009E10020ADF8660040F6E840C2F200003E
:107B20000078012860D1FFE71E9940F6E840C2F2D4
:107B30000000C28D40F6EC60C2F20000FFF7ECF8E6
:107B400018901898B0B1FFE748F64720C0F202003D
:107B5000F8F768F943F2B021C2F20001082008707A
:107B60000020069081F854001E9800F0CDFB069886
:107B70001E90D8E040F6E841C2F200010591CB8D9D
:107B800043F2B022C2F200020492106D1844106554
:107B90001E98C98DFEF72EFF0599ADF866001E9858
:107BA000C98DFFF705F80DF166000221FFF700F817
:107BB000049A0599C88DB2F85A205043898D88429D
:107BC00008DBFFE743F2B021C2F20001022081F896
:107BD000540007E043F2B021C2F20001032081F813
:107BE0005400FFE7FFE731E040F6E841C2F2000150
:107BF0000191CB8D43F2B022C2F200020292106DCD
:107C0000184410651E98C98DFEF72CFF0199ADF838
:107C100066001E98C98D4908FEF7CAFF01991E9893
:107C2000C98D490800EB8100FEF7C2FF0DF1660027
:107C300002210391FEF7BCFF0299039881F85400DA
:107C4000B1F85A000130A1F85A00FFE76BE040F6A6
:107C5000E840C2F200000078012808D1FFE743F2B3
:107C6000B021C2F20001012081F8540007E043F284
:107C7000B021C2F20001022081F85400FFE743F274
:107C8000B021C2F2000101F15C00179040F6E8401B
:107C9000C2F20000D0F80100179A10600020A1F88D
:107CA0005600A1F85800A1F84E00A1F85A00179A02
:107CB00048F60E30C0F202000721042300F0C8F895
:107CC00031E043F2B021C2F20001002081F85400FB
:107CD00048F61120C0F20200F8F7A4F823E040F6BD
:107CE000E840C2F20000D0F80D00012811D1FFE7F2
:107CF00048F62E30C0F20200072100231A4600F099
:107D0000A7F843F2B021C2F20001062081F8540026
:107D100007E043F2B021C2F20001002081F85400D4
:107D2000FFE7FFE7FFE790E048F63120C0F20200EE
:107D3000F8F778F81E9800F0E7FA00201E9084E02B
:107D400048F63820C0F20200F8F76CF840F6E84038
:107D5000C2F200000078012808D1FFE743F2B02109
:107D6000C2F20001012081F8540007E043F2B02183
:107D7000C2F20001022081F85400FFE743F2B02074
:107D8000C2F200000021A0F85610A0F85810A0F888
:107D90004E10A0F85A105C30169040F6E840C2F23F
:107DA0000000D0F8010016990860169A48F60E30C7
:107DB000C0F202000721042300F04AF845E048F62B
:107DC000D710C0F20200F8F72DF840F6E840C2F2F2
:107DD0000000D0F8110088B1FFE743F2B021C2F2F1
:107DE0000001052081F8540048F62630C0F2020058
:107DF000072100231A4600F02BF807E043F2B021D8
:107E0000C2F20001002081F85400FFE71DE043F2B8
:107E1000B020C2F2000090F85400A0B1FFE743F296
:107E2000B021C2F2000100200090A1F85600A1F894
:107E30005800A1F84E0081F854001E9800F064FA32
:107E400000981E90FFE700E0FFE7FFF769BB000026
:107E500080B584B00390ADF80A100192ADF80230FD
:107E6000039830B1FFE70398BDF80A10FEF7A0FEB3
:107E7000FFE7019830B1FFE70198BDF80210FEF767
:107E800097FEFFE704B080BD80B586B005900491F1
:107E90000392F7F787FF006A804743F2F411C2F2BA
:107EA00000010291C1F88C000598C1F89000039878
:107EB000C1F894000498C1F8980040F69070C2F29E
:107EC00000000860F7F76EFF029AD0F810C069460C
:107ED0000020086048F66830C0F2020047F6C5711D
:107EE000C0F202014FF40073E04706B080BD00000D
:107EF00080B58CB00B9000200090099008900790FE
:107F0000069005900490039002908DF80700FFE71B
:107F100043F2F410C2F20000D0F89000FEF7DEFB4E
:107F20000A900A9808B9FFE748E00A9843F2F4116A
:107F3000C2F20001D1F8901048649DF8280010F0BA
:107F4000500F2DD0FFE7FFE743F2F410C2F200001C
:107F5000D0F89000FEF7B2FB012813D0FFE743F200
:107F6000F410C2F20000D0F8900000688DF806000E
:107F70009DF806009DF80720511C8DF8071002A9F6
:107F80008854E1E743F2F410C2F20000D0F89430D4
:107F90009DF807100A9800F0400202A89847FFE7F2
:107FA0009DF828008006002807D5FFE743F2F4106B
:107FB000C2F20000FEF77CFEFFE7A9E700200CB04C
:107FC00080BD000080B582B0019001980090FFE76D
:107FD000FFE7F7F7E7FE416A0098D0F88C00884782
:107FE00008B1FFE7F4E7FFE70099B1F88600B1F8C0
:107FF000841088421BD0FFE70098D0F89000FEF76D
:1080000065FB90B9FFE7009A1168D2F89000B2F8CA
:108010008620895CFEF7F6F90099B1F886000130F8
:108020006FF35F30A1F8860000E0D2E7DCE7CFE72E
:1080300080B588B0069000208DF813000020C4F2AF
:108040000200FEF74BFB05909DF81400C0060028C7
:108050004DD5FFE7FFE70020C4F20200FEF72EFB3C
:10806000012843D0FFE70020C4F20200006843F279
:108070003441C2F200010B8843F23742C2F20002DF
:10808000D054088801300880FFE743F23440C2F240
:1080900000000088B0F5807F18DBFFE743F2344032
:1080A000C2F200000390028848F69310C0F202006A
:1080B00048F6BD11C0F202014FF48073F7F7B2FE2B
:1080C0000399002008800120079072E0FFE79DF8E7
:1080D000130001308DF813009DF81300072804DB0E
:1080E000FFE700208DF8130000E0B4E758E09DF8AA
:1080F00014004006002852D5FFE7FFE70020C4F235
:108100000200FEF7DBFA012835D0FFE70020C4F2B9
:108110000200006843F23441C2F200010B8843F2CE
:108120003742C2F20002D054088801300880FFE7CD
:1081300043F23440C2F200000088B0F5807F18DBC3
:10814000FFE743F23440C2F200000290028848F692
:108150009310C0F2020048F6BD11C0F202014FF4C4
:108160008073F7F75FFE02990020088001200790D6
:108170001FE0FFE7C2E743F23440C2F20000019083
:108180000088ADF81000BDF8101043F23740C2F27D
:10819000000000F027F8019900200880FFE7FFE7C2
:1081A000059841F24401C4F20201086000200790E2
:1081B000FFE7079808B080BD80B582B0ADF8060033
:1081C000BDF8060043F2DC11C2F20001009109681B
:1081D0000880F7F7E7FD01460098896A006888473C
:1081E00002B080BD82B00190ADF8021002B07047BD
:1081F00083B002900191ADF80220FFE703B0704711
:1082000080B586B08DF81700ADF814100492ADF863
:108210000E300498FEF720FE8DF80D009DF8170033
:10822000042801D0FFE75DE09DF80D0001460191B3
:10823000052841D0FFE701980E2821D0FFE70198DB
:108240003E2822D0FFE70198602808D0FFE7019878
:10825000B7283AD0FFE70198FF2837D041E00498CB
:10826000FEF716FB022801D0FFE73BE048F681311C
:10827000C0F202010020DFF747FBFEF797FE31E076
:108280000498FEF7DBFDFFE72CE00498FEF7DEFD27
:10829000014600910A2804D0FFE70098292809D157
:1082A000FFE70498808848F6E801C0F20201DEF793
:1082B00010F800E0FFE715E048F2D432C0F2020205
:1082C00001210846DFF738FC0CE00BE00498FEF7CC
:1082D000C9FD0290029A106851681289FFF788FF61
:1082E00000E0FFE706B080BD02E008C8121F08C129
:1082F000002AFAD170477047002001E001C1121F27
:10830000002AFBD17047000010B5002821D0114B86
:108310000022001F196803E0814203D80A46496819
:108320000029F9D152B11368841A9C4204D1006823
:1083300018441060104602E0506000E0186039B147
:1083400002680B1A934203D10B681A440260496811
:10835000416010BDE00C0020F0B50B30154D20F051
:1083600007010024144A0FE003688B420BD38B42B1
:1083700005D95E1A43184768C3E9006700E04368FF
:10838000136002C004E0021D10680028ECD12046F2
:10839000002802D1286808B10020F0BD064A07482D
:1083A0001060074A121A22F00702C0E900240120D7
:1083B0002860D7E7E40C0020E00C00203C350020CA
:1083C0003835002002010A0B09757064617465205C
:1083D00073646B0000000000000000C1814001C018
:1083E000804101C0804100C1814001C0804100C185
:1083F000814000C1814001C0804101C0804100C175
:10840000814000C1814001C0804100C1814001C064
:10841000804101C0804100C1814001C0804100C154
:10842000814000C1814001C0804100C1814001C044
:10843000804101C0804100C1814000C1814001C034
:10844000804101C0804100C1814001C0804100C124
:10845000814000C1814001C0804101C0804100C114
:10846000814000C1814001C0804100C1814001C004
:10847000804101C0804100C1814000C1814001C0F4
:10848000804101C0804100C1814001C0804100C1E4
:10849000814000C1814001C0804100C1814001C0D4
:1084A000804101C0804100C1814001C0804100C1C4
:1084B000814000C1814001C0804101C0804100C1B4
:1084C000814000C1814001C0804100C1814001C0A4
:1084D000804101C0804100C1814000C1814001C094
:1084E000804101C0804100C1814001C0804100C184
:1084F000814000C1814001C0804101C0804100C174
:10850000814000C1814001C0804100C1814001C063
:10851000804101C0804100C1814001C0804100C153
:10852000814000C1814001C0804100C1814001C043
:10853000804101C0804100C1814000C1814001C033
:10854000804101C0804100C1814001C0804100C123
:10855000814000C1814001C0804101C0804100C113
:10856000814000C1814001C0804100C1814001C003
:10857000804101C0804100C1814000C1814001C0F3
:10858000804101C0804100C1814001C0804100C1E3
:10859000814000C1814001C0804100C1814001C0D3
:1085A000804101C0804100C1814001C0804100C1C3
:1085B000814000C1814001C0804101C0804100C1B3
:1085C000814000C1814001C0804100C1814001C0A3
:1085D000804101C0804100C1814000C0C101C3038E
:1085E00002C2C60607C705C5C404CC0C0DCD0FCF0B
:1085F000CE0E0ACACB0BC90908C8D81819D91BDB7B
:10860000DA1A1EDEDF1FDD1D1CDC14D4D515D717CA
:1086100016D6D21213D311D1D010F03031F133F37A
:10862000F23236F6F737F53534F43CFCFD3DFF3FCA
:108630003EFEFA3A3BFB39F9F83828E8E929EB2BFA
:108640002AEAEE2E2FEF2DEDEC2CE42425E527E78A
:10865000E62622E2E323E12120E0A06061A163A3FA
:10866000A26266A6A767A56564A46CACAD6DAF6F8A
:108670006EAEAA6A6BAB69A9A86878B8B979BB7BFA
:108680007ABABE7E7FBF7DBDBC7CB47475B577B74A
:10869000B67672B2B373B17170B05090915193537A
:1086A000529296565797559594549C5C5D9D5F9F4A
:1086B0009E5E5A9A9B5B99595898884849894B8B7A
:1086C0008A4A4E8E8F4F8D4D4C8C4484854587470A
:1086D0004686824243834181804000C0C101C3037A
:1086E00002C2C60607C705C5C404CC0C0DCD0FCF0A
:1086F000CE0E0ACACB0BC90908C8D81819D91BDB7A
:10870000DA1A1EDEDF1FDD1D1CDC14D4D515D717C9
:1087100016D6D21213D311D1D010F03031F133F379
:10872000F23236F6F737F53534F43CFCFD3DFF3FC9
:108730003EFEFA3A3BFB39F9F83828E8E929EB2BF9
:108740002AEAEE2E2FEF2DEDEC2CE42425E527E789
:10875000E62622E2E323E12120E0A06061A163A3F9
:10876000A26266A6A767A56564A46CACAD6DAF6F89
:108770006EAEAA6A6BAB69A9A86878B8B979BB7BF9
:108780007ABABE7E7FBF7DBDBC7CB47475B577B749
:10879000B67672B2B373B17170B050909151935379
:1087A000529296565797559594549C5C5D9D5F9F49
:1087B0009E5E5A9A9B5B99595898884849894B8B79
:1087C0008A4A4E8E8F4F8D4D4C8C44848545874709
:1087D000468682424383418180400000ED8A020048
:1087E000F56A0200C98A0200D56A0200C28A020044
:1087F000356B0200D78A0200256B0200D08A020086
:10880000E56A0200DE8A0200F56A0200C98A0200F7
:10881000D56A0200C28A0200356B0200D78A0200C4
:10882000256B0200D08A0200E56A02003D72020058
:108830001D73020035730200FD720200DD7002003C
:10884000D96E0200656F0200096F0200C96C020058
:10885000E16C0200D96C0200598302000983020016
:10886000ED6C0200756E0200916E020089710200CB
:10887000D9700200D56E02004569020000000000B8
:108880002170020000000000000000000000000055
:1088900000000000000000000000000000000000D8
:1088A000D168020000000000B16802000000000072
:1088B000BD6E0200000000002969020000000000F7
:1088C000756902003634002000000000000000003E
:1088D0000000000000000000000000000000000098
:1088E0000000000000000000000000484152444623
:1088F00041554C543A0A5043203A203078253038BC
:10890000580A4C52203A203078253038580A5053B3
:10891000523A203078253038580A5230203A2030E8
:1089200078253038580A5231203A203078253038AE
:10893000580A5232203A203078253038580A5233BB
:10894000203A203078253038580A5231323A2030D7
:1089500078253038580A005B4F4F4D5D2040202568
:10896000640A005B415353455254494F4E5D2040C9
:108970002025733A25640A0073657475702070723F
:108980006F66696C650A006E6F6F735F696D706CFE
:108990002E63005B4552524F525D204275666665FC
:1089A00072206F766572666C6F7721202825733D83
:1089B00025642C206D61783D2564290A0072656369
:1089C0006976655F6C656E005365742062617564DD
:1089D000203A25640D0A00466C6173682077617344
:1089E000206C6F636B65640D0A002573206F7065E2
:1089F0006E206661696C65640D0A0073657420669B
:108A00006C6173682071737069206D6F64650D0A05
:108A1000004C6F636B20636F6D706C6574650D0A3D
:108A2000004275726E20636F6D706C6574650D0A1F
:108A3000006E61636B0D0A00666C61736820756E71
:108A40006C6F636B0D0A00466C6173682072656120
:108A500064206572720D0A0055617274206275722D
:108A60006E207374617274202362696E2564202DF8
:108A70002025730D0A006576656E74204275726E4E
:108A80002073746172740D0A006275726E207374C3
:108A900065702031200A0073692025642C207061E4
:108AA000672025640A006275726E20636F2025645A
:108AB0000A0062696E696E646578206973202564B6
:108AC0000A0023246E616B0A00232461636B0A0091
:108AD00023246C636B0A002324756C6B0A005561B8
:108AE00072744275726E53746172740A00556172C9
:108AF000744275726E537461727439313600232476
:108B00007365746A610023247374657261002324A1
:108B10007362617564002324737461746500232497
:108B20007532667368002324756E6C636B002324B2
:108B30006C6F636B6B0062756E65720023247374D7
:108B4000617274002324667368737400636F6D6DC3
:108B5000206261756420636F6C636B3A25642C62DC
:108B60006175643A25640A00756172740053454763
:108B700047455200525454005465726D696E616CE1
:108B800000DAC32B35243B00A88B0200E00C002048
:108B9000B002000014610200108C0200900F00204F
:108BA000A8290000F882020091B80140420F00E8B5
:108BB000034201C201380600400702D204320154C8
:108BC000100001430101093A746573742E62696EE5
:108BD00007FF2000027C98020180370C0D10111253
:108BE000130712E00200DD71020412E9710204129F
:108BF000F57102041201720204120D7202041219BC
:108C00007202041225720204123172020000000086
:04000005000260098C
:00000001FF
